{
    "_format": "hh-sol-artifact-1",
    "contractName": "AddressWhitelist",
    "sourceName": "contracts/common/implementation/AddressWhitelist.sol",
    "abi": [
        {
            "anonymous": false,
            "inputs": [
                {
                    "indexed": true,
                    "internalType": "address",
                    "name": "addedAddress",
                    "type": "address"
                }
            ],
            "name": "AddedToWhitelist",
            "type": "event"
        },
        {
            "anonymous": false,
            "inputs": [
                {
                    "indexed": true,
                    "internalType": "address",
                    "name": "previousOwner",
                    "type": "address"
                },
                {
                    "indexed": true,
                    "internalType": "address",
                    "name": "newOwner",
                    "type": "address"
                }
            ],
            "name": "OwnershipTransferred",
            "type": "event"
        },
        {
            "anonymous": false,
            "inputs": [
                {
                    "indexed": true,
                    "internalType": "address",
                    "name": "removedAddress",
                    "type": "address"
                }
            ],
            "name": "RemovedFromWhitelist",
            "type": "event"
        },
        {
            "inputs": [
                {
                    "internalType": "address",
                    "name": "newElement",
                    "type": "address"
                }
            ],
            "name": "addToWhitelist",
            "outputs": [],
            "stateMutability": "nonpayable",
            "type": "function"
        },
        {
            "inputs": [],
            "name": "getWhitelist",
            "outputs": [
                {
                    "internalType": "address[]",
                    "name": "activeWhitelist",
                    "type": "address[]"
                }
            ],
            "stateMutability": "view",
            "type": "function"
        },
        {
            "inputs": [
                {
                    "internalType": "address",
                    "name": "elementToCheck",
                    "type": "address"
                }
            ],
            "name": "isOnWhitelist",
            "outputs": [
                {
                    "internalType": "bool",
                    "name": "",
                    "type": "bool"
                }
            ],
            "stateMutability": "view",
            "type": "function"
        },
        {
            "inputs": [],
            "name": "owner",
            "outputs": [
                {
                    "internalType": "address",
                    "name": "",
                    "type": "address"
                }
            ],
            "stateMutability": "view",
            "type": "function"
        },
        {
            "inputs": [
                {
                    "internalType": "address",
                    "name": "elementToRemove",
                    "type": "address"
                }
            ],
            "name": "removeFromWhitelist",
            "outputs": [],
            "stateMutability": "nonpayable",
            "type": "function"
        },
        {
            "inputs": [],
            "name": "renounceOwnership",
            "outputs": [],
            "stateMutability": "nonpayable",
            "type": "function"
        },
        {
            "inputs": [
                {
                    "internalType": "address",
                    "name": "newOwner",
                    "type": "address"
                }
            ],
            "name": "transferOwnership",
            "outputs": [],
            "stateMutability": "nonpayable",
            "type": "function"
        },
        {
            "inputs": [
                {
                    "internalType": "address",
                    "name": "",
                    "type": "address"
                }
            ],
            "name": "whitelist",
            "outputs": [
                {
                    "internalType": "enum AddressWhitelist.Status",
                    "name": "",
                    "type": "uint8"
                }
            ],
            "stateMutability": "view",
            "type": "function"
        },
        {
            "inputs": [
                {
                    "internalType": "uint256",
                    "name": "",
                    "type": "uint256"
                }
            ],
            "name": "whitelistIndices",
            "outputs": [
                {
                    "internalType": "address",
                    "name": "",
                    "type": "address"
                }
            ],
            "stateMutability": "view",
            "type": "function"
        }
    ],
    "bytecode": "0x608060405234801561001057600080fd5b5061001a33610032565b6000805460ff60a01b1916600160a01b179055610082565b600080546001600160a01b038381166001600160a01b0319831681178455604051919092169283917f8be0079c531659141344cd1fd0a4f28419497f9722a3daafe3b4186f6b6457e09190a35050565b610cdc806100916000396000f3fe608060405234801561001057600080fd5b50600436106100a35760003560e01c80638da5cb5b11610076578063d01f63f51161005b578063d01f63f514610173578063e43252d714610188578063f2fde38b1461019b57600080fd5b80638da5cb5b146101255780639b19251a1461014357600080fd5b806337797c08146100a85780633a3ab672146100e5578063715018a6146101085780638ab1d68114610112575b600080fd5b6100bb6100b6366004610ac9565b6101ae565b60405173ffffffffffffffffffffffffffffffffffffffff90911681526020015b60405180910390f35b6100f86100f3366004610ae2565b6101e5565b60405190151581526020016100dc565b610110610232565b005b610110610120366004610ae2565b6102c4565b60005473ffffffffffffffffffffffffffffffffffffffff166100bb565b610166610151366004610ae2565b60016020526000908152604090205460ff1681565b6040516100dc9190610b4e565b61017b610477565b6040516100dc9190610b8f565b610110610196366004610ae2565b610641565b6101106101a9366004610ae2565b6108a3565b600281815481106101be57600080fd5b60009182526020909120015473ffffffffffffffffffffffffffffffffffffffff16905081565b60006101ef6109d0565b600173ffffffffffffffffffffffffffffffffffffffff831660009081526001602052604090205460ff16600281111561022b5761022b610b1f565b1492915050565b60005473ffffffffffffffffffffffffffffffffffffffff1633146102b8576040517f08c379a000000000000000000000000000000000000000000000000000000000815260206004820181905260248201527f4f776e61626c653a2063616c6c6572206973206e6f7420746865206f776e657260448201526064015b60405180910390fd5b6102c26000610a54565b565b6102cc6109d0565b6102f9600080547fffffffffffffffffffffff00ffffffffffffffffffffffffffffffffffffffff169055565b60005473ffffffffffffffffffffffffffffffffffffffff16331461037a576040517f08c379a000000000000000000000000000000000000000000000000000000000815260206004820181905260248201527f4f776e61626c653a2063616c6c6572206973206e6f7420746865206f776e657260448201526064016102af565b600273ffffffffffffffffffffffffffffffffffffffff821660009081526001602052604090205460ff1660028111156103b6576103b6610b1f565b146104305773ffffffffffffffffffffffffffffffffffffffff811660008181526001602052604080822080547fffffffffffffffffffffffffffffffffffffffffffffffffffffffffffffff00166002179055517fcdd2e9b91a56913d370075169cefa1602ba36be5301664f752192bb1709df7579190a25b610474600080547fffffffffffffffffffffff00ffffffffffffffffffffffffffffffffffffffff1674010000000000000000000000000000000000000000179055565b50565b60606104816109d0565b6000805b600254811015610512576001806000600284815481106104a7576104a7610be9565b600091825260208083209091015473ffffffffffffffffffffffffffffffffffffffff16835282019290925260400190205460ff1660028111156104ed576104ed610b1f565b0361050057816104fc81610c18565b9250505b8061050a81610c18565b915050610485565b508067ffffffffffffffff81111561052c5761052c610c77565b604051908082528060200260200182016040528015610555578160200160208202803683370190505b5091506000905060005b60025481101561063c5760006002828154811061057e5761057e610be9565b60009182526020909120015473ffffffffffffffffffffffffffffffffffffffff169050600173ffffffffffffffffffffffffffffffffffffffff821660009081526001602052604090205460ff1660028111156105de576105de610b1f565b0361062957808484815181106105f6576105f6610be9565b73ffffffffffffffffffffffffffffffffffffffff909216602092830291909101909101528261062581610c18565b9350505b508061063481610c18565b91505061055f565b505090565b6106496109d0565b610676600080547fffffffffffffffffffffff00ffffffffffffffffffffffffffffffffffffffff169055565b60005473ffffffffffffffffffffffffffffffffffffffff1633146106f7576040517f08c379a000000000000000000000000000000000000000000000000000000000815260206004820181905260248201527f4f776e61626c653a2063616c6c6572206973206e6f7420746865206f776e657260448201526064016102af565b600173ffffffffffffffffffffffffffffffffffffffff821660009081526001602052604090205460ff16600281111561073357610733610b1f565b146104305773ffffffffffffffffffffffffffffffffffffffff811660009081526001602052604081205460ff16600281111561077257610772610b1f565b036107e857600280546001810182556000919091527f405787fa12a823e0f2b7631cc41b3ba8828b3321ca811111fa75cd3aa3bb5ace0180547fffffffffffffffffffffffff00000000000000000000000000000000000000001673ffffffffffffffffffffffffffffffffffffffff83161790555b73ffffffffffffffffffffffffffffffffffffffff8116600081815260016020819052604080832080547fffffffffffffffffffffffffffffffffffffffffffffffffffffffffffffff0016909217909155517fa850ae9193f515cbae8d35e8925bd2be26627fc91bce650b8652ed254e9cab039190a2610474600080547fffffffffffffffffffffff00ffffffffffffffffffffffffffffffffffffffff1674010000000000000000000000000000000000000000179055565b60005473ffffffffffffffffffffffffffffffffffffffff163314610924576040517f08c379a000000000000000000000000000000000000000000000000000000000815260206004820181905260248201527f4f776e61626c653a2063616c6c6572206973206e6f7420746865206f776e657260448201526064016102af565b73ffffffffffffffffffffffffffffffffffffffff81166109c7576040517f08c379a000000000000000000000000000000000000000000000000000000000815260206004820152602660248201527f4f776e61626c653a206e6577206f776e657220697320746865207a65726f206160448201527f646472657373000000000000000000000000000000000000000000000000000060648201526084016102af565b61047481610a54565b60005474010000000000000000000000000000000000000000900460ff166102c2576040517f08c379a000000000000000000000000000000000000000000000000000000000815260206004820152601f60248201527f5265656e7472616e637947756172643a207265656e7472616e742063616c6c0060448201526064016102af565b6000805473ffffffffffffffffffffffffffffffffffffffff8381167fffffffffffffffffffffffff0000000000000000000000000000000000000000831681178455604051919092169283917f8be0079c531659141344cd1fd0a4f28419497f9722a3daafe3b4186f6b6457e09190a35050565b600060208284031215610adb57600080fd5b5035919050565b600060208284031215610af457600080fd5b813573ffffffffffffffffffffffffffffffffffffffff81168114610b1857600080fd5b9392505050565b7f4e487b7100000000000000000000000000000000000000000000000000000000600052602160045260246000fd5b6020810160038310610b89577f4e487b7100000000000000000000000000000000000000000000000000000000600052602160045260246000fd5b91905290565b6020808252825182820181905260009190848201906040850190845b81811015610bdd57835173ffffffffffffffffffffffffffffffffffffffff1683529284019291840191600101610bab565b50909695505050505050565b7f4e487b7100000000000000000000000000000000000000000000000000000000600052603260045260246000fd5b60007fffffffffffffffffffffffffffffffffffffffffffffffffffffffffffffffff8203610c70577f4e487b7100000000000000000000000000000000000000000000000000000000600052601160045260246000fd5b5060010190565b7f4e487b7100000000000000000000000000000000000000000000000000000000600052604160045260246000fdfea2646970667358221220e20e3f53ecb4353ba072ff192ea48025a61f375daf64b1e162dcfa5a336694cc64736f6c63430008100033",
    "linkReferences": {},
    "deployedLinkReferences": {}
}