{
    "_format": "hh-sol-artifact-1",
    "contractName": "AddressWhitelist",
    "sourceName": "contracts/common/implementation/AddressWhitelist.sol",
    "abi": [
        {
            "anonymous": false,
            "inputs": [
                {
                    "indexed": true,
                    "internalType": "address",
                    "name": "addedAddress",
                    "type": "address"
                }
            ],
            "name": "AddedToWhitelist",
            "type": "event"
        },
        {
            "anonymous": false,
            "inputs": [
                {
                    "indexed": true,
                    "internalType": "address",
                    "name": "previousOwner",
                    "type": "address"
                },
                {
                    "indexed": true,
                    "internalType": "address",
                    "name": "newOwner",
                    "type": "address"
                }
            ],
            "name": "OwnershipTransferred",
            "type": "event"
        },
        {
            "anonymous": false,
            "inputs": [
                {
                    "indexed": true,
                    "internalType": "address",
                    "name": "removedAddress",
                    "type": "address"
                }
            ],
            "name": "RemovedFromWhitelist",
            "type": "event"
        },
        {
            "inputs": [
                {
                    "internalType": "address",
                    "name": "newElement",
                    "type": "address"
                }
            ],
            "name": "addToWhitelist",
            "outputs": [],
            "stateMutability": "nonpayable",
            "type": "function"
        },
        {
            "inputs": [],
            "name": "getWhitelist",
            "outputs": [
                {
                    "internalType": "address[]",
                    "name": "activeWhitelist",
                    "type": "address[]"
                }
            ],
            "stateMutability": "view",
            "type": "function"
        },
        {
            "inputs": [
                {
                    "internalType": "address",
                    "name": "elementToCheck",
                    "type": "address"
                }
            ],
            "name": "isOnWhitelist",
            "outputs": [
                {
                    "internalType": "bool",
                    "name": "",
                    "type": "bool"
                }
            ],
            "stateMutability": "view",
            "type": "function"
        },
        {
            "inputs": [],
            "name": "owner",
            "outputs": [
                {
                    "internalType": "address",
                    "name": "",
                    "type": "address"
                }
            ],
            "stateMutability": "view",
            "type": "function"
        },
        {
            "inputs": [
                {
                    "internalType": "address",
                    "name": "elementToRemove",
                    "type": "address"
                }
            ],
            "name": "removeFromWhitelist",
            "outputs": [],
            "stateMutability": "nonpayable",
            "type": "function"
        },
        {
            "inputs": [],
            "name": "renounceOwnership",
            "outputs": [],
            "stateMutability": "nonpayable",
            "type": "function"
        },
        {
            "inputs": [
                {
                    "internalType": "address",
                    "name": "newOwner",
                    "type": "address"
                }
            ],
            "name": "transferOwnership",
            "outputs": [],
            "stateMutability": "nonpayable",
            "type": "function"
        },
        {
            "inputs": [
                {
                    "internalType": "address",
                    "name": "",
                    "type": "address"
                }
            ],
            "name": "whitelist",
            "outputs": [
                {
                    "internalType": "enum AddressWhitelist.Status",
                    "name": "",
                    "type": "uint8"
                }
            ],
            "stateMutability": "view",
            "type": "function"
        },
        {
            "inputs": [
                {
                    "internalType": "uint256",
                    "name": "",
                    "type": "uint256"
                }
            ],
            "name": "whitelistIndices",
            "outputs": [
                {
                    "internalType": "address",
                    "name": "",
                    "type": "address"
                }
            ],
            "stateMutability": "view",
            "type": "function"
        }
    ],
    "bytecode": "0x608060405234801561001057600080fd5b5061001a33610032565b6000805460ff60a01b1916600160a01b179055610082565b600080546001600160a01b038381166001600160a01b0319831681178455604051919092169283917f8be0079c531659141344cd1fd0a4f28419497f9722a3daafe3b4186f6b6457e09190a35050565b610b79806100916000396000f3fe608060405234801561001057600080fd5b50600436106100a35760003560e01c80638da5cb5b11610076578063d01f63f51161005b578063d01f63f514610173578063e43252d714610188578063f2fde38b1461019b57600080fd5b80638da5cb5b146101255780639b19251a1461014357600080fd5b806337797c08146100a85780633a3ab672146100e5578063715018a6146101085780638ab1d68114610112575b600080fd5b6100bb6100b6366004610966565b6101ae565b60405173ffffffffffffffffffffffffffffffffffffffff90911681526020015b60405180910390f35b6100f86100f336600461097f565b6101e5565b60405190151581526020016100dc565b610110610232565b005b61011061012036600461097f565b610246565b60005473ffffffffffffffffffffffffffffffffffffffff166100bb565b61016661015136600461097f565b60016020526000908152604090205460ff1681565b6040516100dc91906109eb565b61017b610380565b6040516100dc9190610a2c565b61011061019636600461097f565b61054a565b6101106101a936600461097f565b610733565b600281815481106101be57600080fd5b60009182526020909120015473ffffffffffffffffffffffffffffffffffffffff16905081565b60006101ef6107ec565b600173ffffffffffffffffffffffffffffffffffffffff831660009081526001602052604090205460ff16600281111561022b5761022b6109bc565b1492915050565b61023a610870565b61024460006108f1565b565b61024e6107ec565b61027b600080547fffffffffffffffffffffff00ffffffffffffffffffffffffffffffffffffffff169055565b610283610870565b600273ffffffffffffffffffffffffffffffffffffffff821660009081526001602052604090205460ff1660028111156102bf576102bf6109bc565b146103395773ffffffffffffffffffffffffffffffffffffffff811660008181526001602052604080822080547fffffffffffffffffffffffffffffffffffffffffffffffffffffffffffffff00166002179055517fcdd2e9b91a56913d370075169cefa1602ba36be5301664f752192bb1709df7579190a25b61037d600080547fffffffffffffffffffffff00ffffffffffffffffffffffffffffffffffffffff1674010000000000000000000000000000000000000000179055565b50565b606061038a6107ec565b6000805b60025481101561041b576001806000600284815481106103b0576103b0610a86565b600091825260208083209091015473ffffffffffffffffffffffffffffffffffffffff16835282019290925260400190205460ff1660028111156103f6576103f66109bc565b03610409578161040581610ab5565b9250505b8061041381610ab5565b91505061038e565b508067ffffffffffffffff81111561043557610435610b14565b60405190808252806020026020018201604052801561045e578160200160208202803683370190505b5091506000905060005b6002548110156105455760006002828154811061048757610487610a86565b60009182526020909120015473ffffffffffffffffffffffffffffffffffffffff169050600173ffffffffffffffffffffffffffffffffffffffff821660009081526001602052604090205460ff1660028111156104e7576104e76109bc565b0361053257808484815181106104ff576104ff610a86565b73ffffffffffffffffffffffffffffffffffffffff909216602092830291909101909101528261052e81610ab5565b9350505b508061053d81610ab5565b915050610468565b505090565b6105526107ec565b61057f600080547fffffffffffffffffffffff00ffffffffffffffffffffffffffffffffffffffff169055565b610587610870565b600173ffffffffffffffffffffffffffffffffffffffff821660009081526001602052604090205460ff1660028111156105c3576105c36109bc565b146103395773ffffffffffffffffffffffffffffffffffffffff811660009081526001602052604081205460ff166002811115610602576106026109bc565b0361067857600280546001810182556000919091527f405787fa12a823e0f2b7631cc41b3ba8828b3321ca811111fa75cd3aa3bb5ace0180547fffffffffffffffffffffffff00000000000000000000000000000000000000001673ffffffffffffffffffffffffffffffffffffffff83161790555b73ffffffffffffffffffffffffffffffffffffffff8116600081815260016020819052604080832080547fffffffffffffffffffffffffffffffffffffffffffffffffffffffffffffff0016909217909155517fa850ae9193f515cbae8d35e8925bd2be26627fc91bce650b8652ed254e9cab039190a261037d600080547fffffffffffffffffffffff00ffffffffffffffffffffffffffffffffffffffff1674010000000000000000000000000000000000000000179055565b61073b610870565b73ffffffffffffffffffffffffffffffffffffffff81166107e3576040517f08c379a000000000000000000000000000000000000000000000000000000000815260206004820152602660248201527f4f776e61626c653a206e6577206f776e657220697320746865207a65726f206160448201527f646472657373000000000000000000000000000000000000000000000000000060648201526084015b60405180910390fd5b61037d816108f1565b60005474010000000000000000000000000000000000000000900460ff16610244576040517f08c379a000000000000000000000000000000000000000000000000000000000815260206004820152601f60248201527f5265656e7472616e637947756172643a207265656e7472616e742063616c6c0060448201526064016107da565b60005473ffffffffffffffffffffffffffffffffffffffff163314610244576040517f08c379a000000000000000000000000000000000000000000000000000000000815260206004820181905260248201527f4f776e61626c653a2063616c6c6572206973206e6f7420746865206f776e657260448201526064016107da565b6000805473ffffffffffffffffffffffffffffffffffffffff8381167fffffffffffffffffffffffff0000000000000000000000000000000000000000831681178455604051919092169283917f8be0079c531659141344cd1fd0a4f28419497f9722a3daafe3b4186f6b6457e09190a35050565b60006020828403121561097857600080fd5b5035919050565b60006020828403121561099157600080fd5b813573ffffffffffffffffffffffffffffffffffffffff811681146109b557600080fd5b9392505050565b7f4e487b7100000000000000000000000000000000000000000000000000000000600052602160045260246000fd5b6020810160038310610a26577f4e487b7100000000000000000000000000000000000000000000000000000000600052602160045260246000fd5b91905290565b6020808252825182820181905260009190848201906040850190845b81811015610a7a57835173ffffffffffffffffffffffffffffffffffffffff1683529284019291840191600101610a48565b50909695505050505050565b7f4e487b7100000000000000000000000000000000000000000000000000000000600052603260045260246000fd5b60007fffffffffffffffffffffffffffffffffffffffffffffffffffffffffffffffff8203610b0d577f4e487b7100000000000000000000000000000000000000000000000000000000600052601160045260246000fd5b5060010190565b7f4e487b7100000000000000000000000000000000000000000000000000000000600052604160045260246000fdfea26469706673582212200cb1d3cc2e7ee2899a5224e019f8017210ed992a37c5c73202cdee7219dbfb5c64736f6c63430008100033",
    "linkReferences": {},
    "deployedLinkReferences": {}
}