{
    "_format": "hh-sol-artifact-1",
    "contractName": "Registry",
    "sourceName": "contracts/oracle/implementation/Registry.sol",
    "abi": [
        {
            "inputs": [],
            "stateMutability": "nonpayable",
            "type": "constructor"
        },
        {
            "anonymous": false,
            "inputs": [
                {
                    "indexed": true,
                    "internalType": "uint256",
                    "name": "roleId",
                    "type": "uint256"
                },
                {
                    "indexed": true,
                    "internalType": "address",
                    "name": "newMember",
                    "type": "address"
                },
                {
                    "indexed": true,
                    "internalType": "address",
                    "name": "manager",
                    "type": "address"
                }
            ],
            "name": "AddedSharedMember",
            "type": "event"
        },
        {
            "anonymous": false,
            "inputs": [
                {
                    "indexed": true,
                    "internalType": "address",
                    "name": "contractAddress",
                    "type": "address"
                },
                {
                    "indexed": true,
                    "internalType": "address",
                    "name": "creator",
                    "type": "address"
                },
                {
                    "indexed": false,
                    "internalType": "address[]",
                    "name": "parties",
                    "type": "address[]"
                }
            ],
            "name": "NewContractRegistered",
            "type": "event"
        },
        {
            "anonymous": false,
            "inputs": [
                {
                    "indexed": true,
                    "internalType": "address",
                    "name": "contractAddress",
                    "type": "address"
                },
                {
                    "indexed": true,
                    "internalType": "address",
                    "name": "party",
                    "type": "address"
                }
            ],
            "name": "PartyAdded",
            "type": "event"
        },
        {
            "anonymous": false,
            "inputs": [
                {
                    "indexed": true,
                    "internalType": "address",
                    "name": "contractAddress",
                    "type": "address"
                },
                {
                    "indexed": true,
                    "internalType": "address",
                    "name": "party",
                    "type": "address"
                }
            ],
            "name": "PartyRemoved",
            "type": "event"
        },
        {
            "anonymous": false,
            "inputs": [
                {
                    "indexed": true,
                    "internalType": "uint256",
                    "name": "roleId",
                    "type": "uint256"
                },
                {
                    "indexed": true,
                    "internalType": "address",
                    "name": "oldMember",
                    "type": "address"
                },
                {
                    "indexed": true,
                    "internalType": "address",
                    "name": "manager",
                    "type": "address"
                }
            ],
            "name": "RemovedSharedMember",
            "type": "event"
        },
        {
            "anonymous": false,
            "inputs": [
                {
                    "indexed": true,
                    "internalType": "uint256",
                    "name": "roleId",
                    "type": "uint256"
                },
                {
                    "indexed": true,
                    "internalType": "address",
                    "name": "newMember",
                    "type": "address"
                },
                {
                    "indexed": true,
                    "internalType": "address",
                    "name": "manager",
                    "type": "address"
                }
            ],
            "name": "ResetExclusiveMember",
            "type": "event"
        },
        {
            "inputs": [
                {
                    "internalType": "uint256",
                    "name": "roleId",
                    "type": "uint256"
                },
                {
                    "internalType": "address",
                    "name": "newMember",
                    "type": "address"
                }
            ],
            "name": "addMember",
            "outputs": [],
            "stateMutability": "nonpayable",
            "type": "function"
        },
        {
            "inputs": [
                {
                    "internalType": "address",
                    "name": "party",
                    "type": "address"
                }
            ],
            "name": "addPartyToContract",
            "outputs": [],
            "stateMutability": "nonpayable",
            "type": "function"
        },
        {
            "inputs": [
                {
                    "internalType": "address",
                    "name": "",
                    "type": "address"
                }
            ],
            "name": "contractMap",
            "outputs": [
                {
                    "internalType": "enum Registry.Validity",
                    "name": "valid",
                    "type": "uint8"
                },
                {
                    "internalType": "uint128",
                    "name": "index",
                    "type": "uint128"
                }
            ],
            "stateMutability": "view",
            "type": "function"
        },
        {
            "inputs": [],
            "name": "getAllRegisteredContracts",
            "outputs": [
                {
                    "internalType": "address[]",
                    "name": "",
                    "type": "address[]"
                }
            ],
            "stateMutability": "view",
            "type": "function"
        },
        {
            "inputs": [
                {
                    "internalType": "uint256",
                    "name": "roleId",
                    "type": "uint256"
                }
            ],
            "name": "getMember",
            "outputs": [
                {
                    "internalType": "address",
                    "name": "",
                    "type": "address"
                }
            ],
            "stateMutability": "view",
            "type": "function"
        },
        {
            "inputs": [
                {
                    "internalType": "address",
                    "name": "party",
                    "type": "address"
                }
            ],
            "name": "getRegisteredContracts",
            "outputs": [
                {
                    "internalType": "address[]",
                    "name": "",
                    "type": "address[]"
                }
            ],
            "stateMutability": "view",
            "type": "function"
        },
        {
            "inputs": [
                {
                    "internalType": "uint256",
                    "name": "roleId",
                    "type": "uint256"
                },
                {
                    "internalType": "address",
                    "name": "memberToCheck",
                    "type": "address"
                }
            ],
            "name": "holdsRole",
            "outputs": [
                {
                    "internalType": "bool",
                    "name": "",
                    "type": "bool"
                }
            ],
            "stateMutability": "view",
            "type": "function"
        },
        {
            "inputs": [
                {
                    "internalType": "address",
                    "name": "contractAddress",
                    "type": "address"
                }
            ],
            "name": "isContractRegistered",
            "outputs": [
                {
                    "internalType": "bool",
                    "name": "",
                    "type": "bool"
                }
            ],
            "stateMutability": "view",
            "type": "function"
        },
        {
            "inputs": [
                {
                    "internalType": "address",
                    "name": "party",
                    "type": "address"
                },
                {
                    "internalType": "address",
                    "name": "contractAddress",
                    "type": "address"
                }
            ],
            "name": "isPartyMemberOfContract",
            "outputs": [
                {
                    "internalType": "bool",
                    "name": "",
                    "type": "bool"
                }
            ],
            "stateMutability": "view",
            "type": "function"
        },
        {
            "inputs": [
                {
                    "internalType": "address[]",
                    "name": "parties",
                    "type": "address[]"
                },
                {
                    "internalType": "address",
                    "name": "contractAddress",
                    "type": "address"
                }
            ],
            "name": "registerContract",
            "outputs": [],
            "stateMutability": "nonpayable",
            "type": "function"
        },
        {
            "inputs": [
                {
                    "internalType": "uint256",
                    "name": "",
                    "type": "uint256"
                }
            ],
            "name": "registeredContracts",
            "outputs": [
                {
                    "internalType": "address",
                    "name": "",
                    "type": "address"
                }
            ],
            "stateMutability": "view",
            "type": "function"
        },
        {
            "inputs": [
                {
                    "internalType": "uint256",
                    "name": "roleId",
                    "type": "uint256"
                },
                {
                    "internalType": "address",
                    "name": "memberToRemove",
                    "type": "address"
                }
            ],
            "name": "removeMember",
            "outputs": [],
            "stateMutability": "nonpayable",
            "type": "function"
        },
        {
            "inputs": [
                {
                    "internalType": "address",
                    "name": "partyAddress",
                    "type": "address"
                }
            ],
            "name": "removePartyFromContract",
            "outputs": [],
            "stateMutability": "nonpayable",
            "type": "function"
        },
        {
            "inputs": [
                {
                    "internalType": "uint256",
                    "name": "roleId",
                    "type": "uint256"
                }
            ],
            "name": "renounceMembership",
            "outputs": [],
            "stateMutability": "nonpayable",
            "type": "function"
        },
        {
            "inputs": [
                {
                    "internalType": "uint256",
                    "name": "roleId",
                    "type": "uint256"
                },
                {
                    "internalType": "address",
                    "name": "newMember",
                    "type": "address"
                }
            ],
            "name": "resetMember",
            "outputs": [],
            "stateMutability": "nonpayable",
            "type": "function"
        }
    ],
    "bytecode": "0x60806040523480156200001157600080fd5b50620000206000803362000044565b604080516000808252602082019092526200003e9160019162000194565b6200048f565b826000808281526020819052604090206001015460ff1660028111156200006f576200006f6200043b565b14620000c25760405162461bcd60e51b815260206004820152601e60248201527f43616e6e6f74207573652061207072652d6578697374696e6720726f6c65000060448201526064015b60405180910390fd5b60008481526020819052604090206001808201805460ff191682800217905550838155620001006002820184620002d8602090811b6200149d17901c565b60008481526020819052604081206001015460ff1660028111156200012957620001296200043b565b036200018d5760405162461bcd60e51b815260206004820152603c602482015260008051602062001ffe83398151915260448201527f20746f206d616e61676520616e206578636c757369766520726f6c65000000006064820152608401620000b9565b5050505050565b826000808281526020819052604090206001015460ff166002811115620001bf57620001bf6200043b565b146200020e5760405162461bcd60e51b815260206004820152601e60248201527f43616e6e6f74207573652061207072652d6578697374696e6720726f6c6500006044820152606401620000b9565b60008481526020818152604090912060018101805460ff19166002179055848155906200024b9060038301908590620014a7620002e8821b17901c565b60008481526020819052604081206001015460ff1660028111156200027457620002746200043b565b036200018d5760405162461bcd60e51b8152602060048201526038602482015260008051602062001ffe83398151915260448201527f20746f206d616e61676520612073686172656420726f6c6500000000000000006064820152608401620000b9565b620002e482826200033d565b5050565b60005b8151811015620003385762000323838383815181106200030f576200030f62000451565b6020026020010151620003be60201b60201c565b806200032f8162000467565b915050620002eb565b505050565b6001600160a01b038116620003a15760405162461bcd60e51b815260206004820152602360248201527f43616e6e6f742073657420616e206578636c757369766520726f6c6520746f2060448201526203078360ec1b6064820152608401620000b9565b81546001600160a01b0319166001600160a01b0391909116179055565b6001600160a01b038116620004165760405162461bcd60e51b815260206004820152601f60248201527f43616e6e6f74206164642030783020746f20612073686172656420726f6c65006044820152606401620000b9565b6001600160a01b0316600090815260209190915260409020805460ff19166001179055565b634e487b7160e01b600052602160045260246000fd5b634e487b7160e01b600052603260045260246000fd5b6000600182016200048857634e487b7160e01b600052601160045260246000fd5b5060010190565b611b5f806200049f6000396000f3fe608060405234801561001057600080fd5b50600436106100f55760003560e01c806374d0a67611610097578063ab3545e511610066578063ab3545e51461021f578063d97c05be14610257578063e33c4cd21461026a578063f9f6b49b1461027d57600080fd5b806374d0a676146101c35780637a3edab0146101d65780637cdc1cb9146101f9578063aaa14ca31461020c57600080fd5b8063303118d0116100d3578063303118d0146101405780633c0af3441461015357806366c8c2501461019d5780636be7658b146101b057600080fd5b80631676ddc3146100fa578063167cdde714610118578063188c6ff81461012d575b600080fd5b610102610290565b60405161010f91906117c9565b60405180910390f35b61012b61012636600461184c565b6102ff565b005b61010261013b36600461184c565b61039f565b61012b61014e36600461184c565b61042f565b61018f61016136600461184c565b60026020526000908152604090205460ff81169061010090046fffffffffffffffffffffffffffffffff1682565b60405161010f929190611896565b61012b6101ab3660046118f2565b61077e565b61012b6101be366004611976565b610a57565b61012b6101d1366004611976565b610c3c565b6101e96101e43660046119a2565b610dfe565b604051901515815260200161010f565b6101e9610207366004611976565b610eae565b61012b61021a3660046119cc565b610fb6565b61023261022d3660046119cc565b611177565b60405173ffffffffffffffffffffffffffffffffffffffff909116815260200161010f565b61012b610265366004611976565b61125f565b6102326102783660046119cc565b611421565b6101e961028b36600461184c565b611458565b606060018054806020026020016040519081016040528092919081815260200182805480156102f557602002820191906000526020600020905b815473ffffffffffffffffffffffffffffffffffffffff1681526001909101906020018083116102ca575b5050505050905090565b3360008181526002602052604090205460019060ff168181111561032557610325611867565b14610391576040517f08c379a000000000000000000000000000000000000000000000000000000000815260206004820152601e60248201527f43616e206f6e6c792061646420746f2076616c696420636f6e7472616374000060448201526064015b60405180910390fd5b61039b82826114ed565b5050565b73ffffffffffffffffffffffffffffffffffffffff811660009081526003602090815260409182902080548351818402810184019094528084526060939283018282801561042357602002820191906000526020600020905b815473ffffffffffffffffffffffffffffffffffffffff1681526001909101906020018083116103f8575b50505050509050919050565b73ffffffffffffffffffffffffffffffffffffffff81166000908152600360205260408120805433928190036104c1576040517f08c379a000000000000000000000000000000000000000000000000000000000815260206004820152601660248201527f506172747920686173206e6f20636f6e747261637473000000000000000000006044820152606401610388565b600173ffffffffffffffffffffffffffffffffffffffff841660009081526002602052604090205460ff1660018111156104fd576104fd611867565b14610564576040517f08c379a000000000000000000000000000000000000000000000000000000000815260206004820152601f60248201527f52656d6f7665206f6e6c792066726f6d2076616c696420636f6e7472616374006044820152606401610388565b61056e8484610dfe565b6105d4576040517f08c379a000000000000000000000000000000000000000000000000000000000815260206004820152601e60248201527f43616e206f6e6c792072656d6f7665206578697374696e6720706172747900006044820152606401610388565b73ffffffffffffffffffffffffffffffffffffffff83166000908152600180840160205260408220549190849061060b9085611a14565b8154811061061b5761061b611a27565b600091825260209091200154845473ffffffffffffffffffffffffffffffffffffffff9091169150819085908490811061065757610657611a27565b600091825260208083209190910180547fffffffffffffffffffffffff00000000000000000000000000000000000000001673ffffffffffffffffffffffffffffffffffffffff9485161790559183168152600186019091526040902082905583548490806106c8576106c8611a56565b6000828152602080822083017fffffffffffffffffffffffffffffffffffffffffffffffffffffffffffffffff90810180547fffffffffffffffffffffffff000000000000000000000000000000000000000016905590920190925573ffffffffffffffffffffffffffffffffffffffff87811680845260018801909252604080842084905551908916927f8e0a870c3ff65bd1f2852048eb92d693833891a8c0ab0827347177544464c57091a3505050505050565b600161078a8133610eae565b610816576040517f08c379a000000000000000000000000000000000000000000000000000000000815260206004820152602260248201527f53656e64657220646f6573206e6f7420686f6c6420726571756972656420726f60448201527f6c650000000000000000000000000000000000000000000000000000000000006064820152608401610388565b73ffffffffffffffffffffffffffffffffffffffff82166000908152600260205260408120805490919060ff16600181111561085457610854611867565b146108bb576040517f08c379a000000000000000000000000000000000000000000000000000000000815260206004820152601660248201527f43616e206f6e6c79207265676973746572206f6e6365000000000000000000006044820152606401610388565b60018054808201825560008290527fb10e2d527612073b26eecdfd717e6a320cf44b4afac2b0732d9fcbe2b7fa0cf60180547fffffffffffffffffffffffff00000000000000000000000000000000000000001673ffffffffffffffffffffffffffffffffffffffff86161790558054610934916115ff565b815460016fffffffffffffffffffffffffffffffff92909216610100027fffffffffffffffffffffffffffffffffffffffffffffffffffffffffffffff00167fffffffffffffffffffffffffffffff00000000000000000000000000000000009091161717815560005b848110156109e8576109d68686838181106109bb576109bb611a27565b90506020020160208101906109d0919061184c565b856114ed565b6109e181600161160b565b905061099e565b503373ffffffffffffffffffffffffffffffffffffffff168373ffffffffffffffffffffffffffffffffffffffff167f1b0bc775e5162f873356bcc1733155bd2eb9509f1774770f54b4f938287bcf038787604051610a48929190611a85565b60405180910390a35050505050565b81600260008281526020819052604090206001015460ff166002811115610a8057610a80611867565b14610b0d576040517f08c379a000000000000000000000000000000000000000000000000000000000815260206004820152602c60248201527f4d7573742062652063616c6c6564206f6e20616e20696e697469616c697a656460448201527f2053686172656420726f6c6500000000000000000000000000000000000000006064820152608401610388565b6000838152602081905260409020548390610b289033610eae565b610bb3576040517f08c379a0000000000000000000000000000000000000000000000000000000008152602060048201526024808201527f43616e206f6e6c792062652063616c6c6564206279206120726f6c65206d616e60448201527f61676572000000000000000000000000000000000000000000000000000000006064820152608401610388565b60008481526020818152604080832073ffffffffffffffffffffffffffffffffffffffff8716808552600390910190925280832080547fffffffffffffffffffffffffffffffffffffffffffffffffffffffffffffff0016905551339287917feb3e33034c392e69263b04ec0fa376dc12784a41b6676c7f31b936cbc0fbb5af9190a450505050565b81600260008281526020819052604090206001015460ff166002811115610c6557610c65611867565b14610cf2576040517f08c379a000000000000000000000000000000000000000000000000000000000815260206004820152602c60248201527f4d7573742062652063616c6c6564206f6e20616e20696e697469616c697a656460448201527f2053686172656420726f6c6500000000000000000000000000000000000000006064820152608401610388565b6000838152602081905260409020548390610d0d9033610eae565b610d98576040517f08c379a0000000000000000000000000000000000000000000000000000000008152602060048201526024808201527f43616e206f6e6c792062652063616c6c6564206279206120726f6c65206d616e60448201527f61676572000000000000000000000000000000000000000000000000000000006064820152608401610388565b6000848152602081905260409020610db39060030184611617565b604051339073ffffffffffffffffffffffffffffffffffffffff85169086907f63502af7324ff6db91ab38f8236a648727d9385ea6c782073dd4882d8a61a48f90600090a450505050565b73ffffffffffffffffffffffffffffffffffffffff8083166000818152600360208181526040808420958716845260018601825283205493835252915481108015610ea4575073ffffffffffffffffffffffffffffffffffffffff848116600090815260036020526040902080549185169183908110610e8057610e80611a27565b60009182526020909120015473ffffffffffffffffffffffffffffffffffffffff16145b9150505b92915050565b600082815260208190526040812060018082015460ff166002811115610ed657610ed6611867565b03610f0457600281015473ffffffffffffffffffffffffffffffffffffffff8481169116145b915050610ea8565b6002600182015460ff166002811115610f1f57610f1f611867565b03610f545773ffffffffffffffffffffffffffffffffffffffff8316600090815260038201602052604090205460ff16610efc565b6040517f08c379a000000000000000000000000000000000000000000000000000000000815260206004820152600e60248201527f496e76616c696420726f6c6549640000000000000000000000000000000000006044820152606401610388565b80600260008281526020819052604090206001015460ff166002811115610fdf57610fdf611867565b1461106c576040517f08c379a000000000000000000000000000000000000000000000000000000000815260206004820152602c60248201527f4d7573742062652063616c6c6564206f6e20616e20696e697469616c697a656460448201527f2053686172656420726f6c6500000000000000000000000000000000000000006064820152608401610388565b816110778133610eae565b611103576040517f08c379a000000000000000000000000000000000000000000000000000000000815260206004820152602260248201527f53656e64657220646f6573206e6f7420686f6c6420726571756972656420726f60448201527f6c650000000000000000000000000000000000000000000000000000000000006064820152608401610388565b600083815260208181526040808320338452600301909152902080547fffffffffffffffffffffffffffffffffffffffffffffffffffffffffffffff001690556040513390819085907feb3e33034c392e69263b04ec0fa376dc12784a41b6676c7f31b936cbc0fbb5af90600090a4505050565b600081600160008281526020819052604090206001015460ff1660028111156111a2576111a2611867565b1461122f576040517f08c379a000000000000000000000000000000000000000000000000000000000815260206004820152602f60248201527f4d7573742062652063616c6c6564206f6e20616e20696e697469616c697a656460448201527f204578636c757369766520726f6c6500000000000000000000000000000000006064820152608401610388565b60008381526020819052604090206002015473ffffffffffffffffffffffffffffffffffffffff165b9392505050565b81600160008281526020819052604090206001015460ff16600281111561128857611288611867565b14611315576040517f08c379a000000000000000000000000000000000000000000000000000000000815260206004820152602f60248201527f4d7573742062652063616c6c6564206f6e20616e20696e697469616c697a656460448201527f204578636c757369766520726f6c6500000000000000000000000000000000006064820152608401610388565b60008381526020819052604090205483906113309033610eae565b6113bb576040517f08c379a0000000000000000000000000000000000000000000000000000000008152602060048201526024808201527f43616e206f6e6c792062652063616c6c6564206279206120726f6c65206d616e60448201527f61676572000000000000000000000000000000000000000000000000000000006064820152608401610388565b60008481526020819052604090206113d690600201846116e4565b604051339073ffffffffffffffffffffffffffffffffffffffff85169086907f3b855c56b409b671c7112789d022675eb639d0bcb8896f1b6197c132f799e74690600090a450505050565b6001818154811061143157600080fd5b60009182526020909120015473ffffffffffffffffffffffffffffffffffffffff16905081565b6000600173ffffffffffffffffffffffffffffffffffffffff831660009081526002602052604090205460ff16600181111561149657611496611867565b1492915050565b61039b82826116e4565b60005b81518110156114e8576114d6838383815181106114c9576114c9611a27565b6020026020010151611617565b806114e081611ade565b9150506114aa565b505050565b6114f78282610dfe565b1561155e576040517f08c379a000000000000000000000000000000000000000000000000000000000815260206004820152601e60248201527f43616e206f6e6c792072656769737465722061207061727479206f6e636500006044820152606401610388565b73ffffffffffffffffffffffffffffffffffffffff8281166000818152600360209081526040808320805460018082018355828652848620820180547fffffffffffffffffffffffff000000000000000000000000000000000000000016988a169889179055878652909101909252808320829055519093917f4b920dd33e12e37712086438f2afcecb921cefe83b717ca990222f53d7e2845491a3505050565b60006112588284611a14565b60006112588284611b16565b73ffffffffffffffffffffffffffffffffffffffff8116611694576040517f08c379a000000000000000000000000000000000000000000000000000000000815260206004820152601f60248201527f43616e6e6f74206164642030783020746f20612073686172656420726f6c65006044820152606401610388565b73ffffffffffffffffffffffffffffffffffffffff1660009081526020919091526040902080547fffffffffffffffffffffffffffffffffffffffffffffffffffffffffffffff00166001179055565b73ffffffffffffffffffffffffffffffffffffffff8116611787576040517f08c379a000000000000000000000000000000000000000000000000000000000815260206004820152602360248201527f43616e6e6f742073657420616e206578636c757369766520726f6c6520746f2060448201527f30783000000000000000000000000000000000000000000000000000000000006064820152608401610388565b81547fffffffffffffffffffffffff00000000000000000000000000000000000000001673ffffffffffffffffffffffffffffffffffffffff91909116179055565b6020808252825182820181905260009190848201906040850190845b8181101561181757835173ffffffffffffffffffffffffffffffffffffffff16835292840192918401916001016117e5565b50909695505050505050565b803573ffffffffffffffffffffffffffffffffffffffff8116811461184757600080fd5b919050565b60006020828403121561185e57600080fd5b61125882611823565b7f4e487b7100000000000000000000000000000000000000000000000000000000600052602160045260246000fd5b60408101600284106118d1577f4e487b7100000000000000000000000000000000000000000000000000000000600052602160045260246000fd5b9281526fffffffffffffffffffffffffffffffff9190911660209091015290565b60008060006040848603121561190757600080fd5b833567ffffffffffffffff8082111561191f57600080fd5b818601915086601f83011261193357600080fd5b81358181111561194257600080fd5b8760208260051b850101111561195757600080fd5b60209283019550935061196d9186019050611823565b90509250925092565b6000806040838503121561198957600080fd5b8235915061199960208401611823565b90509250929050565b600080604083850312156119b557600080fd5b6119be83611823565b915061199960208401611823565b6000602082840312156119de57600080fd5b5035919050565b7f4e487b7100000000000000000000000000000000000000000000000000000000600052601160045260246000fd5b81810381811115610ea857610ea86119e5565b7f4e487b7100000000000000000000000000000000000000000000000000000000600052603260045260246000fd5b7f4e487b7100000000000000000000000000000000000000000000000000000000600052603160045260246000fd5b60208082528181018390526000908460408401835b86811015611ad35773ffffffffffffffffffffffffffffffffffffffff611ac084611823565b1682529183019190830190600101611a9a565b509695505050505050565b60007fffffffffffffffffffffffffffffffffffffffffffffffffffffffffffffffff8203611b0f57611b0f6119e5565b5060010190565b80820180821115610ea857610ea86119e556fea2646970667358221220481d699fcdfc59758a0028cacc513cac7d5140c6fe7a07138d375986900a8a5c64736f6c63430008100033417474656d7074656420746f2075736520616e20696e76616c696420726f6c65",
    "linkReferences": {},
    "deployedLinkReferences": {}
}