{
    "_format": "hh-sol-artifact-1",
    "contractName": "Store",
    "sourceName": "contracts/oracle/implementation/Store.sol",
    "abi": [
        {
            "inputs": [
                {
                    "components": [
                        {
                            "internalType": "uint256",
                            "name": "rawValue",
                            "type": "uint256"
                        }
                    ],
                    "internalType": "struct FixedPoint.Unsigned",
                    "name": "_fixedOracleFeePerSecondPerPfc",
                    "type": "tuple"
                },
                {
                    "components": [
                        {
                            "internalType": "uint256",
                            "name": "rawValue",
                            "type": "uint256"
                        }
                    ],
                    "internalType": "struct FixedPoint.Unsigned",
                    "name": "_weeklyDelayFeePerSecondPerPfc",
                    "type": "tuple"
                },
                {
                    "internalType": "address",
                    "name": "_timerAddress",
                    "type": "address"
                }
            ],
            "stateMutability": "nonpayable",
            "type": "constructor"
        },
        {
            "anonymous": false,
            "inputs": [
                {
                    "indexed": true,
                    "internalType": "uint256",
                    "name": "roleId",
                    "type": "uint256"
                },
                {
                    "indexed": true,
                    "internalType": "address",
                    "name": "newMember",
                    "type": "address"
                },
                {
                    "indexed": true,
                    "internalType": "address",
                    "name": "manager",
                    "type": "address"
                }
            ],
            "name": "AddedSharedMember",
            "type": "event"
        },
        {
            "anonymous": false,
            "inputs": [
                {
                    "components": [
                        {
                            "internalType": "uint256",
                            "name": "rawValue",
                            "type": "uint256"
                        }
                    ],
                    "indexed": false,
                    "internalType": "struct FixedPoint.Unsigned",
                    "name": "newFinalFee",
                    "type": "tuple"
                }
            ],
            "name": "NewFinalFee",
            "type": "event"
        },
        {
            "anonymous": false,
            "inputs": [
                {
                    "components": [
                        {
                            "internalType": "uint256",
                            "name": "rawValue",
                            "type": "uint256"
                        }
                    ],
                    "indexed": false,
                    "internalType": "struct FixedPoint.Unsigned",
                    "name": "newOracleFee",
                    "type": "tuple"
                }
            ],
            "name": "NewFixedOracleFeePerSecondPerPfc",
            "type": "event"
        },
        {
            "anonymous": false,
            "inputs": [
                {
                    "components": [
                        {
                            "internalType": "uint256",
                            "name": "rawValue",
                            "type": "uint256"
                        }
                    ],
                    "indexed": false,
                    "internalType": "struct FixedPoint.Unsigned",
                    "name": "newWeeklyDelayFeePerSecondPerPfc",
                    "type": "tuple"
                }
            ],
            "name": "NewWeeklyDelayFeePerSecondPerPfc",
            "type": "event"
        },
        {
            "anonymous": false,
            "inputs": [
                {
                    "indexed": true,
                    "internalType": "uint256",
                    "name": "roleId",
                    "type": "uint256"
                },
                {
                    "indexed": true,
                    "internalType": "address",
                    "name": "oldMember",
                    "type": "address"
                },
                {
                    "indexed": true,
                    "internalType": "address",
                    "name": "manager",
                    "type": "address"
                }
            ],
            "name": "RemovedSharedMember",
            "type": "event"
        },
        {
            "anonymous": false,
            "inputs": [
                {
                    "indexed": true,
                    "internalType": "uint256",
                    "name": "roleId",
                    "type": "uint256"
                },
                {
                    "indexed": true,
                    "internalType": "address",
                    "name": "newMember",
                    "type": "address"
                },
                {
                    "indexed": true,
                    "internalType": "address",
                    "name": "manager",
                    "type": "address"
                }
            ],
            "name": "ResetExclusiveMember",
            "type": "event"
        },
        {
            "inputs": [],
            "name": "SECONDS_PER_WEEK",
            "outputs": [
                {
                    "internalType": "uint256",
                    "name": "",
                    "type": "uint256"
                }
            ],
            "stateMutability": "view",
            "type": "function"
        },
        {
            "inputs": [
                {
                    "internalType": "uint256",
                    "name": "roleId",
                    "type": "uint256"
                },
                {
                    "internalType": "address",
                    "name": "newMember",
                    "type": "address"
                }
            ],
            "name": "addMember",
            "outputs": [],
            "stateMutability": "nonpayable",
            "type": "function"
        },
        {
            "inputs": [
                {
                    "internalType": "address",
                    "name": "currency",
                    "type": "address"
                }
            ],
            "name": "computeFinalFee",
            "outputs": [
                {
                    "components": [
                        {
                            "internalType": "uint256",
                            "name": "rawValue",
                            "type": "uint256"
                        }
                    ],
                    "internalType": "struct FixedPoint.Unsigned",
                    "name": "",
                    "type": "tuple"
                }
            ],
            "stateMutability": "view",
            "type": "function"
        },
        {
            "inputs": [
                {
                    "internalType": "uint256",
                    "name": "startTime",
                    "type": "uint256"
                },
                {
                    "internalType": "uint256",
                    "name": "endTime",
                    "type": "uint256"
                },
                {
                    "components": [
                        {
                            "internalType": "uint256",
                            "name": "rawValue",
                            "type": "uint256"
                        }
                    ],
                    "internalType": "struct FixedPoint.Unsigned",
                    "name": "pfc",
                    "type": "tuple"
                }
            ],
            "name": "computeRegularFee",
            "outputs": [
                {
                    "components": [
                        {
                            "internalType": "uint256",
                            "name": "rawValue",
                            "type": "uint256"
                        }
                    ],
                    "internalType": "struct FixedPoint.Unsigned",
                    "name": "regularFee",
                    "type": "tuple"
                },
                {
                    "components": [
                        {
                            "internalType": "uint256",
                            "name": "rawValue",
                            "type": "uint256"
                        }
                    ],
                    "internalType": "struct FixedPoint.Unsigned",
                    "name": "latePenalty",
                    "type": "tuple"
                }
            ],
            "stateMutability": "view",
            "type": "function"
        },
        {
            "inputs": [
                {
                    "internalType": "address",
                    "name": "",
                    "type": "address"
                }
            ],
            "name": "finalFees",
            "outputs": [
                {
                    "internalType": "uint256",
                    "name": "rawValue",
                    "type": "uint256"
                }
            ],
            "stateMutability": "view",
            "type": "function"
        },
        {
            "inputs": [],
            "name": "fixedOracleFeePerSecondPerPfc",
            "outputs": [
                {
                    "internalType": "uint256",
                    "name": "rawValue",
                    "type": "uint256"
                }
            ],
            "stateMutability": "view",
            "type": "function"
        },
        {
            "inputs": [],
            "name": "getCurrentTime",
            "outputs": [
                {
                    "internalType": "uint256",
                    "name": "",
                    "type": "uint256"
                }
            ],
            "stateMutability": "view",
            "type": "function"
        },
        {
            "inputs": [
                {
                    "internalType": "uint256",
                    "name": "roleId",
                    "type": "uint256"
                }
            ],
            "name": "getMember",
            "outputs": [
                {
                    "internalType": "address",
                    "name": "",
                    "type": "address"
                }
            ],
            "stateMutability": "view",
            "type": "function"
        },
        {
            "inputs": [
                {
                    "internalType": "uint256",
                    "name": "roleId",
                    "type": "uint256"
                },
                {
                    "internalType": "address",
                    "name": "memberToCheck",
                    "type": "address"
                }
            ],
            "name": "holdsRole",
            "outputs": [
                {
                    "internalType": "bool",
                    "name": "",
                    "type": "bool"
                }
            ],
            "stateMutability": "view",
            "type": "function"
        },
        {
            "inputs": [],
            "name": "payOracleFees",
            "outputs": [],
            "stateMutability": "payable",
            "type": "function"
        },
        {
            "inputs": [
                {
                    "internalType": "address",
                    "name": "erc20Address",
                    "type": "address"
                },
                {
                    "components": [
                        {
                            "internalType": "uint256",
                            "name": "rawValue",
                            "type": "uint256"
                        }
                    ],
                    "internalType": "struct FixedPoint.Unsigned",
                    "name": "amount",
                    "type": "tuple"
                }
            ],
            "name": "payOracleFeesErc20",
            "outputs": [],
            "stateMutability": "nonpayable",
            "type": "function"
        },
        {
            "inputs": [
                {
                    "internalType": "uint256",
                    "name": "roleId",
                    "type": "uint256"
                },
                {
                    "internalType": "address",
                    "name": "memberToRemove",
                    "type": "address"
                }
            ],
            "name": "removeMember",
            "outputs": [],
            "stateMutability": "nonpayable",
            "type": "function"
        },
        {
            "inputs": [
                {
                    "internalType": "uint256",
                    "name": "roleId",
                    "type": "uint256"
                }
            ],
            "name": "renounceMembership",
            "outputs": [],
            "stateMutability": "nonpayable",
            "type": "function"
        },
        {
            "inputs": [
                {
                    "internalType": "uint256",
                    "name": "roleId",
                    "type": "uint256"
                },
                {
                    "internalType": "address",
                    "name": "newMember",
                    "type": "address"
                }
            ],
            "name": "resetMember",
            "outputs": [],
            "stateMutability": "nonpayable",
            "type": "function"
        },
        {
            "inputs": [
                {
                    "internalType": "uint256",
                    "name": "time",
                    "type": "uint256"
                }
            ],
            "name": "setCurrentTime",
            "outputs": [],
            "stateMutability": "nonpayable",
            "type": "function"
        },
        {
            "inputs": [
                {
                    "internalType": "address",
                    "name": "currency",
                    "type": "address"
                },
                {
                    "components": [
                        {
                            "internalType": "uint256",
                            "name": "rawValue",
                            "type": "uint256"
                        }
                    ],
                    "internalType": "struct FixedPoint.Unsigned",
                    "name": "newFinalFee",
                    "type": "tuple"
                }
            ],
            "name": "setFinalFee",
            "outputs": [],
            "stateMutability": "nonpayable",
            "type": "function"
        },
        {
            "inputs": [
                {
                    "components": [
                        {
                            "internalType": "uint256",
                            "name": "rawValue",
                            "type": "uint256"
                        }
                    ],
                    "internalType": "struct FixedPoint.Unsigned",
                    "name": "newFixedOracleFeePerSecondPerPfc",
                    "type": "tuple"
                }
            ],
            "name": "setFixedOracleFeePerSecondPerPfc",
            "outputs": [],
            "stateMutability": "nonpayable",
            "type": "function"
        },
        {
            "inputs": [
                {
                    "components": [
                        {
                            "internalType": "uint256",
                            "name": "rawValue",
                            "type": "uint256"
                        }
                    ],
                    "internalType": "struct FixedPoint.Unsigned",
                    "name": "newWeeklyDelayFeePerSecondPerPfc",
                    "type": "tuple"
                }
            ],
            "name": "setWeeklyDelayFeePerSecondPerPfc",
            "outputs": [],
            "stateMutability": "nonpayable",
            "type": "function"
        },
        {
            "inputs": [],
            "name": "timerAddress",
            "outputs": [
                {
                    "internalType": "address",
                    "name": "",
                    "type": "address"
                }
            ],
            "stateMutability": "view",
            "type": "function"
        },
        {
            "inputs": [],
            "name": "weeklyDelayFeePerSecondPerPfc",
            "outputs": [
                {
                    "internalType": "uint256",
                    "name": "rawValue",
                    "type": "uint256"
                }
            ],
            "stateMutability": "view",
            "type": "function"
        },
        {
            "inputs": [
                {
                    "internalType": "uint256",
                    "name": "amount",
                    "type": "uint256"
                }
            ],
            "name": "withdraw",
            "outputs": [],
            "stateMutability": "nonpayable",
            "type": "function"
        },
        {
            "inputs": [
                {
                    "internalType": "address",
                    "name": "erc20Address",
                    "type": "address"
                },
                {
                    "internalType": "uint256",
                    "name": "amount",
                    "type": "uint256"
                }
            ],
            "name": "withdrawErc20",
            "outputs": [],
            "stateMutability": "nonpayable",
            "type": "function"
        }
    ],
    "bytecode": "0x60806040523480156200001157600080fd5b506040516200298038038062002980833981016040819052620000349162000655565b600280546001600160a01b0319166001600160a01b0383161790556200005d600080336200008b565b6200006c6001600033620001ec565b620000778362000203565b620000828262000300565b505050620006f5565b826000808281526020819052604090206001015460ff166002811115620000b657620000b6620006b1565b14620001095760405162461bcd60e51b815260206004820152601e60248201527f43616e6e6f74207573652061207072652d6578697374696e6720726f6c65000060448201526064015b60405180910390fd5b60008481526020819052604090206001808201805460ff191682800217905550838155620001476002820184620003f7602090811b6200161517901c565b60008481526020819052604081206001015460ff166002811115620001705762000170620006b1565b03620001e55760405162461bcd60e51b815260206004820152603c60248201527f417474656d7074656420746f2075736520616e20696e76616c696420726f6c6560448201527f20746f206d616e61676520616e206578636c757369766520726f6c6500000000606482015260840162000100565b5050505050565b6001839055620001fe8383836200008b565b505050565b600062000211813362000407565b620002595760405162461bcd60e51b81526020600482015260226024820152600080516020620029608339815191526044820152616c6560f01b606482015260840162000100565b62000274600183620004df60201b6200161f1790919060201c565b620002c25760405162461bcd60e51b815260206004820152601e60248201527f466565206d757374206265203c203130302520706572207365636f6e642e0000604482015260640162000100565b815160038190556040519081527e41cf46cedaae9927def5c0647b190fd958c8ab8cde4219dad74319bc05d3d9906020015b60405180910390a15050565b60006200030e813362000407565b620003565760405162461bcd60e51b81526020600482015260226024820152600080516020620029608339815191526044820152616c6560f01b606482015260840162000100565b62000371600183620004df60201b6200161f1790919060201c565b620003bf5760405162461bcd60e51b815260206004820152601f60248201527f7765656b6c792064656c617920666565206d757374206265203c203130302500604482015260640162000100565b815160048190556040519081527f2e6cd3e6f7808568620c647ac0e652b0e95bef2494692adbc118fbbd02a8e82e90602001620002f4565b620004038282620004f8565b5050565b600082815260208190526040812060018082015460ff166002811115620004325762000432620006b1565b036200045e576200045583826002016200057960201b620016361790919060201c565b915050620004d9565b6002600182015460ff1660028111156200047c576200047c620006b1565b036200049f576200045583826003016200058c60201b620016561790919060201c565b60405162461bcd60e51b815260206004820152600e60248201526d125b9d985b1a59081c9bdb19525960921b604482015260640162000100565b92915050565b6000620004ec82620005ab565b51835110905092915050565b6001600160a01b0381166200055c5760405162461bcd60e51b815260206004820152602360248201527f43616e6e6f742073657420616e206578636c757369766520726f6c6520746f2060448201526203078360ec1b606482015260840162000100565b81546001600160a01b0319166001600160a01b0391909116179055565b90546001600160a01b0391821691161490565b6001600160a01b03166000908152602091909152604090205460ff1690565b6040805160208101909152600081526040518060200160405280620005e7670de0b6b3a764000085620005ef60201b620016821790919060201c565b905292915050565b6000620005fd8284620006c7565b9392505050565b6000602082840312156200061757600080fd5b604051602081016001600160401b03811182821017156200064857634e487b7160e01b600052604160045260246000fd5b6040529151825250919050565b6000806000606084860312156200066b57600080fd5b62000677858562000604565b925062000688856020860162000604565b60408501519092506001600160a01b0381168114620006a657600080fd5b809150509250925092565b634e487b7160e01b600052602160045260246000fd5b6000816000190483118215151615620006f057634e487b7160e01b600052601160045260246000fd5b500290565b61225b80620007056000396000f3fe6080604052600436106101755760003560e01c80637d69dfdb116100cb578063ab3545e51161007f578063bd1f4b5211610059578063bd1f4b5214610478578063cd3a9b2414610498578063d97c05be146104a057600080fd5b8063ab3545e514610418578063acb6f6cb14610438578063b187487d1461045857600080fd5b806384ae2a74116100b057806384ae2a74146103c15780638659d232146103d8578063aaa14ca3146103f857600080fd5b80637d69dfdb1461038a5780637e7e591d146103a157600080fd5b80635b97aadd1161012d57806374201feb1161010757806374201feb1461030557806374d0a6761461033a5780637cdc1cb91461035a57600080fd5b80635b97aadd1461024d5780636be7658b146102b85780636f356f4a146102d857600080fd5b806329cb924d1161015e57806329cb924d146101f35780632e1a7d4d146102165780632fee20981461023657600080fd5b80631c39c38d1461017a57806322f8e566146101d1575b600080fd5b34801561018657600080fd5b506002546101a79073ffffffffffffffffffffffffffffffffffffffff1681565b60405173ffffffffffffffffffffffffffffffffffffffff90911681526020015b60405180910390f35b3480156101dd57600080fd5b506101f16101ec366004611e94565b6104c0565b005b3480156101ff57600080fd5b50610208610569565b6040519081526020016101c8565b34801561022257600080fd5b506101f1610231366004611e94565b610625565b34801561024257600080fd5b506003546102089081565b34801561025957600080fd5b506102a9610268366004611ed6565b604080516020808201835260009182905273ffffffffffffffffffffffffffffffffffffffff93909316815260058352819020815192830190915254815290565b604051905181526020016101c8565b3480156102c457600080fd5b506101f16102d3366004611ef1565b6106d1565b3480156102e457600080fd5b506102086102f3366004611ed6565b60056020526000908152604090205481565b34801561031157600080fd5b50610325610320366004611f35565b6108b6565b604080519251835290516020830152016101c8565b34801561034657600080fd5b506101f1610355366004611ef1565b61097c565b34801561036657600080fd5b5061037a610375366004611ef1565b610b3e565b60405190151581526020016101c8565b34801561039657600080fd5b506004546102089081565b3480156103ad57600080fd5b506101f16103bc366004611fd4565b610c4c565b3480156103cd57600080fd5b5061020862093a8081565b3480156103e457600080fd5b506101f16103f3366004611fff565b610d4d565b34801561040457600080fd5b506101f1610413366004611e94565b610df6565b34801561042457600080fd5b506101a7610433366004611e94565b610fb7565b34801561044457600080fd5b506101f161045336600461202a565b61109f565b34801561046457600080fd5b506101f161047336600461202a565b6111e6565b34801561048457600080fd5b506101f1610493366004612046565b611326565b6101f16113e7565b3480156104ac57600080fd5b506101f16104bb366004611ef1565b611453565b60025473ffffffffffffffffffffffffffffffffffffffff166104e257600080fd5b6002546040517f22f8e5660000000000000000000000000000000000000000000000000000000081526004810183905273ffffffffffffffffffffffffffffffffffffffff909116906322f8e56690602401600060405180830381600087803b15801561054e57600080fd5b505af1158015610562573d6000803e3d6000fd5b5050505050565b60025460009073ffffffffffffffffffffffffffffffffffffffff161561062057600260009054906101000a900473ffffffffffffffffffffffffffffffffffffffff1673ffffffffffffffffffffffffffffffffffffffff166329cb924d6040518163ffffffff1660e01b8152600401602060405180830381865afa1580156105f7573d6000803e3d6000fd5b505050506040513d601f19601f8201168201806040525081019061061b9190612070565b905090565b504290565b6001546106328133610b3e565b6106c3576040517f08c379a000000000000000000000000000000000000000000000000000000000815260206004820152602260248201527f53656e64657220646f6573206e6f7420686f6c6420726571756972656420726f60448201527f6c6500000000000000000000000000000000000000000000000000000000000060648201526084015b60405180910390fd5b6106cd338361168e565b5050565b81600260008281526020819052604090206001015460ff1660028111156106fa576106fa612089565b14610787576040517f08c379a000000000000000000000000000000000000000000000000000000000815260206004820152602c60248201527f4d7573742062652063616c6c6564206f6e20616e20696e697469616c697a656460448201527f2053686172656420726f6c65000000000000000000000000000000000000000060648201526084016106ba565b60008381526020819052604090205483906107a29033610b3e565b61082d576040517f08c379a0000000000000000000000000000000000000000000000000000000008152602060048201526024808201527f43616e206f6e6c792062652063616c6c6564206279206120726f6c65206d616e60448201527f616765720000000000000000000000000000000000000000000000000000000060648201526084016106ba565b60008481526020818152604080832073ffffffffffffffffffffffffffffffffffffffff8716808552600390910190925280832080547fffffffffffffffffffffffffffffffffffffffffffffffffffffffffffffff0016905551339287917feb3e33034c392e69263b04ec0fa376dc12784a41b6676c7f31b936cbc0fbb5af9190a450505050565b60408051602081019091526000815260408051602081019091526000815260006108e085876117e8565b60408051602081019091526003548152909150610916906109108361090a3689900389018961202a565b906117f4565b90611825565b9250600061092c87610926610569565b906117e8565b905060006109566109408362093a80611862565b60408051602081019091526004548152906117f4565b905061096f816109108561090a368b90038b018b61202a565b9350505050935093915050565b81600260008281526020819052604090206001015460ff1660028111156109a5576109a5612089565b14610a32576040517f08c379a000000000000000000000000000000000000000000000000000000000815260206004820152602c60248201527f4d7573742062652063616c6c6564206f6e20616e20696e697469616c697a656460448201527f2053686172656420726f6c65000000000000000000000000000000000000000060648201526084016106ba565b6000838152602081905260409020548390610a4d9033610b3e565b610ad8576040517f08c379a0000000000000000000000000000000000000000000000000000000008152602060048201526024808201527f43616e206f6e6c792062652063616c6c6564206279206120726f6c65206d616e60448201527f616765720000000000000000000000000000000000000000000000000000000060648201526084016106ba565b6000848152602081905260409020610af3906003018461186e565b604051339073ffffffffffffffffffffffffffffffffffffffff85169086907f63502af7324ff6db91ab38f8236a648727d9385ea6c782073dd4882d8a61a48f90600090a450505050565b600082815260208190526040812060018082015460ff166002811115610b6657610b66612089565b03610b9457600281015473ffffffffffffffffffffffffffffffffffffffff8481169116145b915050610c46565b6002600182015460ff166002811115610baf57610baf612089565b03610be45773ffffffffffffffffffffffffffffffffffffffff8316600090815260038201602052604090205460ff16610b8c565b6040517f08c379a000000000000000000000000000000000000000000000000000000000815260206004820152600e60248201527f496e76616c696420726f6c65496400000000000000000000000000000000000060448201526064016106ba565b92915050565b6000610c588133610b3e565b610ce4576040517f08c379a000000000000000000000000000000000000000000000000000000000815260206004820152602260248201527f53656e64657220646f6573206e6f7420686f6c6420726571756972656420726f60448201527f6c6500000000000000000000000000000000000000000000000000000000000060648201526084016106ba565b73ffffffffffffffffffffffffffffffffffffffff83166000908152600560205260409081902083519055517f98c807f575ae6584ff8200eaf3205f3f20abf9c954fff030c152f5e7c5446d6e90610d40908451815260200190565b60405180910390a1505050565b81610d686000610d623685900385018561202a565b9061193b565b610dce576040517f08c379a000000000000000000000000000000000000000000000000000000000815260206004820152601960248201527f416d6f756e742073656e742063616e2774206265207a65726f0000000000000060448201526064016106ba565b610df173ffffffffffffffffffffffffffffffffffffffff821633308535611952565b505050565b80600260008281526020819052604090206001015460ff166002811115610e1f57610e1f612089565b14610eac576040517f08c379a000000000000000000000000000000000000000000000000000000000815260206004820152602c60248201527f4d7573742062652063616c6c6564206f6e20616e20696e697469616c697a656460448201527f2053686172656420726f6c65000000000000000000000000000000000000000060648201526084016106ba565b81610eb78133610b3e565b610f43576040517f08c379a000000000000000000000000000000000000000000000000000000000815260206004820152602260248201527f53656e64657220646f6573206e6f7420686f6c6420726571756972656420726f60448201527f6c6500000000000000000000000000000000000000000000000000000000000060648201526084016106ba565b600083815260208181526040808320338452600301909152902080547fffffffffffffffffffffffffffffffffffffffffffffffffffffffffffffff001690556040513390819085907feb3e33034c392e69263b04ec0fa376dc12784a41b6676c7f31b936cbc0fbb5af90600090a4505050565b600081600160008281526020819052604090206001015460ff166002811115610fe257610fe2612089565b1461106f576040517f08c379a000000000000000000000000000000000000000000000000000000000815260206004820152602f60248201527f4d7573742062652063616c6c6564206f6e20616e20696e697469616c697a656460448201527f204578636c757369766520726f6c65000000000000000000000000000000000060648201526084016106ba565b60008381526020819052604090206002015473ffffffffffffffffffffffffffffffffffffffff165b9392505050565b60006110ab8133610b3e565b611137576040517f08c379a000000000000000000000000000000000000000000000000000000000815260206004820152602260248201527f53656e64657220646f6573206e6f7420686f6c6420726571756972656420726f60448201527f6c6500000000000000000000000000000000000000000000000000000000000060648201526084016106ba565b61114282600161161f565b6111a8576040517f08c379a000000000000000000000000000000000000000000000000000000000815260206004820152601e60248201527f466565206d757374206265203c203130302520706572207365636f6e642e000060448201526064016106ba565b815160038190556040519081527e41cf46cedaae9927def5c0647b190fd958c8ab8cde4219dad74319bc05d3d9906020015b60405180910390a15050565b60006111f28133610b3e565b61127e576040517f08c379a000000000000000000000000000000000000000000000000000000000815260206004820152602260248201527f53656e64657220646f6573206e6f7420686f6c6420726571756972656420726f60448201527f6c6500000000000000000000000000000000000000000000000000000000000060648201526084016106ba565b61128982600161161f565b6112ef576040517f08c379a000000000000000000000000000000000000000000000000000000000815260206004820152601f60248201527f7765656b6c792064656c617920666565206d757374206265203c20313030250060448201526064016106ba565b815160048190556040519081527f2e6cd3e6f7808568620c647ac0e652b0e95bef2494692adbc118fbbd02a8e82e906020016111da565b6001546113338133610b3e565b6113bf576040517f08c379a000000000000000000000000000000000000000000000000000000000815260206004820152602260248201527f53656e64657220646f6573206e6f7420686f6c6420726571756972656420726f60448201527f6c6500000000000000000000000000000000000000000000000000000000000060648201526084016106ba565b826113e173ffffffffffffffffffffffffffffffffffffffff82163385611a2e565b50505050565b60003411611451576040517f08c379a000000000000000000000000000000000000000000000000000000000815260206004820152601860248201527f56616c75652073656e742063616e2774206265207a65726f000000000000000060448201526064016106ba565b565b81600160008281526020819052604090206001015460ff16600281111561147c5761147c612089565b14611509576040517f08c379a000000000000000000000000000000000000000000000000000000000815260206004820152602f60248201527f4d7573742062652063616c6c6564206f6e20616e20696e697469616c697a656460448201527f204578636c757369766520726f6c65000000000000000000000000000000000060648201526084016106ba565b60008381526020819052604090205483906115249033610b3e565b6115af576040517f08c379a0000000000000000000000000000000000000000000000000000000008152602060048201526024808201527f43616e206f6e6c792062652063616c6c6564206279206120726f6c65206d616e60448201527f616765720000000000000000000000000000000000000000000000000000000060648201526084016106ba565b60008481526020819052604090206115ca9060020184611a84565b604051339073ffffffffffffffffffffffffffffffffffffffff85169086907f3b855c56b409b671c7112789d022675eb639d0bcb8896f1b6197c132f799e74690600090a450505050565b6106cd8282611a84565b600061162a82611b69565b51835110905092915050565b905473ffffffffffffffffffffffffffffffffffffffff91821691161490565b73ffffffffffffffffffffffffffffffffffffffff166000908152602091909152604090205460ff1690565b600061109882846120e7565b804710156116f8576040517f08c379a000000000000000000000000000000000000000000000000000000000815260206004820152601d60248201527f416464726573733a20696e73756666696369656e742062616c616e636500000060448201526064016106ba565b60008273ffffffffffffffffffffffffffffffffffffffff168260405160006040518083038185875af1925050503d8060008114611752576040519150601f19603f3d011682016040523d82523d6000602084013e611757565b606091505b5050905080610df1576040517f08c379a000000000000000000000000000000000000000000000000000000000815260206004820152603a60248201527f416464726573733a20756e61626c6520746f2073656e642076616c75652c207260448201527f6563697069656e74206d6179206861766520726576657274656400000000000060648201526084016106ba565b60006110988284612124565b60408051602081019091526000815260408051602081019091528351819061181c9085611682565b90529392505050565b6040805160208101909152600081526040805160208101909152825184518291670de0b6b3a76400009161185891611682565b61181c9190612137565b60006110988284612137565b73ffffffffffffffffffffffffffffffffffffffff81166118eb576040517f08c379a000000000000000000000000000000000000000000000000000000000815260206004820152601f60248201527f43616e6e6f74206164642030783020746f20612073686172656420726f6c650060448201526064016106ba565b73ffffffffffffffffffffffffffffffffffffffff1660009081526020919091526040902080547fffffffffffffffffffffffffffffffffffffffffffffffffffffffffffffff00166001179055565b600061194682611b69565b51835111905092915050565b60405173ffffffffffffffffffffffffffffffffffffffff808516602483015283166044820152606481018290526113e19085907f23b872dd00000000000000000000000000000000000000000000000000000000906084015b604080517fffffffffffffffffffffffffffffffffffffffffffffffffffffffffffffffe08184030181529190526020810180517bffffffffffffffffffffffffffffffffffffffffffffffffffffffff167fffffffff0000000000000000000000000000000000000000000000000000000090931692909217909152611b9e565b60405173ffffffffffffffffffffffffffffffffffffffff8316602482015260448101829052610df19084907fa9059cbb00000000000000000000000000000000000000000000000000000000906064016119ac565b73ffffffffffffffffffffffffffffffffffffffff8116611b27576040517f08c379a000000000000000000000000000000000000000000000000000000000815260206004820152602360248201527f43616e6e6f742073657420616e206578636c757369766520726f6c6520746f2060448201527f307830000000000000000000000000000000000000000000000000000000000060648201526084016106ba565b81547fffffffffffffffffffffffff00000000000000000000000000000000000000001673ffffffffffffffffffffffffffffffffffffffff91909116179055565b604080516020810190915260008152604080516020810190915280611b9684670de0b6b3a7640000611682565b905292915050565b6000611c00826040518060400160405280602081526020017f5361666545524332303a206c6f772d6c6576656c2063616c6c206661696c65648152508573ffffffffffffffffffffffffffffffffffffffff16611caa9092919063ffffffff16565b805190915015610df15780806020019051810190611c1e9190612172565b610df1576040517f08c379a000000000000000000000000000000000000000000000000000000000815260206004820152602a60248201527f5361666545524332303a204552433230206f7065726174696f6e20646964206e60448201527f6f7420737563636565640000000000000000000000000000000000000000000060648201526084016106ba565b6060611cb98484600085611cc1565b949350505050565b606082471015611d53576040517f08c379a000000000000000000000000000000000000000000000000000000000815260206004820152602660248201527f416464726573733a20696e73756666696369656e742062616c616e636520666f60448201527f722063616c6c000000000000000000000000000000000000000000000000000060648201526084016106ba565b843b611dbb576040517f08c379a000000000000000000000000000000000000000000000000000000000815260206004820152601d60248201527f416464726573733a2063616c6c20746f206e6f6e2d636f6e747261637400000060448201526064016106ba565b6000808673ffffffffffffffffffffffffffffffffffffffff168587604051611de491906121b8565b60006040518083038185875af1925050503d8060008114611e21576040519150601f19603f3d011682016040523d82523d6000602084013e611e26565b606091505b5091509150611e36828286611e41565b979650505050505050565b60608315611e50575081611098565b825115611e605782518084602001fd5b816040517f08c379a00000000000000000000000000000000000000000000000000000000081526004016106ba91906121d4565b600060208284031215611ea657600080fd5b5035919050565b803573ffffffffffffffffffffffffffffffffffffffff81168114611ed157600080fd5b919050565b600060208284031215611ee857600080fd5b61109882611ead565b60008060408385031215611f0457600080fd5b82359150611f1460208401611ead565b90509250929050565b600060208284031215611f2f57600080fd5b50919050565b600080600060608486031215611f4a57600080fd5b8335925060208401359150611f628560408601611f1d565b90509250925092565b600060208284031215611f7d57600080fd5b6040516020810181811067ffffffffffffffff82111715611fc7577f4e487b7100000000000000000000000000000000000000000000000000000000600052604160045260246000fd5b6040529135825250919050565b60008060408385031215611fe757600080fd5b611ff083611ead565b9150611f148460208501611f6b565b6000806040838503121561201257600080fd5b61201b83611ead565b9150611f148460208501611f1d565b60006020828403121561203c57600080fd5b6110988383611f6b565b6000806040838503121561205957600080fd5b61206283611ead565b946020939093013593505050565b60006020828403121561208257600080fd5b5051919050565b7f4e487b7100000000000000000000000000000000000000000000000000000000600052602160045260246000fd5b7f4e487b7100000000000000000000000000000000000000000000000000000000600052601160045260246000fd5b6000817fffffffffffffffffffffffffffffffffffffffffffffffffffffffffffffffff048311821515161561211f5761211f6120b8565b500290565b81810381811115610c4657610c466120b8565b60008261216d577f4e487b7100000000000000000000000000000000000000000000000000000000600052601260045260246000fd5b500490565b60006020828403121561218457600080fd5b8151801515811461109857600080fd5b60005b838110156121af578181015183820152602001612197565b50506000910152565b600082516121ca818460208701612194565b9190910192915050565b60208152600082518060208401526121f3816040850160208701612194565b601f017fffffffffffffffffffffffffffffffffffffffffffffffffffffffffffffffe016919091016040019291505056fea2646970667358221220893352500419ca3d4764723f6d38b6f14825cf08f85752852cc6dd88c2e0819264736f6c6343000810003353656e64657220646f6573206e6f7420686f6c6420726571756972656420726f",
    "linkReferences": {},
    "deployedLinkReferences": {}
}