{
    "_format": "hh-sol-artifact-1",
    "contractName": "VotingToken",
    "sourceName": "contracts/oracle/implementation/VotingToken.sol",
    "abi": [
        {
            "inputs": [],
            "stateMutability": "nonpayable",
            "type": "constructor"
        },
        {
            "anonymous": false,
            "inputs": [
                {
                    "indexed": true,
                    "internalType": "uint256",
                    "name": "roleId",
                    "type": "uint256"
                },
                {
                    "indexed": true,
                    "internalType": "address",
                    "name": "newMember",
                    "type": "address"
                },
                {
                    "indexed": true,
                    "internalType": "address",
                    "name": "manager",
                    "type": "address"
                }
            ],
            "name": "AddedSharedMember",
            "type": "event"
        },
        {
            "anonymous": false,
            "inputs": [
                {
                    "indexed": true,
                    "internalType": "address",
                    "name": "owner",
                    "type": "address"
                },
                {
                    "indexed": true,
                    "internalType": "address",
                    "name": "spender",
                    "type": "address"
                },
                {
                    "indexed": false,
                    "internalType": "uint256",
                    "name": "value",
                    "type": "uint256"
                }
            ],
            "name": "Approval",
            "type": "event"
        },
        {
            "anonymous": false,
            "inputs": [
                {
                    "indexed": true,
                    "internalType": "uint256",
                    "name": "roleId",
                    "type": "uint256"
                },
                {
                    "indexed": true,
                    "internalType": "address",
                    "name": "oldMember",
                    "type": "address"
                },
                {
                    "indexed": true,
                    "internalType": "address",
                    "name": "manager",
                    "type": "address"
                }
            ],
            "name": "RemovedSharedMember",
            "type": "event"
        },
        {
            "anonymous": false,
            "inputs": [
                {
                    "indexed": true,
                    "internalType": "uint256",
                    "name": "roleId",
                    "type": "uint256"
                },
                {
                    "indexed": true,
                    "internalType": "address",
                    "name": "newMember",
                    "type": "address"
                },
                {
                    "indexed": true,
                    "internalType": "address",
                    "name": "manager",
                    "type": "address"
                }
            ],
            "name": "ResetExclusiveMember",
            "type": "event"
        },
        {
            "anonymous": false,
            "inputs": [
                {
                    "indexed": false,
                    "internalType": "uint256",
                    "name": "id",
                    "type": "uint256"
                }
            ],
            "name": "Snapshot",
            "type": "event"
        },
        {
            "anonymous": false,
            "inputs": [
                {
                    "indexed": true,
                    "internalType": "address",
                    "name": "from",
                    "type": "address"
                },
                {
                    "indexed": true,
                    "internalType": "address",
                    "name": "to",
                    "type": "address"
                },
                {
                    "indexed": false,
                    "internalType": "uint256",
                    "name": "value",
                    "type": "uint256"
                }
            ],
            "name": "Transfer",
            "type": "event"
        },
        {
            "inputs": [
                {
                    "internalType": "address",
                    "name": "account",
                    "type": "address"
                }
            ],
            "name": "addBurner",
            "outputs": [],
            "stateMutability": "nonpayable",
            "type": "function"
        },
        {
            "inputs": [
                {
                    "internalType": "uint256",
                    "name": "roleId",
                    "type": "uint256"
                },
                {
                    "internalType": "address",
                    "name": "newMember",
                    "type": "address"
                }
            ],
            "name": "addMember",
            "outputs": [],
            "stateMutability": "nonpayable",
            "type": "function"
        },
        {
            "inputs": [
                {
                    "internalType": "address",
                    "name": "account",
                    "type": "address"
                }
            ],
            "name": "addMinter",
            "outputs": [],
            "stateMutability": "nonpayable",
            "type": "function"
        },
        {
            "inputs": [
                {
                    "internalType": "address",
                    "name": "owner",
                    "type": "address"
                },
                {
                    "internalType": "address",
                    "name": "spender",
                    "type": "address"
                }
            ],
            "name": "allowance",
            "outputs": [
                {
                    "internalType": "uint256",
                    "name": "",
                    "type": "uint256"
                }
            ],
            "stateMutability": "view",
            "type": "function"
        },
        {
            "inputs": [
                {
                    "internalType": "address",
                    "name": "spender",
                    "type": "address"
                },
                {
                    "internalType": "uint256",
                    "name": "amount",
                    "type": "uint256"
                }
            ],
            "name": "approve",
            "outputs": [
                {
                    "internalType": "bool",
                    "name": "",
                    "type": "bool"
                }
            ],
            "stateMutability": "nonpayable",
            "type": "function"
        },
        {
            "inputs": [
                {
                    "internalType": "address",
                    "name": "account",
                    "type": "address"
                }
            ],
            "name": "balanceOf",
            "outputs": [
                {
                    "internalType": "uint256",
                    "name": "",
                    "type": "uint256"
                }
            ],
            "stateMutability": "view",
            "type": "function"
        },
        {
            "inputs": [
                {
                    "internalType": "address",
                    "name": "account",
                    "type": "address"
                },
                {
                    "internalType": "uint256",
                    "name": "snapshotId",
                    "type": "uint256"
                }
            ],
            "name": "balanceOfAt",
            "outputs": [
                {
                    "internalType": "uint256",
                    "name": "",
                    "type": "uint256"
                }
            ],
            "stateMutability": "view",
            "type": "function"
        },
        {
            "inputs": [
                {
                    "internalType": "uint256",
                    "name": "value",
                    "type": "uint256"
                }
            ],
            "name": "burn",
            "outputs": [],
            "stateMutability": "nonpayable",
            "type": "function"
        },
        {
            "inputs": [
                {
                    "internalType": "address",
                    "name": "recipient",
                    "type": "address"
                },
                {
                    "internalType": "uint256",
                    "name": "value",
                    "type": "uint256"
                }
            ],
            "name": "burnFrom",
            "outputs": [
                {
                    "internalType": "bool",
                    "name": "",
                    "type": "bool"
                }
            ],
            "stateMutability": "nonpayable",
            "type": "function"
        },
        {
            "inputs": [],
            "name": "decimals",
            "outputs": [
                {
                    "internalType": "uint8",
                    "name": "",
                    "type": "uint8"
                }
            ],
            "stateMutability": "view",
            "type": "function"
        },
        {
            "inputs": [
                {
                    "internalType": "address",
                    "name": "spender",
                    "type": "address"
                },
                {
                    "internalType": "uint256",
                    "name": "subtractedValue",
                    "type": "uint256"
                }
            ],
            "name": "decreaseAllowance",
            "outputs": [
                {
                    "internalType": "bool",
                    "name": "",
                    "type": "bool"
                }
            ],
            "stateMutability": "nonpayable",
            "type": "function"
        },
        {
            "inputs": [
                {
                    "internalType": "uint256",
                    "name": "roleId",
                    "type": "uint256"
                }
            ],
            "name": "getMember",
            "outputs": [
                {
                    "internalType": "address",
                    "name": "",
                    "type": "address"
                }
            ],
            "stateMutability": "view",
            "type": "function"
        },
        {
            "inputs": [
                {
                    "internalType": "uint256",
                    "name": "roleId",
                    "type": "uint256"
                },
                {
                    "internalType": "address",
                    "name": "memberToCheck",
                    "type": "address"
                }
            ],
            "name": "holdsRole",
            "outputs": [
                {
                    "internalType": "bool",
                    "name": "",
                    "type": "bool"
                }
            ],
            "stateMutability": "view",
            "type": "function"
        },
        {
            "inputs": [
                {
                    "internalType": "address",
                    "name": "spender",
                    "type": "address"
                },
                {
                    "internalType": "uint256",
                    "name": "addedValue",
                    "type": "uint256"
                }
            ],
            "name": "increaseAllowance",
            "outputs": [
                {
                    "internalType": "bool",
                    "name": "",
                    "type": "bool"
                }
            ],
            "stateMutability": "nonpayable",
            "type": "function"
        },
        {
            "inputs": [
                {
                    "internalType": "address",
                    "name": "recipient",
                    "type": "address"
                },
                {
                    "internalType": "uint256",
                    "name": "value",
                    "type": "uint256"
                }
            ],
            "name": "mint",
            "outputs": [
                {
                    "internalType": "bool",
                    "name": "",
                    "type": "bool"
                }
            ],
            "stateMutability": "nonpayable",
            "type": "function"
        },
        {
            "inputs": [],
            "name": "name",
            "outputs": [
                {
                    "internalType": "string",
                    "name": "",
                    "type": "string"
                }
            ],
            "stateMutability": "view",
            "type": "function"
        },
        {
            "inputs": [
                {
                    "internalType": "uint256",
                    "name": "roleId",
                    "type": "uint256"
                },
                {
                    "internalType": "address",
                    "name": "memberToRemove",
                    "type": "address"
                }
            ],
            "name": "removeMember",
            "outputs": [],
            "stateMutability": "nonpayable",
            "type": "function"
        },
        {
            "inputs": [
                {
                    "internalType": "uint256",
                    "name": "roleId",
                    "type": "uint256"
                }
            ],
            "name": "renounceMembership",
            "outputs": [],
            "stateMutability": "nonpayable",
            "type": "function"
        },
        {
            "inputs": [
                {
                    "internalType": "uint256",
                    "name": "roleId",
                    "type": "uint256"
                },
                {
                    "internalType": "address",
                    "name": "newMember",
                    "type": "address"
                }
            ],
            "name": "resetMember",
            "outputs": [],
            "stateMutability": "nonpayable",
            "type": "function"
        },
        {
            "inputs": [
                {
                    "internalType": "address",
                    "name": "account",
                    "type": "address"
                }
            ],
            "name": "resetOwner",
            "outputs": [],
            "stateMutability": "nonpayable",
            "type": "function"
        },
        {
            "inputs": [],
            "name": "snapshot",
            "outputs": [
                {
                    "internalType": "uint256",
                    "name": "",
                    "type": "uint256"
                }
            ],
            "stateMutability": "nonpayable",
            "type": "function"
        },
        {
            "inputs": [],
            "name": "symbol",
            "outputs": [
                {
                    "internalType": "string",
                    "name": "",
                    "type": "string"
                }
            ],
            "stateMutability": "view",
            "type": "function"
        },
        {
            "inputs": [],
            "name": "totalSupply",
            "outputs": [
                {
                    "internalType": "uint256",
                    "name": "",
                    "type": "uint256"
                }
            ],
            "stateMutability": "view",
            "type": "function"
        },
        {
            "inputs": [
                {
                    "internalType": "uint256",
                    "name": "snapshotId",
                    "type": "uint256"
                }
            ],
            "name": "totalSupplyAt",
            "outputs": [
                {
                    "internalType": "uint256",
                    "name": "",
                    "type": "uint256"
                }
            ],
            "stateMutability": "view",
            "type": "function"
        },
        {
            "inputs": [
                {
                    "internalType": "address",
                    "name": "recipient",
                    "type": "address"
                },
                {
                    "internalType": "uint256",
                    "name": "amount",
                    "type": "uint256"
                }
            ],
            "name": "transfer",
            "outputs": [
                {
                    "internalType": "bool",
                    "name": "",
                    "type": "bool"
                }
            ],
            "stateMutability": "nonpayable",
            "type": "function"
        },
        {
            "inputs": [
                {
                    "internalType": "address",
                    "name": "sender",
                    "type": "address"
                },
                {
                    "internalType": "address",
                    "name": "recipient",
                    "type": "address"
                },
                {
                    "internalType": "uint256",
                    "name": "amount",
                    "type": "uint256"
                }
            ],
            "name": "transferFrom",
            "outputs": [
                {
                    "internalType": "bool",
                    "name": "",
                    "type": "bool"
                }
            ],
            "stateMutability": "nonpayable",
            "type": "function"
        }
    ],
    "bytecode": "0x60806040523480156200001157600080fd5b506040518060400160405280601381526020017f554d4120566f74696e6720546f6b656e2076310000000000000000000000000081525060405180604001604052806003815260200162554d4160e81b81525060128282816003908162000079919062000577565b50600462000088828262000577565b50506006805460ff191660ff841617905550620000a860008033620000da565b620000c560015b604080516000808252602082019092526200022a565b620000d16002620000af565b50505062000697565b826000808281526005602052604090206001015460ff16600281111562000105576200010562000643565b14620001585760405162461bcd60e51b815260206004820152601e60248201527f43616e6e6f74207573652061207072652d6578697374696e6720726f6c65000060448201526064015b60405180910390fd5b60008481526005602052604090206001808201805460ff19168280021790555083815562000196600282018462000370602090811b620012e617901c565b60008481526005602052604081206001015460ff166002811115620001bf57620001bf62000643565b03620002235760405162461bcd60e51b815260206004820152603c602482015260008051602062002a3783398151915260448201527f20746f206d616e61676520616e206578636c757369766520726f6c650000000060648201526084016200014f565b5050505050565b826000808281526005602052604090206001015460ff16600281111562000255576200025562000643565b14620002a45760405162461bcd60e51b815260206004820152601e60248201527f43616e6e6f74207573652061207072652d6578697374696e6720726f6c65000060448201526064016200014f565b600084815260056020908152604090912060018101805460ff1916600217905584815590620002e39060038301908590620012f062000380821b17901c565b60008481526005602052604081206001015460ff1660028111156200030c576200030c62000643565b03620002235760405162461bcd60e51b8152602060048201526038602482015260008051602062002a3783398151915260448201527f20746f206d616e61676520612073686172656420726f6c65000000000000000060648201526084016200014f565b6200037c8282620003d5565b5050565b60005b8151811015620003d057620003bb83838381518110620003a757620003a762000659565b60200260200101516200045660201b60201c565b80620003c7816200066f565b91505062000383565b505050565b6001600160a01b038116620004395760405162461bcd60e51b815260206004820152602360248201527f43616e6e6f742073657420616e206578636c757369766520726f6c6520746f2060448201526203078360ec1b60648201526084016200014f565b81546001600160a01b0319166001600160a01b0391909116179055565b6001600160a01b038116620004ae5760405162461bcd60e51b815260206004820152601f60248201527f43616e6e6f74206164642030783020746f20612073686172656420726f6c650060448201526064016200014f565b6001600160a01b0316600090815260209190915260409020805460ff19166001179055565b634e487b7160e01b600052604160045260246000fd5b600181811c90821680620004fe57607f821691505b6020821081036200051f57634e487b7160e01b600052602260045260246000fd5b50919050565b601f821115620003d057600081815260208120601f850160051c810160208610156200054e5750805b601f850160051c820191505b818110156200056f578281556001016200055a565b505050505050565b81516001600160401b03811115620005935762000593620004d3565b620005ab81620005a48454620004e9565b8462000525565b602080601f831160018114620005e35760008415620005ca5750858301515b600019600386901b1c1916600185901b1785556200056f565b600085815260208120601f198616915b828110156200061457888601518255948401946001909101908401620005f3565b5085821015620006335787850151600019600388901b60f8161c191681555b5050505050600190811b01905550565b634e487b7160e01b600052602160045260246000fd5b634e487b7160e01b600052603260045260246000fd5b6000600182016200069057634e487b7160e01b600052601160045260246000fd5b5060010190565b61239080620006a76000396000f3fe608060405234801561001057600080fd5b50600436106101ae5760003560e01c806379cc6790116100ee578063a457c2d711610097578063ab3545e511610071578063ab3545e514610385578063d97c05be146103bd578063dd62ed3e146103d0578063f44637ba1461041657600080fd5b8063a457c2d71461034c578063a9059cbb1461035f578063aaa14ca31461037257600080fd5b80639711715a116100c85780639711715a1461031e578063981b24d014610326578063983b2d561461033957600080fd5b806379cc6790146102f05780637cdc1cb91461030357806395d89b411461031657600080fd5b806340c10f191161015b5780636be7658b116101355780636be7658b1461028157806370a082311461029457806373cc802a146102ca57806374d0a676146102dd57600080fd5b806340c10f191461024657806342966c68146102595780634ee2cd7e1461026e57600080fd5b806323b872dd1161018c57806323b872dd14610206578063313ce56714610219578063395093511461023357600080fd5b806306fdde03146101b3578063095ea7b3146101d157806318160ddd146101f4575b600080fd5b6101bb610429565b6040516101c89190612067565b60405180910390f35b6101e46101df3660046120f7565b6104bb565b60405190151581526020016101c8565b6002545b6040519081526020016101c8565b6101e4610214366004612121565b6104d2565b6102216105bd565b60405160ff90911681526020016101c8565b6101e46102413660046120f7565b6105d0565b6101e46102543660046120f7565b610619565b61026c61026736600461215d565b6106c7565b005b6101f861027c3660046120f7565b61076d565b61026c61028f366004612176565b6107e0565b6101f86102a23660046121a2565b73ffffffffffffffffffffffffffffffffffffffff1660009081526020819052604090205490565b61026c6102d83660046121a2565b6109c7565b61026c6102eb366004612176565b6109d5565b6101e46102fe3660046120f7565b610b97565b6101e4610311366004612176565b610c3b565b6101bb610d43565b6101f8610d52565b6101f861033436600461215d565b610d5c565b61026c6103473660046121a2565b610d87565b6101e461035a3660046120f7565b610d93565b6101e461036d3660046120f7565b610e61565b61026c61038036600461215d565b610e6e565b61039861039336600461215d565b611031565b60405173ffffffffffffffffffffffffffffffffffffffff90911681526020016101c8565b61026c6103cb366004612176565b61111a565b6101f86103de3660046121bd565b73ffffffffffffffffffffffffffffffffffffffff918216600090815260016020908152604080832093909416825291909152205490565b61026c6104243660046121a2565b6112dc565b606060038054610438906121e7565b80601f0160208091040260200160405190810160405280929190818152602001828054610464906121e7565b80156104b15780601f10610486576101008083540402835291602001916104b1565b820191906000526020600020905b81548152906001019060200180831161049457829003601f168201915b5050505050905090565b60006104c8338484611336565b5060015b92915050565b60006104df8484846114e9565b73ffffffffffffffffffffffffffffffffffffffff84166000908152600160209081526040808320338452909152902054828110156105a5576040517f08c379a000000000000000000000000000000000000000000000000000000000815260206004820152602860248201527f45524332303a207472616e7366657220616d6f756e742065786365656473206160448201527f6c6c6f77616e636500000000000000000000000000000000000000000000000060648201526084015b60405180910390fd5b6105b28533858403611336565b506001949350505050565b60006105cb60065460ff1690565b905090565b33600081815260016020908152604080832073ffffffffffffffffffffffffffffffffffffffff8716845290915281205490916104c8918590610614908690612263565b611336565b600060016106278133610c3b565b6106b3576040517f08c379a000000000000000000000000000000000000000000000000000000000815260206004820152602260248201527f53656e64657220646f6573206e6f7420686f6c6420726571756972656420726f60448201527f6c65000000000000000000000000000000000000000000000000000000000000606482015260840161059c565b6106bd84846114f4565b5060019392505050565b60026106d38133610c3b565b61075f576040517f08c379a000000000000000000000000000000000000000000000000000000000815260206004820152602260248201527f53656e64657220646f6573206e6f7420686f6c6420726571756972656420726f60448201527f6c65000000000000000000000000000000000000000000000000000000000000606482015260840161059c565b61076933836114fe565b5050565b73ffffffffffffffffffffffffffffffffffffffff82166000908152600760205260408120819081906107a1908590611508565b91509150816107d55773ffffffffffffffffffffffffffffffffffffffff85166000908152602081905260409020546107d7565b805b95945050505050565b81600260008281526005602052604090206001015460ff16600281111561080957610809612276565b14610896576040517f08c379a000000000000000000000000000000000000000000000000000000000815260206004820152602c60248201527f4d7573742062652063616c6c6564206f6e20616e20696e697469616c697a656460448201527f2053686172656420726f6c650000000000000000000000000000000000000000606482015260840161059c565b60008381526005602052604090205483906108b19033610c3b565b61093c576040517f08c379a0000000000000000000000000000000000000000000000000000000008152602060048201526024808201527f43616e206f6e6c792062652063616c6c6564206279206120726f6c65206d616e60448201527f6167657200000000000000000000000000000000000000000000000000000000606482015260840161059c565b600084815260056020908152604080832073ffffffffffffffffffffffffffffffffffffffff8716808552600390910190925280832080547fffffffffffffffffffffffffffffffffffffffffffffffffffffffffffffff0016905551339287917feb3e33034c392e69263b04ec0fa376dc12784a41b6676c7f31b936cbc0fbb5af9190a450505050565b6109d260008261111a565b50565b81600260008281526005602052604090206001015460ff1660028111156109fe576109fe612276565b14610a8b576040517f08c379a000000000000000000000000000000000000000000000000000000000815260206004820152602c60248201527f4d7573742062652063616c6c6564206f6e20616e20696e697469616c697a656460448201527f2053686172656420726f6c650000000000000000000000000000000000000000606482015260840161059c565b6000838152600560205260409020548390610aa69033610c3b565b610b31576040517f08c379a0000000000000000000000000000000000000000000000000000000008152602060048201526024808201527f43616e206f6e6c792062652063616c6c6564206279206120726f6c65206d616e60448201527f6167657200000000000000000000000000000000000000000000000000000000606482015260840161059c565b6000848152600560205260409020610b4c9060030184611639565b604051339073ffffffffffffffffffffffffffffffffffffffff85169086907f63502af7324ff6db91ab38f8236a648727d9385ea6c782073dd4882d8a61a48f90600090a450505050565b60006002610ba58133610c3b565b610c31576040517f08c379a000000000000000000000000000000000000000000000000000000000815260206004820152602260248201527f53656e64657220646f6573206e6f7420686f6c6420726571756972656420726f60448201527f6c65000000000000000000000000000000000000000000000000000000000000606482015260840161059c565b6106bd84846114fe565b600082815260056020526040812060018082015460ff166002811115610c6357610c63612276565b03610c9157600281015473ffffffffffffffffffffffffffffffffffffffff8481169116145b9150506104cc565b6002600182015460ff166002811115610cac57610cac612276565b03610ce15773ffffffffffffffffffffffffffffffffffffffff8316600090815260038201602052604090205460ff16610c89565b6040517f08c379a000000000000000000000000000000000000000000000000000000000815260206004820152600e60248201527f496e76616c696420726f6c654964000000000000000000000000000000000000604482015260640161059c565b606060048054610438906121e7565b60006105cb611706565b6000806000610d6c846008611508565b9150915081610d7d57600254610d7f565b805b949350505050565b6109d260015b826109d5565b33600090815260016020908152604080832073ffffffffffffffffffffffffffffffffffffffff8616845290915281205482811015610e54576040517f08c379a000000000000000000000000000000000000000000000000000000000815260206004820152602560248201527f45524332303a2064656372656173656420616c6c6f77616e63652062656c6f7760448201527f207a65726f000000000000000000000000000000000000000000000000000000606482015260840161059c565b6106bd3385858403611336565b60006104c83384846114e9565b80600260008281526005602052604090206001015460ff166002811115610e9757610e97612276565b14610f24576040517f08c379a000000000000000000000000000000000000000000000000000000000815260206004820152602c60248201527f4d7573742062652063616c6c6564206f6e20616e20696e697469616c697a656460448201527f2053686172656420726f6c650000000000000000000000000000000000000000606482015260840161059c565b81610f2f8133610c3b565b610fbb576040517f08c379a000000000000000000000000000000000000000000000000000000000815260206004820152602260248201527f53656e64657220646f6573206e6f7420686f6c6420726571756972656420726f60448201527f6c65000000000000000000000000000000000000000000000000000000000000606482015260840161059c565b6000838152600560209081526040808320338452600301909152902080547fffffffffffffffffffffffffffffffffffffffffffffffffffffffffffffff001690556040513390819085907feb3e33034c392e69263b04ec0fa376dc12784a41b6676c7f31b936cbc0fbb5af90600090a4505050565b600081600160008281526005602052604090206001015460ff16600281111561105c5761105c612276565b146110e9576040517f08c379a000000000000000000000000000000000000000000000000000000000815260206004820152602f60248201527f4d7573742062652063616c6c6564206f6e20616e20696e697469616c697a656460448201527f204578636c757369766520726f6c650000000000000000000000000000000000606482015260840161059c565b60008381526005602052604090206002015473ffffffffffffffffffffffffffffffffffffffff1691505b50919050565b81600160008281526005602052604090206001015460ff16600281111561114357611143612276565b146111d0576040517f08c379a000000000000000000000000000000000000000000000000000000000815260206004820152602f60248201527f4d7573742062652063616c6c6564206f6e20616e20696e697469616c697a656460448201527f204578636c757369766520726f6c650000000000000000000000000000000000606482015260840161059c565b60008381526005602052604090205483906111eb9033610c3b565b611276576040517f08c379a0000000000000000000000000000000000000000000000000000000008152602060048201526024808201527f43616e206f6e6c792062652063616c6c6564206279206120726f6c65206d616e60448201527f6167657200000000000000000000000000000000000000000000000000000000606482015260840161059c565b60008481526005602052604090206112919060020184611760565b604051339073ffffffffffffffffffffffffffffffffffffffff85169086907f3b855c56b409b671c7112789d022675eb639d0bcb8896f1b6197c132f799e74690600090a450505050565b6109d26002610d8d565b6107698282611760565b60005b81518110156113315761131f83838381518110611312576113126122a5565b6020026020010151611639565b80611329816122d4565b9150506112f3565b505050565b73ffffffffffffffffffffffffffffffffffffffff83166113d8576040517f08c379a0000000000000000000000000000000000000000000000000000000008152602060048201526024808201527f45524332303a20617070726f76652066726f6d20746865207a65726f2061646460448201527f7265737300000000000000000000000000000000000000000000000000000000606482015260840161059c565b73ffffffffffffffffffffffffffffffffffffffff821661147b576040517f08c379a000000000000000000000000000000000000000000000000000000000815260206004820152602260248201527f45524332303a20617070726f766520746f20746865207a65726f20616464726560448201527f7373000000000000000000000000000000000000000000000000000000000000606482015260840161059c565b73ffffffffffffffffffffffffffffffffffffffff83811660008181526001602090815260408083209487168084529482529182902085905590518481527f8c5be1e5ebec7d5bd14f71427d1e84f3dd0314c0f7b2291e5b200ac8c7c3b925910160405180910390a3505050565b611331838383611845565b6107698282611b04565b6107698282611c30565b60008060008411611575576040517f08c379a000000000000000000000000000000000000000000000000000000000815260206004820152601660248201527f4552433230536e617073686f743a206964206973203000000000000000000000604482015260640161059c565b61157d611e29565b8411156115e6576040517f08c379a000000000000000000000000000000000000000000000000000000000815260206004820152601d60248201527f4552433230536e617073686f743a206e6f6e6578697374656e74206964000000604482015260640161059c565b60006115f28486611e34565b8454909150810361160a576000809250925050611632565b6001846001018281548110611621576116216122a5565b906000526020600020015492509250505b9250929050565b73ffffffffffffffffffffffffffffffffffffffff81166116b6576040517f08c379a000000000000000000000000000000000000000000000000000000000815260206004820152601f60248201527f43616e6e6f74206164642030783020746f20612073686172656420726f6c6500604482015260640161059c565b73ffffffffffffffffffffffffffffffffffffffff1660009081526020919091526040902080547fffffffffffffffffffffffffffffffffffffffffffffffffffffffffffffff00166001179055565b6000611716600a80546001019055565b6000611720611e29565b90507f8030e83b04d87bef53480e26263266d6ca66863aa8506aca6f2559d18aa1cb678160405161175391815260200190565b60405180910390a1919050565b73ffffffffffffffffffffffffffffffffffffffff8116611803576040517f08c379a000000000000000000000000000000000000000000000000000000000815260206004820152602360248201527f43616e6e6f742073657420616e206578636c757369766520726f6c6520746f2060448201527f3078300000000000000000000000000000000000000000000000000000000000606482015260840161059c565b81547fffffffffffffffffffffffff00000000000000000000000000000000000000001673ffffffffffffffffffffffffffffffffffffffff91909116179055565b73ffffffffffffffffffffffffffffffffffffffff83166118e8576040517f08c379a000000000000000000000000000000000000000000000000000000000815260206004820152602560248201527f45524332303a207472616e736665722066726f6d20746865207a65726f20616460448201527f6472657373000000000000000000000000000000000000000000000000000000606482015260840161059c565b73ffffffffffffffffffffffffffffffffffffffff821661198b576040517f08c379a000000000000000000000000000000000000000000000000000000000815260206004820152602360248201527f45524332303a207472616e7366657220746f20746865207a65726f206164647260448201527f6573730000000000000000000000000000000000000000000000000000000000606482015260840161059c565b611996838383611ef9565b73ffffffffffffffffffffffffffffffffffffffff831660009081526020819052604090205481811015611a4c576040517f08c379a000000000000000000000000000000000000000000000000000000000815260206004820152602660248201527f45524332303a207472616e7366657220616d6f756e742065786365656473206260448201527f616c616e63650000000000000000000000000000000000000000000000000000606482015260840161059c565b73ffffffffffffffffffffffffffffffffffffffff808516600090815260208190526040808220858503905591851681529081208054849290611a90908490612263565b925050819055508273ffffffffffffffffffffffffffffffffffffffff168473ffffffffffffffffffffffffffffffffffffffff167fddf252ad1be2c89b69c2b068fc378daa952ba7f163c4a11628f55a4df523b3ef84604051611af691815260200190565b60405180910390a350505050565b73ffffffffffffffffffffffffffffffffffffffff8216611b81576040517f08c379a000000000000000000000000000000000000000000000000000000000815260206004820152601f60248201527f45524332303a206d696e7420746f20746865207a65726f206164647265737300604482015260640161059c565b611b8d60008383611ef9565b8060026000828254611b9f9190612263565b909155505073ffffffffffffffffffffffffffffffffffffffff821660009081526020819052604081208054839290611bd9908490612263565b909155505060405181815273ffffffffffffffffffffffffffffffffffffffff8316906000907fddf252ad1be2c89b69c2b068fc378daa952ba7f163c4a11628f55a4df523b3ef9060200160405180910390a35050565b73ffffffffffffffffffffffffffffffffffffffff8216611cd3576040517f08c379a000000000000000000000000000000000000000000000000000000000815260206004820152602160248201527f45524332303a206275726e2066726f6d20746865207a65726f2061646472657360448201527f7300000000000000000000000000000000000000000000000000000000000000606482015260840161059c565b611cdf82600083611ef9565b73ffffffffffffffffffffffffffffffffffffffff821660009081526020819052604090205481811015611d95576040517f08c379a000000000000000000000000000000000000000000000000000000000815260206004820152602260248201527f45524332303a206275726e20616d6f756e7420657863656564732062616c616e60448201527f6365000000000000000000000000000000000000000000000000000000000000606482015260840161059c565b73ffffffffffffffffffffffffffffffffffffffff83166000908152602081905260408120838303905560028054849290611dd190849061230c565b909155505060405182815260009073ffffffffffffffffffffffffffffffffffffffff8516907fddf252ad1be2c89b69c2b068fc378daa952ba7f163c4a11628f55a4df523b3ef9060200160405180910390a3505050565b60006105cb600a5490565b81546000908103611e47575060006104cc565b82546000905b80821015611ea3576000611e618383611f04565b905084868281548110611e7657611e766122a5565b90600052602060002001541115611e8f57809150611e9d565b611e9a816001612263565b92505b50611e4d565b600082118015611ed857508385611ebb60018561230c565b81548110611ecb57611ecb6122a5565b9060005260206000200154145b15611ef157611ee860018361230c565b925050506104cc565b5090506104cc565b611331838383611f26565b6000611f13600284841861231f565b611f1f90848416612263565b9392505050565b73ffffffffffffffffffffffffffffffffffffffff8316611f5257611f4a82611f84565b611331611fc3565b73ffffffffffffffffffffffffffffffffffffffff8216611f7657611f4a83611f84565b611f7f83611f84565b611331825b73ffffffffffffffffffffffffffffffffffffffff8116600090815260076020908152604080832091839052909120546109d29190611fd3565b611fd3565b611fd16008611fbe60025490565b565b6000611fdd611e29565b905080611fe98461201d565b1015611331578254600180820185556000858152602080822090930193909355938401805494850181558252902090910155565b8054600090810361203057506000919050565b815482906120409060019061230c565b81548110612050576120506122a5565b90600052602060002001549050919050565b919050565b600060208083528351808285015260005b8181101561209457858101830151858201604001528201612078565b5060006040828601015260407fffffffffffffffffffffffffffffffffffffffffffffffffffffffffffffffe0601f8301168501019250505092915050565b803573ffffffffffffffffffffffffffffffffffffffff8116811461206257600080fd5b6000806040838503121561210a57600080fd5b612113836120d3565b946020939093013593505050565b60008060006060848603121561213657600080fd5b61213f846120d3565b925061214d602085016120d3565b9150604084013590509250925092565b60006020828403121561216f57600080fd5b5035919050565b6000806040838503121561218957600080fd5b82359150612199602084016120d3565b90509250929050565b6000602082840312156121b457600080fd5b611f1f826120d3565b600080604083850312156121d057600080fd5b6121d9836120d3565b9150612199602084016120d3565b600181811c908216806121fb57607f821691505b602082108103611114577f4e487b7100000000000000000000000000000000000000000000000000000000600052602260045260246000fd5b7f4e487b7100000000000000000000000000000000000000000000000000000000600052601160045260246000fd5b808201808211156104cc576104cc612234565b7f4e487b7100000000000000000000000000000000000000000000000000000000600052602160045260246000fd5b7f4e487b7100000000000000000000000000000000000000000000000000000000600052603260045260246000fd5b60007fffffffffffffffffffffffffffffffffffffffffffffffffffffffffffffffff820361230557612305612234565b5060010190565b818103818111156104cc576104cc612234565b600082612355577f4e487b7100000000000000000000000000000000000000000000000000000000600052601260045260246000fd5b50049056fea264697066735822122042a7a05cb47ada2f5e212e28af7269d5f385b44ed7800ef6226ed0d13e8fb05764736f6c63430008100033417474656d7074656420746f2075736520616e20696e76616c696420726f6c65",
    "linkReferences": {},
    "deployedLinkReferences": {}
}