{
  "contractName": "Perpetual",
  "abi": [
    {
      "inputs": [
        {
          "components": [
            {
              "internalType": "uint256",
              "name": "withdrawalLiveness",
              "type": "uint256"
            },
            {
              "internalType": "address",
              "name": "configStoreAddress",
              "type": "address"
            },
            {
              "internalType": "address",
              "name": "collateralAddress",
              "type": "address"
            },
            {
              "internalType": "address",
              "name": "tokenAddress",
              "type": "address"
            },
            {
              "internalType": "address",
              "name": "finderAddress",
              "type": "address"
            },
            {
              "internalType": "address",
              "name": "timerAddress",
              "type": "address"
            },
            {
              "internalType": "bytes32",
              "name": "priceFeedIdentifier",
              "type": "bytes32"
            },
            {
              "internalType": "bytes32",
              "name": "fundingRateIdentifier",
              "type": "bytes32"
            },
            {
              "components": [
                {
                  "internalType": "uint256",
                  "name": "rawValue",
                  "type": "uint256"
                }
              ],
              "internalType": "struct FixedPoint.Unsigned",
              "name": "minSponsorTokens",
              "type": "tuple"
            },
            {
              "components": [
                {
                  "internalType": "uint256",
                  "name": "rawValue",
                  "type": "uint256"
                }
              ],
              "internalType": "struct FixedPoint.Unsigned",
              "name": "tokenScaling",
              "type": "tuple"
            },
            {
              "internalType": "uint256",
              "name": "liquidationLiveness",
              "type": "uint256"
            },
            {
              "components": [
                {
                  "internalType": "uint256",
                  "name": "rawValue",
                  "type": "uint256"
                }
              ],
              "internalType": "struct FixedPoint.Unsigned",
              "name": "collateralRequirement",
              "type": "tuple"
            },
            {
              "components": [
                {
                  "internalType": "uint256",
                  "name": "rawValue",
                  "type": "uint256"
                }
              ],
              "internalType": "struct FixedPoint.Unsigned",
              "name": "disputeBondPercentage",
              "type": "tuple"
            },
            {
              "components": [
                {
                  "internalType": "uint256",
                  "name": "rawValue",
                  "type": "uint256"
                }
              ],
              "internalType": "struct FixedPoint.Unsigned",
              "name": "sponsorDisputeRewardPercentage",
              "type": "tuple"
            },
            {
              "components": [
                {
                  "internalType": "uint256",
                  "name": "rawValue",
                  "type": "uint256"
                }
              ],
              "internalType": "struct FixedPoint.Unsigned",
              "name": "disputerDisputeRewardPercentage",
              "type": "tuple"
            }
          ],
          "internalType": "struct PerpetualLiquidatable.ConstructorParams",
          "name": "params",
          "type": "tuple"
        }
      ],
      "stateMutability": "nonpayable",
      "type": "constructor"
    },
    {
      "anonymous": false,
      "inputs": [
        {
          "indexed": true,
          "internalType": "address",
          "name": "sponsor",
          "type": "address"
        },
        {
          "indexed": true,
          "internalType": "uint256",
          "name": "collateralAmount",
          "type": "uint256"
        }
      ],
      "name": "Deposit",
      "type": "event"
    },
    {
      "anonymous": false,
      "inputs": [
        {
          "indexed": true,
          "internalType": "address",
          "name": "caller",
          "type": "address"
        },
        {
          "indexed": true,
          "internalType": "address",
          "name": "sponsor",
          "type": "address"
        },
        {
          "indexed": true,
          "internalType": "address",
          "name": "liquidator",
          "type": "address"
        },
        {
          "indexed": false,
          "internalType": "address",
          "name": "disputer",
          "type": "address"
        },
        {
          "indexed": false,
          "internalType": "uint256",
          "name": "liquidationId",
          "type": "uint256"
        },
        {
          "indexed": false,
          "internalType": "bool",
          "name": "disputeSucceeded",
          "type": "bool"
        }
      ],
      "name": "DisputeSettled",
      "type": "event"
    },
    {
      "anonymous": false,
      "inputs": [
        {
          "indexed": true,
          "internalType": "address",
          "name": "caller",
          "type": "address"
        },
        {
          "indexed": false,
          "internalType": "uint256",
          "name": "shutdownTimestamp",
          "type": "uint256"
        }
      ],
      "name": "EmergencyShutdown",
      "type": "event"
    },
    {
      "anonymous": false,
      "inputs": [
        {
          "indexed": true,
          "internalType": "address",
          "name": "sponsor",
          "type": "address"
        }
      ],
      "name": "EndedSponsorPosition",
      "type": "event"
    },
    {
      "anonymous": false,
      "inputs": [
        {
          "indexed": true,
          "internalType": "uint256",
          "name": "amount",
          "type": "uint256"
        }
      ],
      "name": "FinalFeesPaid",
      "type": "event"
    },
    {
      "anonymous": false,
      "inputs": [
        {
          "indexed": false,
          "internalType": "int256",
          "name": "newFundingRate",
          "type": "int256"
        },
        {
          "indexed": true,
          "internalType": "uint256",
          "name": "updateTime",
          "type": "uint256"
        },
        {
          "indexed": false,
          "internalType": "uint256",
          "name": "reward",
          "type": "uint256"
        }
      ],
      "name": "FundingRateUpdated",
      "type": "event"
    },
    {
      "anonymous": false,
      "inputs": [
        {
          "indexed": true,
          "internalType": "address",
          "name": "sponsor",
          "type": "address"
        },
        {
          "indexed": true,
          "internalType": "address",
          "name": "liquidator",
          "type": "address"
        },
        {
          "indexed": true,
          "internalType": "uint256",
          "name": "liquidationId",
          "type": "uint256"
        },
        {
          "indexed": false,
          "internalType": "uint256",
          "name": "tokensOutstanding",
          "type": "uint256"
        },
        {
          "indexed": false,
          "internalType": "uint256",
          "name": "lockedCollateral",
          "type": "uint256"
        },
        {
          "indexed": false,
          "internalType": "uint256",
          "name": "liquidatedCollateral",
          "type": "uint256"
        },
        {
          "indexed": false,
          "internalType": "uint256",
          "name": "liquidationTime",
          "type": "uint256"
        }
      ],
      "name": "LiquidationCreated",
      "type": "event"
    },
    {
      "anonymous": false,
      "inputs": [
        {
          "indexed": true,
          "internalType": "address",
          "name": "sponsor",
          "type": "address"
        },
        {
          "indexed": true,
          "internalType": "address",
          "name": "liquidator",
          "type": "address"
        },
        {
          "indexed": true,
          "internalType": "address",
          "name": "disputer",
          "type": "address"
        },
        {
          "indexed": false,
          "internalType": "uint256",
          "name": "liquidationId",
          "type": "uint256"
        },
        {
          "indexed": false,
          "internalType": "uint256",
          "name": "disputeBondAmount",
          "type": "uint256"
        }
      ],
      "name": "LiquidationDisputed",
      "type": "event"
    },
    {
      "anonymous": false,
      "inputs": [
        {
          "indexed": true,
          "internalType": "address",
          "name": "caller",
          "type": "address"
        },
        {
          "indexed": false,
          "internalType": "uint256",
          "name": "paidToLiquidator",
          "type": "uint256"
        },
        {
          "indexed": false,
          "internalType": "uint256",
          "name": "paidToDisputer",
          "type": "uint256"
        },
        {
          "indexed": false,
          "internalType": "uint256",
          "name": "paidToSponsor",
          "type": "uint256"
        },
        {
          "indexed": true,
          "internalType": "enum PerpetualLiquidatable.Status",
          "name": "liquidationStatus",
          "type": "uint8"
        },
        {
          "indexed": false,
          "internalType": "uint256",
          "name": "settlementPrice",
          "type": "uint256"
        }
      ],
      "name": "LiquidationWithdrawn",
      "type": "event"
    },
    {
      "anonymous": false,
      "inputs": [
        {
          "indexed": true,
          "internalType": "address",
          "name": "sponsor",
          "type": "address"
        }
      ],
      "name": "NewSponsor",
      "type": "event"
    },
    {
      "anonymous": false,
      "inputs": [
        {
          "indexed": true,
          "internalType": "address",
          "name": "sponsor",
          "type": "address"
        },
        {
          "indexed": true,
          "internalType": "uint256",
          "name": "collateralAmount",
          "type": "uint256"
        },
        {
          "indexed": true,
          "internalType": "uint256",
          "name": "tokenAmount",
          "type": "uint256"
        }
      ],
      "name": "PositionCreated",
      "type": "event"
    },
    {
      "anonymous": false,
      "inputs": [
        {
          "indexed": true,
          "internalType": "address",
          "name": "sponsor",
          "type": "address"
        },
        {
          "indexed": true,
          "internalType": "uint256",
          "name": "collateralAmount",
          "type": "uint256"
        },
        {
          "indexed": true,
          "internalType": "uint256",
          "name": "tokenAmount",
          "type": "uint256"
        }
      ],
      "name": "Redeem",
      "type": "event"
    },
    {
      "anonymous": false,
      "inputs": [
        {
          "indexed": true,
          "internalType": "uint256",
          "name": "regularFee",
          "type": "uint256"
        },
        {
          "indexed": true,
          "internalType": "uint256",
          "name": "lateFee",
          "type": "uint256"
        }
      ],
      "name": "RegularFeesPaid",
      "type": "event"
    },
    {
      "anonymous": false,
      "inputs": [
        {
          "indexed": true,
          "internalType": "address",
          "name": "sponsor",
          "type": "address"
        },
        {
          "indexed": true,
          "internalType": "uint256",
          "name": "numTokensRepaid",
          "type": "uint256"
        },
        {
          "indexed": true,
          "internalType": "uint256",
          "name": "newTokenCount",
          "type": "uint256"
        }
      ],
      "name": "Repay",
      "type": "event"
    },
    {
      "anonymous": false,
      "inputs": [
        {
          "indexed": true,
          "internalType": "address",
          "name": "sponsor",
          "type": "address"
        },
        {
          "indexed": true,
          "internalType": "uint256",
          "name": "collateralAmount",
          "type": "uint256"
        }
      ],
      "name": "RequestWithdrawal",
      "type": "event"
    },
    {
      "anonymous": false,
      "inputs": [
        {
          "indexed": true,
          "internalType": "address",
          "name": "sponsor",
          "type": "address"
        },
        {
          "indexed": true,
          "internalType": "uint256",
          "name": "collateralAmount",
          "type": "uint256"
        }
      ],
      "name": "RequestWithdrawalCanceled",
      "type": "event"
    },
    {
      "anonymous": false,
      "inputs": [
        {
          "indexed": true,
          "internalType": "address",
          "name": "sponsor",
          "type": "address"
        },
        {
          "indexed": true,
          "internalType": "uint256",
          "name": "collateralAmount",
          "type": "uint256"
        }
      ],
      "name": "RequestWithdrawalExecuted",
      "type": "event"
    },
    {
      "anonymous": false,
      "inputs": [
        {
          "indexed": true,
          "internalType": "address",
          "name": "caller",
          "type": "address"
        },
        {
          "indexed": true,
          "internalType": "uint256",
          "name": "collateralReturned",
          "type": "uint256"
        },
        {
          "indexed": true,
          "internalType": "uint256",
          "name": "tokensBurned",
          "type": "uint256"
        }
      ],
      "name": "SettleEmergencyShutdown",
      "type": "event"
    },
    {
      "anonymous": false,
      "inputs": [
        {
          "indexed": true,
          "internalType": "address",
          "name": "sponsor",
          "type": "address"
        },
        {
          "indexed": true,
          "internalType": "uint256",
          "name": "collateralAmount",
          "type": "uint256"
        }
      ],
      "name": "Withdrawal",
      "type": "event"
    },
    {
      "inputs": [],
      "name": "applyFundingRate",
      "outputs": [],
      "stateMutability": "nonpayable",
      "type": "function"
    },
    {
      "inputs": [],
      "name": "cancelWithdrawal",
      "outputs": [],
      "stateMutability": "nonpayable",
      "type": "function"
    },
    {
      "inputs": [],
      "name": "collateralCurrency",
      "outputs": [
        {
          "internalType": "contract IERC20",
          "name": "",
          "type": "address"
        }
      ],
      "stateMutability": "view",
      "type": "function"
    },
    {
      "inputs": [],
      "name": "collateralRequirement",
      "outputs": [
        {
          "internalType": "uint256",
          "name": "rawValue",
          "type": "uint256"
        }
      ],
      "stateMutability": "view",
      "type": "function"
    },
    {
      "inputs": [],
      "name": "configStore",
      "outputs": [
        {
          "internalType": "contract ConfigStoreInterface",
          "name": "",
          "type": "address"
        }
      ],
      "stateMutability": "view",
      "type": "function"
    },
    {
      "inputs": [
        {
          "components": [
            {
              "internalType": "uint256",
              "name": "rawValue",
              "type": "uint256"
            }
          ],
          "internalType": "struct FixedPoint.Unsigned",
          "name": "collateralAmount",
          "type": "tuple"
        },
        {
          "components": [
            {
              "internalType": "uint256",
              "name": "rawValue",
              "type": "uint256"
            }
          ],
          "internalType": "struct FixedPoint.Unsigned",
          "name": "numTokens",
          "type": "tuple"
        }
      ],
      "name": "create",
      "outputs": [],
      "stateMutability": "nonpayable",
      "type": "function"
    },
    {
      "inputs": [
        {
          "internalType": "address",
          "name": "sponsor",
          "type": "address"
        },
        {
          "components": [
            {
              "internalType": "uint256",
              "name": "rawValue",
              "type": "uint256"
            }
          ],
          "internalType": "struct FixedPoint.Unsigned",
          "name": "minCollateralPerToken",
          "type": "tuple"
        },
        {
          "components": [
            {
              "internalType": "uint256",
              "name": "rawValue",
              "type": "uint256"
            }
          ],
          "internalType": "struct FixedPoint.Unsigned",
          "name": "maxCollateralPerToken",
          "type": "tuple"
        },
        {
          "components": [
            {
              "internalType": "uint256",
              "name": "rawValue",
              "type": "uint256"
            }
          ],
          "internalType": "struct FixedPoint.Unsigned",
          "name": "maxTokensToLiquidate",
          "type": "tuple"
        },
        {
          "internalType": "uint256",
          "name": "deadline",
          "type": "uint256"
        }
      ],
      "name": "createLiquidation",
      "outputs": [
        {
          "internalType": "uint256",
          "name": "liquidationId",
          "type": "uint256"
        },
        {
          "components": [
            {
              "internalType": "uint256",
              "name": "rawValue",
              "type": "uint256"
            }
          ],
          "internalType": "struct FixedPoint.Unsigned",
          "name": "tokensLiquidated",
          "type": "tuple"
        },
        {
          "components": [
            {
              "internalType": "uint256",
              "name": "rawValue",
              "type": "uint256"
            }
          ],
          "internalType": "struct FixedPoint.Unsigned",
          "name": "finalFeeBond",
          "type": "tuple"
        }
      ],
      "stateMutability": "nonpayable",
      "type": "function"
    },
    {
      "inputs": [],
      "name": "cumulativeFeeMultiplier",
      "outputs": [
        {
          "internalType": "uint256",
          "name": "rawValue",
          "type": "uint256"
        }
      ],
      "stateMutability": "view",
      "type": "function"
    },
    {
      "inputs": [
        {
          "components": [
            {
              "internalType": "uint256",
              "name": "rawValue",
              "type": "uint256"
            }
          ],
          "internalType": "struct FixedPoint.Unsigned",
          "name": "collateralAmount",
          "type": "tuple"
        }
      ],
      "name": "deposit",
      "outputs": [],
      "stateMutability": "nonpayable",
      "type": "function"
    },
    {
      "inputs": [
        {
          "internalType": "address",
          "name": "sponsor",
          "type": "address"
        },
        {
          "components": [
            {
              "internalType": "uint256",
              "name": "rawValue",
              "type": "uint256"
            }
          ],
          "internalType": "struct FixedPoint.Unsigned",
          "name": "collateralAmount",
          "type": "tuple"
        }
      ],
      "name": "depositTo",
      "outputs": [],
      "stateMutability": "nonpayable",
      "type": "function"
    },
    {
      "inputs": [
        {
          "internalType": "uint256",
          "name": "liquidationId",
          "type": "uint256"
        },
        {
          "internalType": "address",
          "name": "sponsor",
          "type": "address"
        }
      ],
      "name": "dispute",
      "outputs": [
        {
          "components": [
            {
              "internalType": "uint256",
              "name": "rawValue",
              "type": "uint256"
            }
          ],
          "internalType": "struct FixedPoint.Unsigned",
          "name": "totalPaid",
          "type": "tuple"
        }
      ],
      "stateMutability": "nonpayable",
      "type": "function"
    },
    {
      "inputs": [],
      "name": "disputeBondPercentage",
      "outputs": [
        {
          "internalType": "uint256",
          "name": "rawValue",
          "type": "uint256"
        }
      ],
      "stateMutability": "view",
      "type": "function"
    },
    {
      "inputs": [],
      "name": "disputerDisputeRewardPercentage",
      "outputs": [
        {
          "internalType": "uint256",
          "name": "rawValue",
          "type": "uint256"
        }
      ],
      "stateMutability": "view",
      "type": "function"
    },
    {
      "inputs": [],
      "name": "emergencyShutdown",
      "outputs": [],
      "stateMutability": "nonpayable",
      "type": "function"
    },
    {
      "inputs": [],
      "name": "emergencyShutdownPrice",
      "outputs": [
        {
          "internalType": "uint256",
          "name": "rawValue",
          "type": "uint256"
        }
      ],
      "stateMutability": "view",
      "type": "function"
    },
    {
      "inputs": [],
      "name": "emergencyShutdownTimestamp",
      "outputs": [
        {
          "internalType": "uint256",
          "name": "",
          "type": "uint256"
        }
      ],
      "stateMutability": "view",
      "type": "function"
    },
    {
      "inputs": [],
      "name": "finder",
      "outputs": [
        {
          "internalType": "contract FinderInterface",
          "name": "",
          "type": "address"
        }
      ],
      "stateMutability": "view",
      "type": "function"
    },
    {
      "inputs": [],
      "name": "fundingRate",
      "outputs": [
        {
          "components": [
            {
              "internalType": "int256",
              "name": "rawValue",
              "type": "int256"
            }
          ],
          "internalType": "struct FixedPoint.Signed",
          "name": "rate",
          "type": "tuple"
        },
        {
          "internalType": "bytes32",
          "name": "identifier",
          "type": "bytes32"
        },
        {
          "components": [
            {
              "internalType": "uint256",
              "name": "rawValue",
              "type": "uint256"
            }
          ],
          "internalType": "struct FixedPoint.Unsigned",
          "name": "cumulativeMultiplier",
          "type": "tuple"
        },
        {
          "internalType": "uint256",
          "name": "updateTime",
          "type": "uint256"
        },
        {
          "internalType": "uint256",
          "name": "applicationTime",
          "type": "uint256"
        },
        {
          "internalType": "uint256",
          "name": "proposalTime",
          "type": "uint256"
        }
      ],
      "stateMutability": "view",
      "type": "function"
    },
    {
      "inputs": [
        {
          "internalType": "address",
          "name": "sponsor",
          "type": "address"
        }
      ],
      "name": "getCollateral",
      "outputs": [
        {
          "components": [
            {
              "internalType": "uint256",
              "name": "rawValue",
              "type": "uint256"
            }
          ],
          "internalType": "struct FixedPoint.Unsigned",
          "name": "collateralAmount",
          "type": "tuple"
        }
      ],
      "stateMutability": "view",
      "type": "function"
    },
    {
      "inputs": [],
      "name": "getCurrentTime",
      "outputs": [
        {
          "internalType": "uint256",
          "name": "",
          "type": "uint256"
        }
      ],
      "stateMutability": "view",
      "type": "function"
    },
    {
      "inputs": [
        {
          "components": [
            {
              "internalType": "uint256",
              "name": "rawValue",
              "type": "uint256"
            }
          ],
          "internalType": "struct FixedPoint.Unsigned",
          "name": "rawTokenDebt",
          "type": "tuple"
        }
      ],
      "name": "getFundingRateAppliedTokenDebt",
      "outputs": [
        {
          "components": [
            {
              "internalType": "uint256",
              "name": "rawValue",
              "type": "uint256"
            }
          ],
          "internalType": "struct FixedPoint.Unsigned",
          "name": "totalCollateral",
          "type": "tuple"
        }
      ],
      "stateMutability": "view",
      "type": "function"
    },
    {
      "inputs": [
        {
          "internalType": "address",
          "name": "sponsor",
          "type": "address"
        }
      ],
      "name": "getLiquidations",
      "outputs": [
        {
          "components": [
            {
              "internalType": "address",
              "name": "sponsor",
              "type": "address"
            },
            {
              "internalType": "address",
              "name": "liquidator",
              "type": "address"
            },
            {
              "internalType": "enum PerpetualLiquidatable.Status",
              "name": "state",
              "type": "uint8"
            },
            {
              "internalType": "uint256",
              "name": "liquidationTime",
              "type": "uint256"
            },
            {
              "components": [
                {
                  "internalType": "uint256",
                  "name": "rawValue",
                  "type": "uint256"
                }
              ],
              "internalType": "struct FixedPoint.Unsigned",
              "name": "tokensOutstanding",
              "type": "tuple"
            },
            {
              "components": [
                {
                  "internalType": "uint256",
                  "name": "rawValue",
                  "type": "uint256"
                }
              ],
              "internalType": "struct FixedPoint.Unsigned",
              "name": "lockedCollateral",
              "type": "tuple"
            },
            {
              "components": [
                {
                  "internalType": "uint256",
                  "name": "rawValue",
                  "type": "uint256"
                }
              ],
              "internalType": "struct FixedPoint.Unsigned",
              "name": "liquidatedCollateral",
              "type": "tuple"
            },
            {
              "components": [
                {
                  "internalType": "uint256",
                  "name": "rawValue",
                  "type": "uint256"
                }
              ],
              "internalType": "struct FixedPoint.Unsigned",
              "name": "rawUnitCollateral",
              "type": "tuple"
            },
            {
              "internalType": "address",
              "name": "disputer",
              "type": "address"
            },
            {
              "components": [
                {
                  "internalType": "uint256",
                  "name": "rawValue",
                  "type": "uint256"
                }
              ],
              "internalType": "struct FixedPoint.Unsigned",
              "name": "settlementPrice",
              "type": "tuple"
            },
            {
              "components": [
                {
                  "internalType": "uint256",
                  "name": "rawValue",
                  "type": "uint256"
                }
              ],
              "internalType": "struct FixedPoint.Unsigned",
              "name": "finalFee",
              "type": "tuple"
            }
          ],
          "internalType": "struct PerpetualLiquidatable.LiquidationData[]",
          "name": "liquidationData",
          "type": "tuple[]"
        }
      ],
      "stateMutability": "view",
      "type": "function"
    },
    {
      "inputs": [
        {
          "internalType": "uint256",
          "name": "time",
          "type": "uint256"
        }
      ],
      "name": "getOutstandingRegularFees",
      "outputs": [
        {
          "components": [
            {
              "internalType": "uint256",
              "name": "rawValue",
              "type": "uint256"
            }
          ],
          "internalType": "struct FixedPoint.Unsigned",
          "name": "regularFee",
          "type": "tuple"
        },
        {
          "components": [
            {
              "internalType": "uint256",
              "name": "rawValue",
              "type": "uint256"
            }
          ],
          "internalType": "struct FixedPoint.Unsigned",
          "name": "latePenalty",
          "type": "tuple"
        },
        {
          "components": [
            {
              "internalType": "uint256",
              "name": "rawValue",
              "type": "uint256"
            }
          ],
          "internalType": "struct FixedPoint.Unsigned",
          "name": "totalPaid",
          "type": "tuple"
        }
      ],
      "stateMutability": "view",
      "type": "function"
    },
    {
      "inputs": [],
      "name": "gulp",
      "outputs": [],
      "stateMutability": "nonpayable",
      "type": "function"
    },
    {
      "inputs": [],
      "name": "liquidationLiveness",
      "outputs": [
        {
          "internalType": "uint256",
          "name": "",
          "type": "uint256"
        }
      ],
      "stateMutability": "view",
      "type": "function"
    },
    {
      "inputs": [
        {
          "internalType": "address",
          "name": "",
          "type": "address"
        },
        {
          "internalType": "uint256",
          "name": "",
          "type": "uint256"
        }
      ],
      "name": "liquidations",
      "outputs": [
        {
          "internalType": "address",
          "name": "sponsor",
          "type": "address"
        },
        {
          "internalType": "address",
          "name": "liquidator",
          "type": "address"
        },
        {
          "internalType": "enum PerpetualLiquidatable.Status",
          "name": "state",
          "type": "uint8"
        },
        {
          "internalType": "uint256",
          "name": "liquidationTime",
          "type": "uint256"
        },
        {
          "components": [
            {
              "internalType": "uint256",
              "name": "rawValue",
              "type": "uint256"
            }
          ],
          "internalType": "struct FixedPoint.Unsigned",
          "name": "tokensOutstanding",
          "type": "tuple"
        },
        {
          "components": [
            {
              "internalType": "uint256",
              "name": "rawValue",
              "type": "uint256"
            }
          ],
          "internalType": "struct FixedPoint.Unsigned",
          "name": "lockedCollateral",
          "type": "tuple"
        },
        {
          "components": [
            {
              "internalType": "uint256",
              "name": "rawValue",
              "type": "uint256"
            }
          ],
          "internalType": "struct FixedPoint.Unsigned",
          "name": "liquidatedCollateral",
          "type": "tuple"
        },
        {
          "components": [
            {
              "internalType": "uint256",
              "name": "rawValue",
              "type": "uint256"
            }
          ],
          "internalType": "struct FixedPoint.Unsigned",
          "name": "rawUnitCollateral",
          "type": "tuple"
        },
        {
          "internalType": "address",
          "name": "disputer",
          "type": "address"
        },
        {
          "components": [
            {
              "internalType": "uint256",
              "name": "rawValue",
              "type": "uint256"
            }
          ],
          "internalType": "struct FixedPoint.Unsigned",
          "name": "settlementPrice",
          "type": "tuple"
        },
        {
          "components": [
            {
              "internalType": "uint256",
              "name": "rawValue",
              "type": "uint256"
            }
          ],
          "internalType": "struct FixedPoint.Unsigned",
          "name": "finalFee",
          "type": "tuple"
        }
      ],
      "stateMutability": "view",
      "type": "function"
    },
    {
      "inputs": [],
      "name": "minSponsorTokens",
      "outputs": [
        {
          "internalType": "uint256",
          "name": "rawValue",
          "type": "uint256"
        }
      ],
      "stateMutability": "view",
      "type": "function"
    },
    {
      "inputs": [],
      "name": "payRegularFees",
      "outputs": [
        {
          "components": [
            {
              "internalType": "uint256",
              "name": "rawValue",
              "type": "uint256"
            }
          ],
          "internalType": "struct FixedPoint.Unsigned",
          "name": "",
          "type": "tuple"
        }
      ],
      "stateMutability": "nonpayable",
      "type": "function"
    },
    {
      "inputs": [],
      "name": "pfc",
      "outputs": [
        {
          "components": [
            {
              "internalType": "uint256",
              "name": "rawValue",
              "type": "uint256"
            }
          ],
          "internalType": "struct FixedPoint.Unsigned",
          "name": "",
          "type": "tuple"
        }
      ],
      "stateMutability": "view",
      "type": "function"
    },
    {
      "inputs": [
        {
          "internalType": "address",
          "name": "",
          "type": "address"
        }
      ],
      "name": "positions",
      "outputs": [
        {
          "components": [
            {
              "internalType": "uint256",
              "name": "rawValue",
              "type": "uint256"
            }
          ],
          "internalType": "struct FixedPoint.Unsigned",
          "name": "tokensOutstanding",
          "type": "tuple"
        },
        {
          "internalType": "uint256",
          "name": "withdrawalRequestPassTimestamp",
          "type": "uint256"
        },
        {
          "components": [
            {
              "internalType": "uint256",
              "name": "rawValue",
              "type": "uint256"
            }
          ],
          "internalType": "struct FixedPoint.Unsigned",
          "name": "withdrawalRequestAmount",
          "type": "tuple"
        },
        {
          "components": [
            {
              "internalType": "uint256",
              "name": "rawValue",
              "type": "uint256"
            }
          ],
          "internalType": "struct FixedPoint.Unsigned",
          "name": "rawCollateral",
          "type": "tuple"
        }
      ],
      "stateMutability": "view",
      "type": "function"
    },
    {
      "inputs": [],
      "name": "priceIdentifier",
      "outputs": [
        {
          "internalType": "bytes32",
          "name": "",
          "type": "bytes32"
        }
      ],
      "stateMutability": "view",
      "type": "function"
    },
    {
      "inputs": [
        {
          "components": [
            {
              "internalType": "int256",
              "name": "rawValue",
              "type": "int256"
            }
          ],
          "internalType": "struct FixedPoint.Signed",
          "name": "rate",
          "type": "tuple"
        },
        {
          "internalType": "uint256",
          "name": "timestamp",
          "type": "uint256"
        }
      ],
      "name": "proposeFundingRate",
      "outputs": [
        {
          "components": [
            {
              "internalType": "uint256",
              "name": "rawValue",
              "type": "uint256"
            }
          ],
          "internalType": "struct FixedPoint.Unsigned",
          "name": "totalBond",
          "type": "tuple"
        }
      ],
      "stateMutability": "nonpayable",
      "type": "function"
    },
    {
      "inputs": [],
      "name": "rawLiquidationCollateral",
      "outputs": [
        {
          "internalType": "uint256",
          "name": "rawValue",
          "type": "uint256"
        }
      ],
      "stateMutability": "view",
      "type": "function"
    },
    {
      "inputs": [],
      "name": "rawTotalPositionCollateral",
      "outputs": [
        {
          "internalType": "uint256",
          "name": "rawValue",
          "type": "uint256"
        }
      ],
      "stateMutability": "view",
      "type": "function"
    },
    {
      "inputs": [
        {
          "components": [
            {
              "internalType": "uint256",
              "name": "rawValue",
              "type": "uint256"
            }
          ],
          "internalType": "struct FixedPoint.Unsigned",
          "name": "numTokens",
          "type": "tuple"
        }
      ],
      "name": "redeem",
      "outputs": [
        {
          "components": [
            {
              "internalType": "uint256",
              "name": "rawValue",
              "type": "uint256"
            }
          ],
          "internalType": "struct FixedPoint.Unsigned",
          "name": "amountWithdrawn",
          "type": "tuple"
        }
      ],
      "stateMutability": "nonpayable",
      "type": "function"
    },
    {
      "inputs": [],
      "name": "remargin",
      "outputs": [],
      "stateMutability": "nonpayable",
      "type": "function"
    },
    {
      "inputs": [
        {
          "components": [
            {
              "internalType": "uint256",
              "name": "rawValue",
              "type": "uint256"
            }
          ],
          "internalType": "struct FixedPoint.Unsigned",
          "name": "numTokens",
          "type": "tuple"
        }
      ],
      "name": "repay",
      "outputs": [],
      "stateMutability": "nonpayable",
      "type": "function"
    },
    {
      "inputs": [
        {
          "components": [
            {
              "internalType": "uint256",
              "name": "rawValue",
              "type": "uint256"
            }
          ],
          "internalType": "struct FixedPoint.Unsigned",
          "name": "collateralAmount",
          "type": "tuple"
        }
      ],
      "name": "requestWithdrawal",
      "outputs": [],
      "stateMutability": "nonpayable",
      "type": "function"
    },
    {
      "inputs": [
        {
          "internalType": "uint256",
          "name": "time",
          "type": "uint256"
        }
      ],
      "name": "setCurrentTime",
      "outputs": [],
      "stateMutability": "nonpayable",
      "type": "function"
    },
    {
      "inputs": [],
      "name": "settleEmergencyShutdown",
      "outputs": [
        {
          "components": [
            {
              "internalType": "uint256",
              "name": "rawValue",
              "type": "uint256"
            }
          ],
          "internalType": "struct FixedPoint.Unsigned",
          "name": "amountWithdrawn",
          "type": "tuple"
        }
      ],
      "stateMutability": "nonpayable",
      "type": "function"
    },
    {
      "inputs": [],
      "name": "sponsorDisputeRewardPercentage",
      "outputs": [
        {
          "internalType": "uint256",
          "name": "rawValue",
          "type": "uint256"
        }
      ],
      "stateMutability": "view",
      "type": "function"
    },
    {
      "inputs": [],
      "name": "timerAddress",
      "outputs": [
        {
          "internalType": "address",
          "name": "",
          "type": "address"
        }
      ],
      "stateMutability": "view",
      "type": "function"
    },
    {
      "inputs": [],
      "name": "tokenCurrency",
      "outputs": [
        {
          "internalType": "contract ExpandedIERC20",
          "name": "",
          "type": "address"
        }
      ],
      "stateMutability": "view",
      "type": "function"
    },
    {
      "inputs": [],
      "name": "totalPositionCollateral",
      "outputs": [
        {
          "components": [
            {
              "internalType": "uint256",
              "name": "rawValue",
              "type": "uint256"
            }
          ],
          "internalType": "struct FixedPoint.Unsigned",
          "name": "totalCollateral",
          "type": "tuple"
        }
      ],
      "stateMutability": "view",
      "type": "function"
    },
    {
      "inputs": [],
      "name": "totalTokensOutstanding",
      "outputs": [
        {
          "internalType": "uint256",
          "name": "rawValue",
          "type": "uint256"
        }
      ],
      "stateMutability": "view",
      "type": "function"
    },
    {
      "inputs": [
        {
          "components": [
            {
              "internalType": "uint256",
              "name": "rawValue",
              "type": "uint256"
            }
          ],
          "internalType": "struct FixedPoint.Unsigned",
          "name": "collateralAmount",
          "type": "tuple"
        }
      ],
      "name": "withdraw",
      "outputs": [
        {
          "components": [
            {
              "internalType": "uint256",
              "name": "rawValue",
              "type": "uint256"
            }
          ],
          "internalType": "struct FixedPoint.Unsigned",
          "name": "amountWithdrawn",
          "type": "tuple"
        }
      ],
      "stateMutability": "nonpayable",
      "type": "function"
    },
    {
      "inputs": [
        {
          "internalType": "uint256",
          "name": "liquidationId",
          "type": "uint256"
        },
        {
          "internalType": "address",
          "name": "sponsor",
          "type": "address"
        }
      ],
      "name": "withdrawLiquidation",
      "outputs": [
        {
          "components": [
            {
              "components": [
                {
                  "internalType": "uint256",
                  "name": "rawValue",
                  "type": "uint256"
                }
              ],
              "internalType": "struct FixedPoint.Unsigned",
              "name": "payToSponsor",
              "type": "tuple"
            },
            {
              "components": [
                {
                  "internalType": "uint256",
                  "name": "rawValue",
                  "type": "uint256"
                }
              ],
              "internalType": "struct FixedPoint.Unsigned",
              "name": "payToLiquidator",
              "type": "tuple"
            },
            {
              "components": [
                {
                  "internalType": "uint256",
                  "name": "rawValue",
                  "type": "uint256"
                }
              ],
              "internalType": "struct FixedPoint.Unsigned",
              "name": "payToDisputer",
              "type": "tuple"
            },
            {
              "components": [
                {
                  "internalType": "uint256",
                  "name": "rawValue",
                  "type": "uint256"
                }
              ],
              "internalType": "struct FixedPoint.Unsigned",
              "name": "paidToSponsor",
              "type": "tuple"
            },
            {
              "components": [
                {
                  "internalType": "uint256",
                  "name": "rawValue",
                  "type": "uint256"
                }
              ],
              "internalType": "struct FixedPoint.Unsigned",
              "name": "paidToLiquidator",
              "type": "tuple"
            },
            {
              "components": [
                {
                  "internalType": "uint256",
                  "name": "rawValue",
                  "type": "uint256"
                }
              ],
              "internalType": "struct FixedPoint.Unsigned",
              "name": "paidToDisputer",
              "type": "tuple"
            }
          ],
          "internalType": "struct PerpetualLiquidatable.RewardsData",
          "name": "",
          "type": "tuple"
        }
      ],
      "stateMutability": "nonpayable",
      "type": "function"
    },
    {
      "inputs": [],
      "name": "withdrawPassedRequest",
      "outputs": [
        {
          "components": [
            {
              "internalType": "uint256",
              "name": "rawValue",
              "type": "uint256"
            }
          ],
          "internalType": "struct FixedPoint.Unsigned",
          "name": "amountWithdrawn",
          "type": "tuple"
        }
      ],
      "stateMutability": "nonpayable",
      "type": "function"
    },
    {
      "inputs": [],
      "name": "withdrawalLiveness",
      "outputs": [
        {
          "internalType": "uint256",
          "name": "",
          "type": "uint256"
        }
      ],
      "stateMutability": "view",
      "type": "function"
    }
  ],
  "bytecode": "0x60806040523480156200001157600080fd5b5060405162005bfd38038062005bfd8339810160408190526200003491620005c3565b805160408201516060830151608084015160c085015160e0860151610100870151602088015161012089015160a08a0151600080556001805460ff60a01b196001600160a01b038085166001600160a01b03199384161791909116600160a01b1790925560028054838d1690831617905560038054928a16929091169190911790558a99989796959493929190848988858585848482620000d4620002ad565b600481905550620000f160016200035a60201b62002a531760201c565b516005555060009150620001069050620002ad565b6009819055600a555050516008556007939093555050600c80546001600160a01b0319166001600160a01b039092169190911790556200014562000399565b6001600160a01b03166390978d1b876040518263ffffffff1660e01b815260040162000172919062000709565b60206040518083038186803b1580156200018b57600080fd5b505afa158015620001a0573d6000803e3d6000fd5b505050506040513d601f19601f82011682018060405250810190620001c69190620005a1565b620001d057600080fd5b50505060129690965550601080546001600160a01b0319166001600160a01b039490941693909317909255509151601355506011556101608101516200022490600162000445602090811b62002a8117901c565b6200022e57600080fd5b6200026c600162000258836101c00151846101a001516200045f60201b62002a981790919060201c565b6200049f60201b62002ac41790919060201c565b6200027657600080fd5b61014081015160175561016081015151601855610180810151516019556101a081015151601a556101c0015151601b5550620007b1565b6001546000906001600160a01b0316156200035457600160009054906101000a90046001600160a01b03166001600160a01b03166329cb924d6040518163ffffffff1660e01b815260040160206040518083038186803b1580156200031157600080fd5b505afa15801562000326573d6000803e3d6000fd5b505050506040513d601f19601f820116820180604052508101906200034c9190620006f0565b905062000357565b50425b90565b6200036462000530565b604051806020016040528062000391670de0b6b3a764000085620004b860201b62002adb1790919060201c565b905292915050565b6003546040516302abf57960e61b81526000916001600160a01b03169063aafd5e4090620003ec907f4964656e74696669657257686974656c697374000000000000000000000000009060040162000709565b60206040518083038186803b1580156200040557600080fd5b505afa1580156200041a573d6000803e3d6000fd5b505050506040513d601f19601f8201168201806040525081019062000440919062000583565b905090565b600062000452826200035a565b5183511190505b92915050565b6200046962000530565b604051806020016040528062000496846000015186600001516200050860201b62002b1c1790919060201c565b90529392505050565b6000620004ac826200035a565b51835110905092915050565b600082620004c95750600062000459565b82820282848281620004d757fe5b0414620005015760405162461bcd60e51b8152600401620004f89062000749565b60405180910390fd5b9392505050565b600082820183811015620005015760405162461bcd60e51b8152600401620004f89062000712565b6040518060200160405280600081525090565b80516001600160a01b03811681146200045957600080fd5b6000602082840312156200056d578081fd5b6200057960206200078a565b9151825250919050565b60006020828403121562000595578081fd5b62000501838362000543565b600060208284031215620005b3578081fd5b8151801515811462000501578182fd5b60006101e0808385031215620005d7578182fd5b620005e2816200078a565b905082518152620005f7846020850162000543565b60208201526200060b846040850162000543565b60408201526200061f846060850162000543565b606082015262000633846080850162000543565b6080820152620006478460a0850162000543565b60a082015260c083015160c082015260e083015160e082015261010062000671858286016200055b565b9082015261012062000686858583016200055b565b908201526101408381015190820152610160620006a6858286016200055b565b90820152610180620006bb858583016200055b565b908201526101a0620006d0858583016200055b565b908201526101c0620006e5858583016200055b565b908201529392505050565b60006020828403121562000702578081fd5b5051919050565b90815260200190565b6020808252601b908201527f536166654d6174683a206164646974696f6e206f766572666c6f770000000000604082015260600190565b60208082526021908201527f536166654d6174683a206d756c7469706c69636174696f6e206f766572666c6f6040820152607760f81b606082015260800190565b6040518181016001600160401b0381118282101715620007a957600080fd5b604052919050565b61543c80620007c16000396000f3fe608060405234801561001057600080fd5b50600436106102ba5760003560e01c80635aa266c91161018257806394909e62116100e9578063a1c4d1e7116100a2578063bc1216301161007c578063bc1216301461057a578063bda02e771461058d578063d1e92c1114610595578063dd0eef3d146105a8576102ba565b8063a1c4d1e71461053f578063a765fbea1461055f578063b9a3c84c14610572576102ba565b806394909e62146104ea57806397523661146104f25780639b56d6c9146104fa5780639d69dc4e1461050d5780639e4efaa0146105155780639ff4dea814610537576102ba565b80637b34ee7f1161013b5780637b34ee7f146104af5780637e398c22146104b757806381a10ae1146104bf5780638bbd9fb9146104c75780638c382eb2146104da57806392120aec146104e2576102ba565b80635aa266c91461045e5780635f1af1ca146104715780636ba2f992146104845780636cf1be29146104975780637048594b1461049f57806371f3c1b7146104a7576102ba565b806333a46ca21161022657806341d3c84c116101df57806341d3c84c146103df57806343e4771b146103f957806348e30c3f146104015780634f8c48471461040957806350f498461461043357806355f575101461043b576102ba565b806333a46ca2146103815780633403c2fc1461038957806334c4955614610391578063360598e1146103a45780633cb6ce83146103c45780633ee7a5ce146103cc576102ba565b80632261128011610278578063226112801461032c57806322f8e5661461033457806325ed4dd81461034757806329cb924d146103695780632d5436cf146103715780632e154f2e14610379576102ba565b8062b9add7146102bf578063081b314e146102dd5780630c9229ca146102f25780630de15fd9146102fa57806318928a0c1461030f5780631c39c38d14610324575b600080fd5b6102c76105b0565b6040516102d49190615317565b60405180910390f35b6102e561092a565b6040516102d49190614e03565b6102e5610930565b610302610936565b6040516102d49190614b43565b61032261031d3660046147e6565b610945565b005b6103026109fd565b610322610a0c565b610322610342366004614a77565b610a87565b61035a610355366004614786565b610b01565b6040516102d493929190615356565b6102e5611060565b6102e5611108565b6102e561110e565b6102c7611114565b61032261124d565b6102c761039f3660046149be565b6112f3565b6103b76103b2366004614a8f565b6115cf565b6040516102d491906152a5565b6102c7611a4a565b6102c76103da3660046149fa565b611bda565b6103e7611c93565b6040516102d4969594939291906152ef565b6102c7611cc2565b6102e5611cf9565b61041c61041736600461481b565b611cff565b6040516102d49b9a99989796959493929190614bd7565b6102e5611dc3565b61044e61044936600461474e565b611dc9565b6040516102d49493929190615338565b61032261046c3660046149fa565b611e0f565b6102c761047f3660046149fa565b611f91565b610322610492366004614a30565b6121c5565b6102e561240b565b610302612411565b610322612420565b6102e5612449565b6102e561244f565b6102c7612455565b6102c76104d53660046149fa565b61246d565b6102e561248e565b6102e5612494565b61032261249a565b6102e56124b2565b6102c761050836600461474e565b6124b8565b610302612501565b610528610523366004614a77565b612510565b6040516102d493929190615321565b6102e5612687565b61055261054d36600461474e565b61268d565b6040516102d49190614cf4565b6102c761056d366004614a8f565b6127eb565b610302612971565b6103226105883660046149fa565b612980565b610322610a85565b6103226105a33660046149fa565b612a40565b6102e5612a4d565b6105b861459e565b6105c0612b41565b6105c8612420565b6105d0612b4d565b6105d8612b76565b6105fb6105e56000612a53565b6040805160208101909152601454815290612b85565b1561060d57610608612b8c565b516014555b61061561459e565b6040805160208101918290526010546370a0823160e01b9092529081906001600160a01b03166370a0823161064d3360248501614b43565b60206040518083038186803b15801561066557600080fd5b505afa158015610679573d6000803e3d6000fd5b505050506040513d601f19601f8201168201806040525081019061069d9190614866565b905290506106a961459e565b604080516020810190915260145481526106cc906106c684612b9f565b90612bbe565b336000908152600d6020908152604080832081519283019091526003810154825292935061070491906106fe90612bfb565b90612a81565b156107f75761071161459e565b6040805160208082018352601454825282519081019092528354825261073a916106c690612b9f565b905061074461459e565b60408051602081019091526003840154815261075f90612bfb565b905061076961459e565b6107738383612c1e565b61078c5760405180602001604052806000815250610796565b6107968284612c25565b90506107a28582612a98565b336000818152600d602052604080822082815560018101839055600281018390556003018290555192975090917fcad20625296d189a6fc6e5b39d0d544e5bd99dbda0c8f2f0ecffef3e0fbcc2829190a25050505b6107ff61459e565b6040805160208101909152600f5481526108229061081c90612bfb565b84612c48565b905061082f600f82612c66565b6040805160208101909152600e54815290955061084c9085612c25565b51600e558351855160405133907f129c54fc6fd4bd937e4a04ede027ac4ad3f9397cd943d6d354649d9d968dacbe90600090a4845160025461089b916001600160a01b03909116903390612cec565b83516010546108b9916001600160a01b039091169033903090612d42565b6010548451604051630852cd8d60e31b81526001600160a01b03909216916342966c68916108e991600401614e03565b600060405180830381600087803b15801561090357600080fd5b505af1158015610917573d6000803e3d6000fd5b5050505050505050610927612d69565b90565b601a5481565b600e5481565b6002546001600160a01b031681565b61094d612d7e565b8161095781612d8b565b61095f612420565b610967612b4d565b61096f612b76565b61097a826000612a81565b61098357600080fd5b600061098e84612da2565b905061099a8184612dca565b5082516040516001600160a01b038616907fe1fffcc4923d04b559f4d29a8bfc6cda04eb5b0d3c460751c2402c5c5cc9109c90600090a382516002546109ef916001600160a01b039091169033903090612d42565b506109f8612d69565b505050565b6001546001600160a01b031681565b610a14612d7e565b610a1c612b4d565b610a24612b76565b6000610a2f33612da2565b9050806001015460001415610a4357600080fd5b600281015460405133907f74d8a3658feb89d1a5c335229bbbfc3bbcfaf492769feb7aa4cd2d92efeaf69190600090a3610a7c81612deb565b50610a85612d69565b565b6001546001600160a01b0316610a9c57600080fd5b60015460405163117c72b360e11b81526001600160a01b03909116906322f8e56690610acc908490600401614e03565b600060405180830381600087803b158015610ae657600080fd5b505af1158015610afa573d6000803e3d6000fd5b5050505050565b6000610b0b61459e565b610b1361459e565b610b1b612d7e565b610b23612420565b610b2b612b4d565b610b33612b76565b83610b3c611060565b1115610b635760405162461bcd60e51b8152600401610b5a90614eef565b60405180910390fd5b6000610b6e89612da2565b9050610b96610b82368890038801886149fa565b604080516020810190915283548152612c48565b9250610ba3836000612a81565b610bac57600080fd5b610bb461459e565b604080516020810190915260038301548152610bcf90612bfb565b9050610bd961459e565b610be36000612a53565b604080516020810190915260028501548152909150610c029083612e05565b15610c2757604080516020810190915260028401548152610c24908390612c25565b90505b610c2f61459e565b50604080516020810190915283548152610c5c82610c56836106c6368f90038f018f6149fa565b90612e0d565b610c785760405162461bcd60e51b8152600401610b5a906150b2565b610c9782610c91838e8036038101906106c691906149fa565b90612e05565b610cb35760405162461bcd60e51b8152600401610b5a9061516e565b50610cbc612e15565b9350610cc661459e565b610cce61459e565b610cd661459e565b604080516020810190915286548152610cf0908990612eb0565b9050610cfc8582612bbe565b9250610d088482612bbe565b9150610d1261459e565b604080516020810190915260028801548152610d2e9083612bbe565b9050610d3c8f8a8684612ee5565b50610d5390506016610d4e8489612a98565b612fec565b506001600160a01b038d1660008181526015602090815260409182902080548351610160810185529485523392850192909252909a509190810160018152602001610d9c611060565b8152602001610daa8a612b9f565b8152602001848152602001838152602001610dcd610dc86001612a53565b613064565b815260200160006001600160a01b03168152602001610dec6000612a53565b815260209081018990528254600180820185556000948552938290208351600a9092020180546001600160a01b03199081166001600160a01b0393841617825592840151948101805490931694909116939093178082556040830151929392919060ff60a01b1916600160a01b836004811115610e6557fe5b021790555060608201516002820155608082015151600382015560a082015151600482015560c082015151600582015560e08201515160068201556101008201516007820180546001600160a01b0319166001600160a01b039092169190911790556101208201515160088201556101409091015151600990910155610ee961459e565b5060408051602081019091526013548152600186015415801590610f175750610f10611060565b8660010154115b8015610f285750610f288882612e0d565b15610f4757610f41601254610f3b611060565b90612b1c565b60018701555b88336001600160a01b03168f6001600160a01b03167f39b4371645b4132767fd76a1aad3108ff95c20d7b687b24d171555f5459a7597610f868c612b9f565b5187518751610f93611060565b604051610fa39493929190615383565b60405180910390a48751601054610fc9916001600160a01b039091169033903090612d42565b6010548851604051630852cd8d60e31b81526001600160a01b03909216916342966c6891610ff991600401614e03565b600060405180830381600087803b15801561101357600080fd5b505af1158015611027573d6000803e3d6000fd5b5050885160025461104793506001600160a01b0316915033903090612d42565b505050505050611055612d69565b955095509592505050565b6001546000906001600160a01b03161561110157600160009054906101000a90046001600160a01b03166001600160a01b03166329cb924d6040518163ffffffff1660e01b815260040160206040518083038186803b1580156110c257600080fd5b505afa1580156110d6573d6000803e3d6000fd5b505050506040513d601f19601f820116820180604052508101906110fa9190614866565b9050610927565b5042610927565b60175481565b60195481565b61111c61459e565b611124612d7e565b61112c612420565b611134612b4d565b61113c612b76565b600061114733612da2565b905080600101546000141580156111695750611161611060565b816001015411155b61117257600080fd5b61117a61459e565b50604080516020808201835260028401548252825190810190925260038301548252906111c2906111aa90612bfb565b60408051602081019091526002850154815290613087565b156111e5576040805160208101909152600383015481526111e290612bfb565b90505b6111ef828261308e565b92506111fa82612deb565b8251600254611216916001600160a01b03909116903390612cec565b825160405133907fc86c3298cb79f486674dca87d9247e88b76146160e7d412cc59b26b14c358a6890600090a35050610927612d69565b611255612d7e565b61125d612420565b611265612b4d565b61126d612b76565b6112756130af565b6001600160a01b0316336001600160a01b03161461129257600080fd5b61129a611060565b60008190556112a89061314a565b336001600160a01b03167f077382e0341a6d8666d1f8ed15b8c933a01f5c1a3e6c5229e2db8c5dc1c06ae16000546040516112e39190614e03565b60405180910390a2610a85612d69565b6112fb61459e565b611303612420565b61130b612b4d565b611313612b76565b600b54156113335760405162461bcd60e51b8152600401610b5a90615140565b61133c83613181565b6000611346611060565b6009549091508084118015611370575061136c6113616131bd565b60a00151839061324d565b8410155b61138c5760405162461bcd60e51b8152600401610b5a90614fc4565b600b849055600061139b61328f565b60075490915060606113ab6132d3565b6002546040516311df92f160e01b81529192506001600160a01b03808616926311df92f1926113e79287928d9288921690600090600401614e39565b602060405180830381600087803b15801561140157600080fd5b505af1158015611415573d6000803e3d6000fd5b505050506040513d601f19601f820116820180604052508101906114399190614866565b506040518060200160405280846001600160a01b031663ad5a755a858b8661146e6114626131bd565b604001516106c6613301565b516040516001600160e01b031960e087901b1681526114939493929190600401614e75565b602060405180830381600087803b1580156114ad57600080fd5b505af11580156114c1573d6000803e3d6000fd5b505050506040513d601f19601f820116820180604052508101906114e59190614866565b905295506114f4866000612a81565b15611533578551600254611517916001600160a01b039091169033903090612d42565b8551600254611533916001600160a01b0390911690859061332e565b8751604051637c82288f60e01b81526001600160a01b03851691637c82288f91611569913391309188918e918991600401614b57565b602060405180830381600087803b15801561158357600080fd5b505af1158015611597573d6000803e3d6000fd5b505050506040513d601f19601f820116820180604052508101906115bb9190614866565b5050505050506115c9612d69565b92915050565b6115d76145b1565b82826115e382826133d3565b6115eb612420565b6115f3612b4d565b6115fb612b76565b6000611607858761343a565b905061161386866134c4565b61161b61459e565b60408051602081019091526006830154815261163690612bfb565b905061164061459e565b5060408051602081019091526008830154815261165b61459e565b60408051602081019091526003850154815261167d9084906106c69085612bbe565b905061168761459e565b6040805160208101909152600486015481526116a39085612bbe565b90506116ad61459e565b6040805160208101909152601b5481526116c79084612bbe565b90506116d161459e565b6040805160208101909152601a5481526116eb9085612bbe565b90506116f561459e565b60408051602081019091526019548152611710908590612bbe565b905061171a61459e565b604080516020810190915260098a015481526117369089612bbe565b90506117406145b1565b600360018b0154600160a01b900460ff16600481111561175c57fe5b141561185857611776826117708786612a98565b90612a98565b604082015261178f6117888789612c25565b8590612a98565b81526117a58561179f8987612c25565b90612c25565b602082018190526117b890601690612c66565b608082015280516117cb90601690612c66565b606082015260408101516117e190601690612c66565b60a0820181905260078b0154905160025461180a926001600160a01b0391821692911690612cec565b60018a0154608082015151600254611830926001600160a01b0391821692911690612cec565b8954606082015151600254611853926001600160a01b0391821692911690612cec565b61192b565b600460018b0154600160a01b900460ff16600481111561187457fe5b14156118c457611888826117708886612a98565b6020820181905261189b90601690612c66565b6080820181905260018b01549051600254611853926001600160a01b0391821692911690612cec565b6001808b0154600160a01b900460ff1660048111156118df57fe5b141561192b576118ef8683612a98565b6020820181905261190290601690612c66565b6080820181905260018b0154905160025461192b926001600160a01b0391821692911690612cec565b60018a0154600160a01b900460ff16600481111561194557fe5b60808201515160a0830151516060840151518b5160405133947fb479588a37dc7f6bac1c91587fcfc539cac4949cf26bb536ad9c8d061f00f50d9461198d9491939092615383565b60405180910390a3601560008f6001600160a01b03166001600160a01b031681526020019081526020016000208f815481106119c557fe5b600091825260208220600a9091020180546001600160a01b031990811682556001820180546001600160a81b03191690556002820183905560038201839055600482018390556005820183905560068201839055600782018054909116905560088101829055600901559b50505050505050505050611a42612d69565b505092915050565b611a5261459e565b611a5a612b4d565b611a62612b76565b6000611a6c611060565b9050611a7661459e565b611a7e613301565b9050611a8861459e565b611a9061459e565b611a9861459e565b611aa185612510565b600488905591945092509050611ab881600061361a565b15611ac9579450611bd29350505050565b815183516040517f19b92e73d08d517d71ec46136266e4f5d526a8cd4f8501d73713cebfe4f335ef90600090a3611b008185613631565b611b0b836000612a81565b15611b9f576000611b1a613675565b8451600254919250611b37916001600160a01b031690839061332e565b60025460405163432ce91960e11b81526001600160a01b0383811692638659d23292611b6b92909116908890600401614cb7565b600060405180830381600087803b158015611b8557600080fd5b505af1158015611b99573d6000803e3d6000fd5b50505050505b611baa826000612a81565b15611bcb578151600254611bcb916001600160a01b03909116903390612cec565b9450505050505b610927612d69565b611be261459e565b611bea612d7e565b33611bf481612d8b565b611bfc612420565b611c04612b4d565b611c0c612b76565b611c17836000612a81565b611c2057600080fd5b6000611c2b33612da2565b9050611c3781856136ae565b80516040519194509033907f7fcf532c15f0a6db0bd6d0e038bea71d30d808c7d98cb3bf7268a95bf5081b6590600090a38251600254611c84916001600160a01b03909116903390612cec565b50611c8d612d69565b50919050565b6040805160208082018352600654825260075483519182019093526008548152600954600a54600b5493949386565b611cca61459e565b611cd2612b4d565b6040805160208101909152600f548152611cf490611cef90612bfb565b6136f4565b905090565b60185481565b60156020528160005260406000208181548110611d1857fe5b6000918252602091829020600a919091020180546001820154600283015460408051808701825260038601548152815180880183526004870154815282518089018452600588015481528351808a0185526006890154815260078901548551808c01875260088b0154815286519b8c019096526009909901548a526001600160a01b039788169b508787169a50600160a01b90960460ff16989497929691959094909391909216918b565b60165481565b600d602090815260009182526040918290208251808301845281548152600182015484518085018652600284015481528551948501909552600390920154835292909184565b611e17612d7e565b33611e2181612d8b565b611e29612420565b611e31612b4d565b611e39612b76565b6000611e4433612da2565b604080516020810190915281548152909150611e61908490612e05565b611e6a57600080fd5b611e7261459e565b604080516020810190915282548152611e8b9085612c25565b60408051602081019091526013548152909150611ea9908290612e0d565b611eb257600080fd5b805182556040805160208101909152600e548152611ed09085612c25565b51600e558051845160405133907f77c6871227e5d2dec8dadd5354f78453203e22e669cd0ec4c19d9a8c5edb31d090600090a48351601054611f21916001600160a01b039091169033903090612d42565b6010548451604051630852cd8d60e31b81526001600160a01b03909216916342966c6891611f5191600401614e03565b600060405180830381600087803b158015611f6b57600080fd5b505af1158015611f7f573d6000803e3d6000fd5b505050505050611f8d612d69565b5050565b611f9961459e565b611fa1612d7e565b33611fab81612d8b565b611fb3612420565b611fbb612b4d565b611fc3612b76565b6000611fce33612da2565b604080516020810190915281548152909150611feb908590612e05565b611ff457600080fd5b611ffc61459e565b604080516020810190915282548152612016908690612eb0565b905061202061459e565b6040805160208101909152600384015481526120469061203f90612bfb565b8390612bbe565b6040805160208101909152845481529091506120629087612b85565b156120775761207033613771565b94506120ef565b612081838261308e565b945061208b61459e565b6040805160208101909152845481526120a49088612c25565b604080516020810190915260135481529091506120c2908290612e0d565b6120cb57600080fd5b805184556040805160208101909152600e5481526120e99088612c25565b51600e55505b8551855160405133907fe5b754fb1abb7f01b499791d0b820ae3b6af3424ac1c59768edb53f4ec31a92990600090a4845160025461213a916001600160a01b03909116903390612cec565b8551601054612158916001600160a01b039091169033903090612d42565b6010548651604051630852cd8d60e31b81526001600160a01b03909216916342966c689161218891600401614e03565b600060405180830381600087803b1580156121a257600080fd5b505af11580156121b6573d6000803e3d6000fd5b50505050505050611c8d612d69565b6121cd612d7e565b6121d5612420565b6121dd612b4d565b6121e5612b76565b336000908152600d60209081526040918290208251918201909252600382015481526122389061221a90859061177090612bfb565b6040805160208101909152835481526122339085612a98565b613879565b8061224857506122488383613879565b6122645760405162461bcd60e51b8152600401610b5a9061510f565b60018101541561227357600080fd5b60408051602081019091528154815261228d90600061361a565b156122e257604080516020810190915260135481526122ad908390612e0d565b6122b657600080fd5b60405133907ff60993fa76f94c9e0a803526ee6e1314814ed4d2b0d223febf1436b36897fb3790600090a25b6122ec8184612dca565b506040805160208101909152815481526123069083612a98565b5181556040805160208101909152600e5481526123239083612a98565b51600e558151835160405133907f4b82aa16e071a61de1a6b9aeec9edab0356331f8122c78683b469ac8e685dabc90600090a48251600254612374916001600160a01b039091169033903090612d42565b60105482516040516340c10f1960e01b81526001600160a01b03909216916340c10f19916123a791339190600401614ba4565b602060405180830381600087803b1580156123c157600080fd5b505af11580156123d5573d6000803e3d6000fd5b505050506040513d601f19601f820116820180604052508101906123f99190614846565b61240257600080fd5b50611f8d612d69565b60005481565b6010546001600160a01b031681565b612428611a4a565b50612431612b4d565b612439612b76565b6124416138df565b610a85612d69565b60145481565b601b5481565b61245d61459e565b612465612b4d565b611cf4613301565b61247561459e565b61247d612b4d565b61248682612b9f565b90505b919050565b600f5481565b60135481565b6124a2612b4d565b6124aa612b76565b612441613947565b60115481565b6124c061459e565b6124c8612b4d565b6001600160a01b0382166000908152600d60209081526040918290208251918201909252600390910154815261248690611cef90612bfb565b600c546001600160a01b031681565b61251861459e565b61252061459e565b61252861459e565b6000612532613675565b905061253c61459e565b612544613301565b905061255181600061361a565b8061255d575085600454145b15612569575050612680565b600480546040516374201feb60e01b81526001600160a01b038516926374201feb9261259b9290918b9187910161536c565b604080518083038186803b1580156125b257600080fd5b505afa1580156125c6573d6000803e3d6000fd5b505050506040513d601f19601f820116820180604052508101906125ea9190614a4c565b90955093506125f98585612a98565b925061260683600061361a565b15612612575050612680565b61261c8382613087565b1561267d5761262961459e565b6126338483612c25565b905061263d61459e565b6126478683612c48565b90506126538682612c25565b955061265f8282612c25565b915061267561266e8884612c48565b8890612c25565b965082945050505b50505b9193909250565b60125481565b6060612697612b4d565b6001600160a01b038216600090815260156020908152604080832080548251818502810185019093528083529193909284015b828210156127e05760008481526020908190206040805161016081018252600a860290920180546001600160a01b039081168452600182015490811694840194909452919290830190600160a01b900460ff16600481111561272857fe5b600481111561273357fe5b8152600282015460208083019190915260408051808301825260038501548152818401528051808301825260048501548152606084015280518083018252600585015481526080840152805180830182526006850154815260a084015260078401546001600160a01b031660c0840152805180830182526008850154815260e0840152805180830190915260099093015483526101009091019190915290825260019290920191016126ca565b505050509050919050565b6127f361459e565b82826127ff8282613a11565b612807612420565b61280f612b4d565b612817612b76565b6000612823858761343a565b905061282d61459e565b6040805160208101909152600683015481526128759061284c90612bfb565b604080516020808201835260195482528251908101909252600486015482526106c69190612bbe565b9050612882601682612fec565b5060018201805460ff60a01b1916600160a11b1790556007820180546001600160a01b0319163317905560028201546128ba9061314a565b6001820154815160405133926001600160a01b0390811692908a16917fcaca181ccad7979cf36ed4fc921e496001ab5264608f0fac7007ae1b43d3610291612904918d9190614e0c565b60405180910390a4604080516020810190915260098301548152612929908290612a98565b604080516020810190915260098401548152909550612949903390613a71565b8051600254612967916001600160a01b039091169033903090612d42565b5050611a42612d69565b6003546001600160a01b031681565b612988612d7e565b3361299281612d8b565b61299a612b4d565b6129a2612b76565b60006129ad33612da2565b90506129ba836000612a81565b80156129e757506040805160208101909152600382015481526129e7906129e090612bfb565b8490612e05565b6129f057600080fd5b6129fe601254610f3b611060565b600182015582516002820181905560405133907fd33b726e11d2c5d38e6702b16613df0160a07f7ba5185455ee3c45d0494fab1190600090a350611f8d612d69565b612a4a3382610945565b50565b60055481565b612a5b61459e565b604080516020810190915280612a7984670de0b6b3a7640000612adb565b905292915050565b6000612a8c82612a53565b51835111905092915050565b612aa061459e565b6040805160208101909152825184518291612abb9190612b1c565b90529392505050565b6000612acf82612a53565b51835110905092915050565b600082612aea575060006115c9565b82820282848281612af757fe5b0414612b155760405162461bcd60e51b8152600401610b5a9061502a565b9392505050565b600082820183811015612b155760405162461bcd60e51b8152600401610b5a90614eb8565b600054610a8557600080fd5b600154600160a01b900460ff16610a855760405162461bcd60e51b8152600401610b5a90615237565b6001805460ff60a01b19169055565b5190511490565b612b9461459e565b611cf4600054613ba7565b612ba761459e565b604080516020810190915260085481526124869083905b612bc661459e565b6040805160208101909152825184518291670de0b6b3a764000091612bea91612adb565b81612bf157fe5b0490529392505050565b612c0361459e565b60408051602081019091526005548152612486908390612bbe565b5190511090565b612c2d61459e565b6040805160208101909152825184518291612abb919061324d565b612c5061459e565b8151835110612c5f5781612b15565b5090919050565b612c6e61459e565b612c7661459e565b604080516020810190915284548152612c8e90612bfb565b9050612c9861459e565b612ca184613064565b604080516020810190915286548152909150612cbd9082612c25565b518086556040805160208101909152908152612ce390612cdc90612bfb565b8390612c25565b95945050505050565b6109f88363a9059cbb60e01b8484604051602401612d0b929190614ba4565b60408051601f198184030181529190526020810180516001600160e01b03166001600160e01b031990931692909217909152613c5b565b612d63846323b872dd60e01b858585604051602401612d0b93929190614c5c565b50505050565b6001805460ff60a01b1916600160a01b179055565b60005415610a8557600080fd5b612d9481612da2565b6001015415612a4a57600080fd5b600081612dae81613d40565b50506001600160a01b03166000908152600d6020526040902090565b612dd261459e565b612ddf8360030183612fec565b50612b15600f83612fec565b612df56000612a53565b5160028201556000600190910155565b519051111590565b519051101590565b612e1d61459e565b6000612e27613675565b600254604051635b97aadd60e01b81529192506001600160a01b0380841692635b97aadd92612e5a921690600401614b43565b60206040518083038186803b158015612e7257600080fd5b505afa158015612e86573d6000803e3d6000fd5b505050506040513d601f19601f82011682018060405250810190612eaa9190614a15565b91505090565b612eb861459e565b6040805160208101909152825184518291612abb91612edf90670de0b6b3a7640000612adb565b90613d77565b6000612ef085612da2565b604080516020810190915281548152909150612f0d908590612b85565b8015612f3b5750604080516020810190915260038201548152612f3b908490612f3590612bfb565b90612b85565b15612f5057612f4985613771565b5050612d63565b612f5a818461308e565b50604080516020810190915281548152612f749085612c25565b51808255604080516020808201835260135482528251908101909252918152612f9c91612e0d565b612fa557600080fd5b604080516020810190915260028201548152612fc19083612c25565b5160028201556040805160208101909152600e548152612fe19085612c25565b51600e555050505050565b612ff461459e565b612ffc61459e565b60408051602081019091528454815261301490612bfb565b905061301e61459e565b61302784613064565b6040805160208101909152865481529091506130439082612a98565b518086556040805160208101909152908152612ce390839061179f90612bfb565b61306c61459e565b60408051602081019091526005548152612486908390612eb0565b5190511190565b61309661459e565b6130a38360030183612c66565b50612b15600f83612c66565b6003546040516302abf57960e61b81526000916001600160a01b03169063aafd5e40906130fa90762334b730b731b4b0b621b7b73a3930b1ba39a0b236b4b760491b90600401614e03565b60206040518083038186803b15801561311257600080fd5b505afa158015613126573d6000803e3d6000fd5b505050506040513d601f19601f82011682018060405250810190611cf4919061476a565b613152613db9565b6001600160a01b03166368ad8ae3601154836040518363ffffffff1660e01b8152600401610acc929190614e0c565b61319761318c6131bd565b606001518290613df3565b80156131b457506131b46131a96131bd565b608001518290613dfb565b612a4a57600080fd5b6131c561460a565b600c60009054906101000a90046001600160a01b03166001600160a01b031663145701f86040518163ffffffff1660e01b815260040160c060405180830381600087803b15801561321557600080fd5b505af1158015613229573d6000803e3d6000fd5b505050506040513d601f19601f82011682018060405250810190611cf4919061487e565b6000612b1583836040518060400160405280601e81526020017f536166654d6174683a207375627472616374696f6e206f766572666c6f770000815250613e03565b6003546040516302abf57960e61b81526000916001600160a01b03169063aafd5e40906130fa906f4f7074696d69737469634f7261636c6560801b90600401614e03565b60606132dd613e2f565b6040516020016132ed9190614b0a565b604051602081830303815290604052905090565b61330961459e565b60408051602081019091526016548152611cf49061332690612bfb565b611770613e3e565b60006133b282856001600160a01b031663dd62ed3e30876040518363ffffffff1660e01b8152600401613362929190614bbd565b60206040518083038186803b15801561337a57600080fd5b505afa15801561338e573d6000803e3d6000fd5b505050506040513d601f19601f82011682018060405250810190610f3b9190614866565b9050612d638463095ea7b360e01b8584604051602401612d0b929190614ba4565b60006133df828461343a565b600181810154919250600160a01b90910460ff169081600481111561340057fe5b1180613431575061340f611060565b61341883613e5f565b111580156134315750600181600481111561342f57fe5b145b612d6357600080fd5b6001600160a01b03821660009081526015602052604081208054831080156134985750600081848154811061346b57fe5b90600052602060002090600a020160010160149054906101000a900460ff16600481111561349557fe5b14155b6134a157600080fd5b8083815481106134ad57fe5b90600052602060002090600a020191505092915050565b60006134d0828461343a565b905060026001820154600160a01b900460ff1660048111156134ee57fe5b146134f95750611f8d565b6135068160020154613ba7565b51600882015561351461459e565b60408051602080820183526008850154825282519081019092526003840154825261353f9190612bbe565b905061354961459e565b60408051602081019091526018548152613564908390612bbe565b6040805160208101909152600585015481529091506000906135869083612e0d565b905080613594576004613597565b60035b60018501805460ff60a01b1916600160a01b8360048111156135b557fe5b0217905550600184015460078501546040516001600160a01b03928316928881169233927f6c5582199868fabbe697f9ea10abe481bacf53ac78c02a965b34dff82fd20e3b9261360a9216908c908890614cd1565b60405180910390a4505050505050565b600061362582612a53565b51835114905092915050565b61363961459e565b6136438383613e7a565b905061366c6136568261179f6001612a53565b6040805160208101909152600554815290612bbe565b51600555505050565b6003546040516302abf57960e61b81526000916001600160a01b03169063aafd5e40906130fa906453746f726560d81b90600401614e03565b6136b661459e565b6136c38360030183612c66565b506136cd83613f04565b6136e95760405162461bcd60e51b8152600401610b5a906150e9565b612b15600f83612c66565b6136fc61459e565b61370461459e565b61370f610523611060565b925050506137276137206000612a53565b8290612b85565b156137355782915050612489565b61373d61459e565b61374f613748613301565b8390613e7a565b90506137696137628261179f6001612a53565b8590612bbe565b949350505050565b61377961459e565b600061378483612da2565b905061378e61459e565b6040805160208101909152600f5481526137a790612bfb565b6040805160208082018352600386015482528251908101909252600f5482529192506137d291612c25565b51600f556040805160208082018352845482528251908101909252600e5482526137fc9190612c25565b51600e556001600160a01b0384166000818152600d60205260408082208281556001810183905560028101839055600301829055517fcad20625296d189a6fc6e5b39d0d544e5bd99dbda0c8f2f0ecffef3e0fbcc2829190a26040805160208101909152600f5481526137699061387290612bfb565b8290612c25565b600061388361459e565b6040805160208101909152600f5481526138b5906138a090612bfb565b6040805160208101909152600e548152613f3a565b90506138bf61459e565b6138c98585613f3a565b90506138d58282613087565b1595945050505050565b600054156138ec57610a85565b60006138f6611060565b600a5490915060009061390a90839061324d565b9050613914613f6a565b604080516020808201835260065482528251908101909252600854825261393d9183919061425f565b5160085550600a55565b61394f61459e565b613957613301565b905061396161459e565b6040805160208101918290526002546370a0823160e01b9092529081906001600160a01b03166370a082316139993060248501614b43565b60206040518083038186803b1580156139b157600080fd5b505afa1580156139c5573d6000803e3d6000fd5b505050506040513d601f19601f820116820180604052508101906139e99190614866565b905290506139f78282612c1e565b15611f8d57613a096136568284612eb0565b516005555050565b6000613a1d828461343a565b9050613a2881613e5f565b613a30611060565b108015613a555750600180820154600160a01b900460ff166004811115613a5357fe5b145b6109f85760405162461bcd60e51b8152600401610b5a90614ff3565b613a7c81600061361a565b15613a8657611f8d565b6001600160a01b0382163014613ab9578051600254613ab4916001600160a01b039091169084903090612d42565b613aea565b613ac161459e565b613ac9613301565b9050613ad58183613087565b613ade57600080fd5b613ae88282613631565b505b80516040517f4f9bf7e8cd0f2456f9c43d2597bedcf1446c9c64544053f1ece6423ae9a07e5290600090a26000613b1f613675565b8251600254919250613b3c916001600160a01b031690839061332e565b60025460405163432ce91960e11b81526001600160a01b0383811692638659d23292613b7092909116908690600401614cb7565b600060405180830381600087803b158015613b8a57600080fd5b505af1158015613b9e573d6000803e3d6000fd5b50505050505050565b613baf61459e565b6000613bb9613db9565b6001600160a01b031663c9280f06601154856040518363ffffffff1660e01b8152600401613be8929190614e0c565b60206040518083038186803b158015613c0057600080fd5b505afa158015613c14573d6000803e3d6000fd5b505050506040513d601f19601f82011682018060405250810190613c389190614866565b90506000811215613c47575060005b604080516020810190915290815292915050565b613c6d826001600160a01b03166142e7565b613c895760405162461bcd60e51b8152600401610b5a9061526e565b60006060836001600160a01b031683604051613ca59190614b27565b6000604051808303816000865af19150503d8060008114613ce2576040519150601f19603f3d011682016040523d82523d6000602084013e613ce7565b606091505b509150915081613d095760405162461bcd60e51b8152600401610b5a90614f5e565b805115612d635780806020019051810190613d249190614846565b612d635760405162461bcd60e51b8152600401610b5a906151ed565b6001600160a01b0381166000908152600d6020908152604080832081519283019091526003015481526131b491906106fe90612bfb565b6000612b1583836040518060400160405280601a81526020017f536166654d6174683a206469766973696f6e206279207a65726f000000000000815250614320565b6003546040516302abf57960e61b81526000916001600160a01b03169063aafd5e40906130fa90654f7261636c6560d01b90600401614e03565b519051131590565b519051121590565b60008184841115613e275760405162461bcd60e51b8152600401610b5a9190614ea5565b505050900390565b6010546001600160a01b031690565b613e4661459e565b6040805160208101909152600f548152611cf490612bfb565b60006124866017548360020154612b1c90919063ffffffff16565b613e8261459e565b8251600090613e9990670de0b6b3a7640000612adb565b8351909150600090613eac908390613d77565b8451909150600090613ebf908490614357565b90508015613eeb57604080516020810190915280613ede846001612b1c565b81525093505050506115c9565b60405180602001604052808381525093505050506115c9565b60408051602081019091526003820154815260009061248690613f2690612bfb565b604080516020810190915284548152613879565b613f4261459e565b613f4d826000614399565b613f6057613f5b8383612eb0565b612b15565b612b156000612a53565b600b548015612a4a576000613f7d61328f565b6007549091506060613f8d6132d3565b6040516353b5923960e01b81529091506001600160a01b038416906353b5923990613fc090859088908690600401614e1a565b602060405180830381600087803b158015613fda57600080fd5b505af192505050801561400a575060408051601f3d908101601f1916820190925261400791810190614866565b60015b6140d057614016614658565b60405163a9904f9b60e01b81526001600160a01b0385169063a9904f9b9061404890309087908a908890600401614c80565b6101806040518083038186803b15801561406157600080fd5b505afa158015614075573d6000803e3d6000fd5b505050506040513d601f19601f8201168201806040525081019061409991906148f9565b60208101519091506001600160a01b03161515806140bf575080516001600160a01b0316155b156140ca576000600b555b50612d63565b600954808610614252576040805160208101909152829052600682905560098690556140fa61459e565b6141046000612a53565b905061410e614658565b60405163a9904f9b60e01b81526001600160a01b0388169063a9904f9b906141409030908a908d908b90600401614c80565b6101806040518083038186803b15801561415957600080fd5b505afa15801561416d573d6000803e3d6000fd5b505050506040513d601f19601f8201168201806040525081019061419191906148f9565b60208101519091506001600160a01b031661420f576141d06141b3898561324d565b6141ca6141be6131bd565b602001516106c6613301565b906143b1565b91506141dd826000612a81565b1561420f576141f3826141ee613301565b613631565b8051825160025461420f926001600160a01b0390911691612cec565b60095460065483516040517fee568d08fdf25d8d2f01948f7ba3dc157176924ef7312d148584409333f0d8cd92614247929091614e0c565b60405180910390a250505b50506000600b5550505050565b61426761459e565b61426f61459e565b61427960016143d2565b905061428361459e565b61429661428f876143f8565b8690614421565b90506142a061459e565b6142aa8383614442565b90506142b461459e565b6142cf6142ca836142c560006143d2565b614465565b61447c565b90506142db8682612bbe565b98975050505050505050565b6000813f7fc5d2460186f7233c927e7db2dcc703c0e500b653ca82273b7bfad8045d85a470818114801590613769575050151592915050565b600081836143415760405162461bcd60e51b8152600401610b5a9190614ea5565b50600083858161434d57fe5b0495945050505050565b6000612b1583836040518060400160405280601881526020017f536166654d6174683a206d6f64756c6f206279207a65726f00000000000000008152506144b9565b60006143a482612a53565b5183511115905092915050565b6143b961459e565b604080516020810190915283518190612abb9085612adb565b6143da61459e565b604080516020810190915280612a7984670de0b6b3a76400006144ed565b6000600160ff1b821061441d5760405162461bcd60e51b8152600401610b5a906151a5565b5090565b61442961459e565b604080516020810190915283518190612abb90856144ed565b61444a61459e565b6040805160208101909152825184518291612abb9190614558565b61446d61459e565b8151835113612c5f5781612b15565b61448461459e565b8151600013156144a65760405162461bcd60e51b8152600401610b5a90614f93565b5060408051602081019091529051815290565b600081836144da5760405162461bcd60e51b8152600401610b5a9190614ea5565b508284816144e457fe5b06949350505050565b6000826144fc575060006115c9565b826000191480156145105750600160ff1b82145b1561452d5760405162461bcd60e51b8152600401610b5a9061506b565b8282028284828161453a57fe5b0514612b155760405162461bcd60e51b8152600401610b5a9061506b565b600082820181831280159061456d5750838112155b80614582575060008312801561458257508381125b612b155760405162461bcd60e51b8152600401610b5a90614f1d565b6040518060200160405280600081525090565b6040518060c001604052806145c461459e565b81526020016145d161459e565b81526020016145de61459e565b81526020016145eb61459e565b81526020016145f861459e565b815260200161460561459e565b905290565b6040518060c001604052806000815260200161462461459e565b815260200161463161459e565b815260200161463e61459e565b815260200161464b61459e565b8152602001600081525090565b60405180610180016040528060006001600160a01b0316815260200160006001600160a01b0316815260200160006001600160a01b03168152602001600015158152602001600015158152602001600081526020016000815260200160008152602001600081526020016000815260200160008152602001600081525090565b80516115c9816153f1565b805180151581146115c957600080fd5b600060208284031215614704578081fd5b61470e602061539e565b9151825250919050565b600060208284031215611c8d578081fd5b60006020828403121561473a578081fd5b614744602061539e565b9135825250919050565b60006020828403121561475f578081fd5b8135612b15816153f1565b60006020828403121561477b578081fd5b8151612b15816153f1565b600080600080600060a0868803121561479d578081fd5b85356147a8816153f1565b94506147b78760208801614718565b93506147c68760408801614718565b92506147d58760608801614718565b949793965091946080013592915050565b600080604083850312156147f8578182fd5b8235614803816153f1565b91506148128460208501614729565b90509250929050565b6000806040838503121561482d578182fd5b8235614838816153f1565b946020939093013593505050565b600060208284031215614857578081fd5b81518015158114612b15578182fd5b600060208284031215614877578081fd5b5051919050565b600060c0828403121561488f578081fd5b61489960c061539e565b825181526148aa84602085016146f3565b60208201526148bc84604085016146f3565b60408201526148ce84606085016146f3565b60608201526148e084608085016146f3565b608082015260a083015160a08201528091505092915050565b600061018080838503121561490c578182fd5b6149158161539e565b905061492184846146d8565b815261493084602085016146d8565b602082015261494284604085016146d8565b604082015261495484606085016146e3565b606082015261496684608085016146e3565b608082015260a0838101519082015260c0808401519082015260e08084015190820152610100808401519082015261012080840151908201526101408084015190820152610160928301519281019290925250919050565b60008082840360408112156149d1578283fd5b60208112156149de578283fd5b506149e9602061539e565b833581529460209093013593505050565b600060208284031215614a0b578081fd5b612b158383614729565b600060208284031215614a26578081fd5b612b1583836146f3565b60008060408385031215614a42578182fd5b6148038484614729565b60008060408385031215614a5e578182fd5b614a6884846146f3565b915061481284602085016146f3565b600060208284031215614a88578081fd5b5035919050565b60008060408385031215614aa1578182fd5b823591506020830135614ab3816153f1565b809150509250929050565b6001600160a01b03169052565b60008151808452614ae38160208601602086016153c5565b601f01601f19169290920160200192915050565b60058110614b0157fe5b9052565b519052565b60609190911b6bffffffffffffffffffffffff1916815260140190565b60008251614b398184602087016153c5565b9190910192915050565b6001600160a01b0391909116815260200190565b6001600160a01b03878116825286166020820152604081018590526060810184905260c060808201819052600090614b9190830185614acb565b90508260a0830152979650505050505050565b6001600160a01b03929092168252602082015260400190565b6001600160a01b0392831681529116602082015260400190565b6001600160a01b038c811682528b166020820152610160810160058b10614bfa57fe5b8a604083015289606083015288516080830152875160a0830152865160c0830152855160e0830152614c30610100830186614abe565b614c3e610120830185614b05565b614c4c610140830184614b05565b9c9b505050505050505050505050565b6001600160a01b039384168152919092166020820152604081019190915260600190565b600060018060a01b038616825284602083015283604083015260806060830152614cad6080830184614acb565b9695505050505050565b6001600160a01b0392909216825251602082015260400190565b6001600160a01b0393909316835260208301919091521515604082015260600190565b602080825282518282018190526000919060409081850190868401855b82811015614df6578151614d26858251614abe565b86810151614d3688870182614abe565b5085810151614d4787870182614af7565b5060608181015190860152608080820151614d6482880182614b05565b505060a080820151614d7882880182614b05565b505060c080820151614d8c82880182614b05565b505060e080820151614da082880182614b05565b505061010080820151614db582880182614abe565b505061012080820151614dca82880182614b05565b50506101409081015190614de086820183614b05565b5050610160939093019290850190600101614d11565b5091979650505050505050565b90815260200190565b918252602082015260400190565b600084825283602083015260606040830152612ce36060830184614acb565b600086825285602083015260a06040830152614e5860a0830186614acb565b6001600160a01b0394909416606083015250608001529392505050565b600085825284602083015260806040830152614e946080830185614acb565b905082606083015295945050505050565b600060208252612b156020830184614acb565b6020808252601b908201527f536166654d6174683a206164646974696f6e206f766572666c6f770000000000604082015260600190565b6020808252601490820152734d696e656420616674657220646561646c696e6560601b604082015260600190565b60208082526021908201527f5369676e6564536166654d6174683a206164646974696f6e206f766572666c6f6040820152607760f81b606082015260800190565b6020808252818101527f5361666545524332303a206c6f772d6c6576656c2063616c6c206661696c6564604082015260600190565b602080825260179082015276139959d85d1a5d99481d985b1d59481c1c9bdd9a591959604a1b604082015260600190565b602080825260159082015274496e76616c69642070726f706f73616c2074696d6560581b604082015260600190565b6020808252601a908201527f4c69717569646174696f6e206e6f742064697370757461626c65000000000000604082015260600190565b60208082526021908201527f536166654d6174683a206d756c7469706c69636174696f6e206f766572666c6f6040820152607760f81b606082015260800190565b60208082526027908201527f5369676e6564536166654d6174683a206d756c7469706c69636174696f6e206f604082015266766572666c6f7760c81b606082015260800190565b6020808252601e908201527f4352206973206d6f7265207468616e206d6178206c69712e2070726963650000604082015260600190565b6020808252600c908201526b21a9103132b637bb9023a1a960a11b604082015260600190565b602080825260179082015276125b9cdd59999a58da595b9d0818dbdb1b185d195c985b604a1b604082015260600190565b60208082526014908201527350726f706f73616c20696e2070726f677265737360601b604082015260600190565b6020808252601e908201527f4352206973206c657373207468616e206d696e206c69712e2070726963650000604082015260600190565b60208082526028908201527f53616665436173743a2076616c756520646f65736e27742066697420696e2061604082015267371034b73a191a9b60c11b606082015260800190565b6020808252602a908201527f5361666545524332303a204552433230206f7065726174696f6e20646964206e6040820152691bdd081cdd58d8d9595960b21b606082015260800190565b6020808252601f908201527f5265656e7472616e637947756172643a207265656e7472616e742063616c6c00604082015260600190565b6020808252601f908201527f5361666545524332303a2063616c6c20746f206e6f6e2d636f6e747261637400604082015260600190565b600060c0820190508251518252602083015151602083015260408301515160408301526060830151516060830152608083015151608083015260a08301515160a083015292915050565b955186526020860194909452915160408501526060840152608083015260a082015260c00190565b9051815260200190565b925183529051602083015251604082015260600190565b93518452602084019290925251604083015251606082015260800190565b9283529051602083015251604082015260600190565b928352602083019190915251604082015260600190565b93845260208401929092526040830152606082015260800190565b60405181810167ffffffffffffffff811182821017156153bd57600080fd5b604052919050565b60005b838110156153e05781810151838201526020016153c8565b83811115612d635750506000910152565b6001600160a01b0381168114612a4a57600080fdfea2646970667358221220c0ebe5b447d6bb042961ffe339e4fb67ec0b3f150f7ff64761394f4e52c199c864736f6c634300060c0033",
  "immutableReferences": {},
  "source": "// SPDX-License-Identifier: AGPL-3.0-only\npragma solidity ^0.6.0;\npragma experimental ABIEncoderV2;\n\nimport \"./PerpetualLiquidatable.sol\";\n\n/**\n * @title Perpetual Multiparty Contract.\n * @notice Convenient wrapper for Liquidatable.\n */\ncontract Perpetual is PerpetualLiquidatable {\n    /**\n     * @notice Constructs the Perpetual contract.\n     * @param params struct to define input parameters for construction of Liquidatable. Some params\n     * are fed directly into the PositionManager's constructor within the inheritance tree.\n     */\n    constructor(ConstructorParams memory params)\n        public\n        PerpetualLiquidatable(params)\n    // Note: since there is no logic here, there is no need to add a re-entrancy guard.\n    {\n\n    }\n}\n",
  "sourcePath": "/Users/nicholaspai/UMA/protocol/packages/core/contracts/financial-templates/perpetual-multiparty/Perpetual.sol",
  "compiler": {
    "name": "solc",
    "version": "0.6.12+commit.27d51765.Emscripten.clang"
  },
  "schemaVersion": "3.3.4",
  "updatedAt": "2021-03-12T19:20:01.603Z",
  "devdoc": {
    "kind": "dev",
    "methods": {
      "constructor": {
        "params": {
          "params": "struct to define input parameters for construction of Liquidatable. Some params are fed directly into the PositionManager's constructor within the inheritance tree."
        }
      },
      "create((uint256),(uint256))": {
        "details": "This contract must have the Minter role for the `tokenCurrency`.Reverts if minting these tokens would put the position's collateralization ratio below the global collateralization ratio. This contract must be approved to spend at least `collateralAmount` of `collateralCurrency`.",
        "params": {
          "collateralAmount": "is the number of collateral tokens to collateralize the position with",
          "numTokens": "is the number of tokens to mint from the position."
        }
      },
      "createLiquidation(address,(uint256),(uint256),(uint256),uint256)": {
        "details": "This method generates an ID that will uniquely identify liquidation for the sponsor. This contract must be approved to spend at least `tokensLiquidated` of `tokenCurrency` and at least `finalFeeBond` of `collateralCurrency`.This contract must have the Burner role for the `tokenCurrency`.",
        "params": {
          "deadline": "abort the liquidation if the transaction is mined after this timestamp.",
          "maxCollateralPerToken": "abort the liquidation if the position's collateral per token exceeds this value.",
          "maxTokensToLiquidate": "max number of tokens to liquidate.",
          "minCollateralPerToken": "abort the liquidation if the position's collateral per token is below this value.",
          "sponsor": "address of the sponsor to liquidate."
        },
        "returns": {
          "finalFeeBond": "amount of collateral to be posted by liquidator and returned if not disputed successfully.",
          "liquidationId": "ID of the newly created liquidation.",
          "tokensLiquidated": "amount of synthetic tokens removed and liquidated from the `sponsor`'s position."
        }
      },
      "deposit((uint256))": {
        "details": "Increases the collateralization level of a position after creation. This contract must be approved to spend at least `collateralAmount` of `collateralCurrency`.",
        "params": {
          "collateralAmount": "total amount of collateral tokens to be sent to the sponsor's position."
        }
      },
      "depositTo(address,(uint256))": {
        "details": "Increases the collateralization level of a position after creation. This contract must be approved to spend at least `collateralAmount` of `collateralCurrency`.",
        "params": {
          "collateralAmount": "total amount of collateral tokens to be sent to the sponsor's position.",
          "sponsor": "the sponsor to credit the deposit to."
        }
      },
      "dispute(uint256,address)": {
        "details": "Can only dispute a liquidation before the liquidation expires and if there are no other pending disputes. This contract must be approved to spend at least the dispute bond amount of `collateralCurrency`. This dispute bond amount is calculated from `disputeBondPercentage` times the collateral in the liquidation.",
        "params": {
          "liquidationId": "of the disputed liquidation.",
          "sponsor": "the address of the sponsor whose liquidation is being disputed."
        },
        "returns": {
          "totalPaid": "amount of collateral charged to disputer (i.e. final fee bond + dispute bond)."
        }
      },
      "emergencyShutdown()": {
        "details": "Only the governor can call this function as they are permissioned within the `FinancialContractAdmin`. Upon emergency shutdown, the contract settlement time is set to the shutdown time. This enables withdrawal to occur via the `settleEmergencyShutdown` function."
      },
      "getCollateral(address)": {
        "details": "This is necessary because the struct returned by the positions() method shows rawCollateral, which isn't a user-readable value.This method accounts for pending regular fees that have not yet been withdrawn from this contract, for example if the `lastPaymentTime != currentTime`.",
        "params": {
          "sponsor": "address whose collateral amount is retrieved."
        },
        "returns": {
          "collateralAmount": "amount of collateral within a sponsors position."
        }
      },
      "getCurrentTime()": {
        "returns": {
          "_0": "uint for the current Testable timestamp."
        }
      },
      "getLiquidations(address)": {
        "params": {
          "sponsor": "address of the position sponsor."
        },
        "returns": {
          "liquidationData": "array of all liquidation information for the given sponsor address."
        }
      },
      "getOutstandingRegularFees(uint256)": {
        "details": "This returns 0 and exit early if there is no pfc, fees were already paid during the current block, or the fee rate is 0.",
        "returns": {
          "latePenalty": "outstanding unpaid late fee for being late in previous fee payments.",
          "regularFee": "outstanding unpaid regular fee.",
          "totalPaid": "Amount of collateral that the contract paid (sum of the amount paid to the Store and caller)."
        }
      },
      "gulp()": {
        "details": "Multiplying the `cumulativeFeeMultiplier` by the ratio of non-PfC-collateral :: PfC-collateral effectively pays all sponsors a pro-rata portion of the excess collateral.This will revert if PfC is 0 and this contract's collateral balance > 0."
      },
      "payRegularFees()": {
        "details": "These must be paid periodically for the life of the contract. If the contract has not paid its regular fee in a week or more then a late penalty is applied which is sent to the caller. If the amount of fees owed are greater than the pfc, then this will pay as much as possible from the available collateral. An event is only fired if the fees charged are greater than 0.",
        "returns": {
          "_0": "totalPaid Amount of collateral that the contract paid (sum of the amount paid to the Store and caller). This returns 0 and exit early if there is no pfc, fees were already paid during the current block, or the fee rate is 0."
        }
      },
      "pfc()": {
        "details": "This is equivalent to the collateral pool available from which to pay fees. Therefore, derived contracts are expected to implement this so that pay-fee methods can correctly compute the owed fees as a % of PfC.",
        "returns": {
          "_0": "pfc value for equal to the current profit from corruption denominated in collateral currency."
        }
      },
      "proposeFundingRate((int256),uint256)": {
        "params": {
          "rate": "funding rate being proposed.",
          "timestamp": "time at which the funding rate was computed."
        }
      },
      "redeem((uint256))": {
        "details": "Can only be called by a token sponsor. Might not redeem the full proportional amount of collateral in order to account for precision loss. This contract must be approved to spend at least `numTokens` of `tokenCurrency`.This contract must have the Burner role for the `tokenCurrency`.",
        "params": {
          "numTokens": "is the number of tokens to be burnt for a commensurate amount of collateral."
        },
        "returns": {
          "amountWithdrawn": "The actual amount of collateral withdrawn."
        }
      },
      "remargin()": {
        "details": "This is supposed to be implemented by any contract that inherits `AdministrateeInterface` and callable only by the Governor contract. This method is therefore minimally implemented in this contract and does nothing."
      },
      "repay((uint256))": {
        "details": "Can only be called by token sponsor. This contract must be approved to spend `numTokens` of `tokenCurrency`.This contract must have the Burner role for the `tokenCurrency`.",
        "params": {
          "numTokens": "is the number of tokens to be burnt from the sponsor's debt position."
        }
      },
      "requestWithdrawal((uint256))": {
        "details": "The request will be pending for `withdrawalLiveness`, during which the position can be liquidated.",
        "params": {
          "collateralAmount": "the amount of collateral requested to withdraw"
        }
      },
      "setCurrentTime(uint256)": {
        "details": "Will revert if not running in test mode.",
        "params": {
          "time": "timestamp to set current Testable time to."
        }
      },
      "settleEmergencyShutdown()": {
        "details": "This burns all tokens from the caller of `tokenCurrency` and sends back the resolved settlement value of `collateralCurrency`. Might not redeem the full proportional amount of collateral in order to account for precision loss. This contract must be approved to spend `tokenCurrency` at least up to the caller's full balance.This contract must have the Burner role for the `tokenCurrency`.Note that this function does not call the updateFundingRate modifier to update the funding rate as this function is only called after an emergency shutdown & there should be no funding rate updates after the shutdown.",
        "returns": {
          "amountWithdrawn": "The actual amount of collateral withdrawn."
        }
      },
      "totalPositionCollateral()": {
        "returns": {
          "totalCollateral": "amount of all collateral within the position manager."
        }
      },
      "withdraw((uint256))": {
        "details": "Reverts if the withdrawal puts this position's collateralization ratio below the global collateralization ratio. In that case, use `requestWithdrawal`. Might not withdraw the full requested amount to account for precision loss.",
        "params": {
          "collateralAmount": "is the amount of collateral to withdraw."
        },
        "returns": {
          "amountWithdrawn": "The actual amount of collateral withdrawn."
        }
      },
      "withdrawLiquidation(uint256,address)": {
        "details": "If the dispute SUCCEEDED: the sponsor, liquidator, and disputer are eligible for payment. If the dispute FAILED: only the liquidator receives payment. This method deletes the liquidation data. This method will revert if rewards have already been dispersed.",
        "params": {
          "liquidationId": "uniquely identifies the sponsor's liquidation.",
          "sponsor": "address of the sponsor associated with the liquidation."
        },
        "returns": {
          "_0": "data about rewards paid out."
        }
      },
      "withdrawPassedRequest()": {
        "details": "Might not withdraw the full requested amount in order to account for precision loss or if the full requested amount exceeds the collateral in the position (due to paying fees).",
        "returns": {
          "amountWithdrawn": "The actual amount of collateral withdrawn."
        }
      }
    },
    "title": "Perpetual Multiparty Contract.",
    "version": 1
  },
  "userdoc": {
    "kind": "user",
    "methods": {
      "applyFundingRate()": {
        "notice": "This method takes 3 distinct actions: 1. Pays out regular fees. 2. If possible, resolves the outstanding funding rate proposal, pulling the result in and paying out the rewards. 3. Applies the prevailing funding rate over the most recent period."
      },
      "cancelWithdrawal()": {
        "notice": "Cancels a pending withdrawal request."
      },
      "constructor": "Constructs the Perpetual contract.",
      "create((uint256),(uint256))": {
        "notice": "Creates tokens by creating a new position or by augmenting an existing position. Pulls `collateralAmount ` into the sponsor's position and mints `numTokens` of `tokenCurrency`."
      },
      "createLiquidation(address,(uint256),(uint256),(uint256),uint256)": {
        "notice": "Liquidates the sponsor's position if the caller has enough synthetic tokens to retire the position's outstanding tokens. Liquidations above a minimum size also reset an ongoing \"slow withdrawal\"'s liveness."
      },
      "deposit((uint256))": {
        "notice": "Transfers `collateralAmount` of `collateralCurrency` into the caller's position."
      },
      "depositTo(address,(uint256))": {
        "notice": "Transfers `collateralAmount` of `collateralCurrency` into the specified sponsor's position."
      },
      "dispute(uint256,address)": {
        "notice": "Disputes a liquidation, if the caller has enough collateral to post a dispute bond and pay a fixed final fee charged on each price request."
      },
      "emergencyShutdown()": {
        "notice": "Premature contract settlement under emergency circumstances."
      },
      "getCollateral(address)": {
        "notice": "Accessor method for a sponsor's collateral."
      },
      "getCurrentTime()": {
        "notice": "Gets the current time. Will return the last time set in `setCurrentTime` if running in test mode. Otherwise, it will return the block timestamp."
      },
      "getLiquidations(address)": {
        "notice": "Gets all liquidation information for a given sponsor address."
      },
      "getOutstandingRegularFees(uint256)": {
        "notice": "Fetch any regular fees that the contract has pending but has not yet paid. If the fees to be paid are more than the total collateral within the contract then the totalPaid returned is full contract collateral amount."
      },
      "gulp()": {
        "notice": "Removes excess collateral balance not counted in the PfC by distributing it out pro-rata to all sponsors."
      },
      "payRegularFees()": {
        "notice": "Pays UMA DVM regular fees (as a % of the collateral pool) to the Store contract."
      },
      "pfc()": {
        "notice": "Gets the current profit from corruption for this contract in terms of the collateral currency."
      },
      "proposeFundingRate((int256),uint256)": {
        "notice": "Proposes a new funding rate. Proposer receives a reward if correct."
      },
      "redeem((uint256))": {
        "notice": "Burns `numTokens` of `tokenCurrency` and sends back the proportional amount of `collateralCurrency`."
      },
      "remargin()": {
        "notice": "Theoretically supposed to pay fees and move money between margin accounts to make sure they reflect the NAV of the contract. However, this functionality doesn't apply to this contract."
      },
      "repay((uint256))": {
        "notice": "Burns `numTokens` of `tokenCurrency` to decrease sponsors position size, without sending back `collateralCurrency`. This is done by a sponsor to increase position CR. Resulting size is bounded by minSponsorTokens."
      },
      "requestWithdrawal((uint256))": {
        "notice": "Starts a withdrawal request that, if passed, allows the sponsor to withdraw from their position."
      },
      "setCurrentTime(uint256)": {
        "notice": "Sets the current time."
      },
      "settleEmergencyShutdown()": {
        "notice": "If the contract is emergency shutdown then all token holders and sponsors can redeem their tokens or remaining collateral for underlying at the prevailing price defined by a DVM vote."
      },
      "totalPositionCollateral()": {
        "notice": "Accessor method for the total collateral stored within the PerpetualPositionManager."
      },
      "withdraw((uint256))": {
        "notice": "Transfers `collateralAmount` of `collateralCurrency` from the sponsor's position to the sponsor."
      },
      "withdrawLiquidation(uint256,address)": {
        "notice": "After a dispute has settled or after a non-disputed liquidation has expired, anyone can call this method to disperse payments to the sponsor, liquidator, and disputer."
      },
      "withdrawPassedRequest()": {
        "notice": "After a passed withdrawal request (i.e., by a call to `requestWithdrawal` and waiting `withdrawalLiveness`), withdraws `positionData.withdrawalRequestAmount` of collateral currency."
      }
    },
    "notice": "Convenient wrapper for Liquidatable.",
    "version": 1
  }
}