{
  "contractName": "PerpetualCreator",
  "abi": [
    {
      "inputs": [
        {
          "internalType": "address",
          "name": "_finderAddress",
          "type": "address"
        },
        {
          "internalType": "address",
          "name": "_tokenFactoryAddress",
          "type": "address"
        },
        {
          "internalType": "address",
          "name": "_timerAddress",
          "type": "address"
        }
      ],
      "stateMutability": "nonpayable",
      "type": "constructor"
    },
    {
      "anonymous": false,
      "inputs": [
        {
          "indexed": true,
          "internalType": "address",
          "name": "configStoreAddress",
          "type": "address"
        },
        {
          "indexed": true,
          "internalType": "address",
          "name": "ownerAddress",
          "type": "address"
        }
      ],
      "name": "CreatedConfigStore",
      "type": "event"
    },
    {
      "anonymous": false,
      "inputs": [
        {
          "indexed": true,
          "internalType": "address",
          "name": "perpetualAddress",
          "type": "address"
        },
        {
          "indexed": true,
          "internalType": "address",
          "name": "deployerAddress",
          "type": "address"
        }
      ],
      "name": "CreatedPerpetual",
      "type": "event"
    },
    {
      "inputs": [],
      "name": "getCurrentTime",
      "outputs": [
        {
          "internalType": "uint256",
          "name": "",
          "type": "uint256"
        }
      ],
      "stateMutability": "view",
      "type": "function",
      "constant": true
    },
    {
      "inputs": [
        {
          "internalType": "uint256",
          "name": "time",
          "type": "uint256"
        }
      ],
      "name": "setCurrentTime",
      "outputs": [],
      "stateMutability": "nonpayable",
      "type": "function"
    },
    {
      "inputs": [],
      "name": "timerAddress",
      "outputs": [
        {
          "internalType": "address",
          "name": "",
          "type": "address"
        }
      ],
      "stateMutability": "view",
      "type": "function",
      "constant": true
    },
    {
      "inputs": [],
      "name": "tokenFactoryAddress",
      "outputs": [
        {
          "internalType": "address",
          "name": "",
          "type": "address"
        }
      ],
      "stateMutability": "view",
      "type": "function",
      "constant": true
    },
    {
      "inputs": [
        {
          "components": [
            {
              "internalType": "address",
              "name": "collateralAddress",
              "type": "address"
            },
            {
              "internalType": "bytes32",
              "name": "priceFeedIdentifier",
              "type": "bytes32"
            },
            {
              "internalType": "bytes32",
              "name": "fundingRateIdentifier",
              "type": "bytes32"
            },
            {
              "internalType": "string",
              "name": "syntheticName",
              "type": "string"
            },
            {
              "internalType": "string",
              "name": "syntheticSymbol",
              "type": "string"
            },
            {
              "components": [
                {
                  "internalType": "uint256",
                  "name": "rawValue",
                  "type": "uint256"
                }
              ],
              "internalType": "struct FixedPoint.Unsigned",
              "name": "collateralRequirement",
              "type": "tuple"
            },
            {
              "components": [
                {
                  "internalType": "uint256",
                  "name": "rawValue",
                  "type": "uint256"
                }
              ],
              "internalType": "struct FixedPoint.Unsigned",
              "name": "disputeBondPercentage",
              "type": "tuple"
            },
            {
              "components": [
                {
                  "internalType": "uint256",
                  "name": "rawValue",
                  "type": "uint256"
                }
              ],
              "internalType": "struct FixedPoint.Unsigned",
              "name": "sponsorDisputeRewardPercentage",
              "type": "tuple"
            },
            {
              "components": [
                {
                  "internalType": "uint256",
                  "name": "rawValue",
                  "type": "uint256"
                }
              ],
              "internalType": "struct FixedPoint.Unsigned",
              "name": "disputerDisputeRewardPercentage",
              "type": "tuple"
            },
            {
              "components": [
                {
                  "internalType": "uint256",
                  "name": "rawValue",
                  "type": "uint256"
                }
              ],
              "internalType": "struct FixedPoint.Unsigned",
              "name": "minSponsorTokens",
              "type": "tuple"
            },
            {
              "components": [
                {
                  "internalType": "uint256",
                  "name": "rawValue",
                  "type": "uint256"
                }
              ],
              "internalType": "struct FixedPoint.Unsigned",
              "name": "tokenScaling",
              "type": "tuple"
            },
            {
              "internalType": "uint256",
              "name": "withdrawalLiveness",
              "type": "uint256"
            },
            {
              "internalType": "uint256",
              "name": "liquidationLiveness",
              "type": "uint256"
            }
          ],
          "internalType": "struct PerpetualCreator.Params",
          "name": "params",
          "type": "tuple"
        },
        {
          "components": [
            {
              "internalType": "uint256",
              "name": "timelockLiveness",
              "type": "uint256"
            },
            {
              "components": [
                {
                  "internalType": "uint256",
                  "name": "rawValue",
                  "type": "uint256"
                }
              ],
              "internalType": "struct FixedPoint.Unsigned",
              "name": "rewardRatePerSecond",
              "type": "tuple"
            },
            {
              "components": [
                {
                  "internalType": "uint256",
                  "name": "rawValue",
                  "type": "uint256"
                }
              ],
              "internalType": "struct FixedPoint.Unsigned",
              "name": "proposerBondPercentage",
              "type": "tuple"
            },
            {
              "components": [
                {
                  "internalType": "int256",
                  "name": "rawValue",
                  "type": "int256"
                }
              ],
              "internalType": "struct FixedPoint.Signed",
              "name": "maxFundingRate",
              "type": "tuple"
            },
            {
              "components": [
                {
                  "internalType": "int256",
                  "name": "rawValue",
                  "type": "int256"
                }
              ],
              "internalType": "struct FixedPoint.Signed",
              "name": "minFundingRate",
              "type": "tuple"
            },
            {
              "internalType": "uint256",
              "name": "proposalTimePastLimit",
              "type": "uint256"
            }
          ],
          "internalType": "struct ConfigStoreInterface.ConfigSettings",
          "name": "configSettings",
          "type": "tuple"
        }
      ],
      "name": "createPerpetual",
      "outputs": [
        {
          "internalType": "address",
          "name": "",
          "type": "address"
        }
      ],
      "stateMutability": "nonpayable",
      "type": "function"
    },
    {
      "inputs": [
        {
          "internalType": "address",
          "name": "_collateralAddress",
          "type": "address"
        }
      ],
      "name": "_getSyntheticDecimals",
      "outputs": [
        {
          "internalType": "uint8",
          "name": "decimals",
          "type": "uint8"
        }
      ],
      "stateMutability": "view",
      "type": "function",
      "constant": true
    }
  ],
  "bytecode": "0x60806040523480156200001157600080fd5b506040516200299f3803806200299f83398101604081905262000034916200010f565b600080546001600160a01b038086166001600160a01b0319928316179092556001805460ff60a01b1993851692169190911791909116600160a01b1790556200007c620000b4565b62000086620000eb565b600280546001600160a01b0319166001600160a01b038416179055620000ab620000fa565b505050620001b2565b600154600160a01b900460ff16620000e95760405162461bcd60e51b8152600401620000e09062000162565b60405180910390fd5b565b6001805460ff60a01b19169055565b6001805460ff60a01b1916600160a01b179055565b60008060006060848603121562000124578283fd5b8351620001318162000199565b6020850151909350620001448162000199565b6040850151909250620001578162000199565b809150509250925092565b6020808252601f908201527f5265656e7472616e637947756172643a207265656e7472616e742063616c6c00604082015260600190565b6001600160a01b0381168114620001af57600080fd5b50565b6127dd80620001c26000396000f3fe60806040523480156200001157600080fd5b50600436106200006a5760003560e01c80631c39c38d146200006f57806322934b2e146200009157806322f8e56614620000a857806329cb924d14620000c15780634ead6e5114620000da578063be19f0a71462000100575b600080fd5b620000796200010a565b604051620000889190620010b9565b60405180910390f35b62000079620000a236600462000e90565b62000119565b620000bf620000b936600462001004565b620005c9565b005b620000cb62000648565b6040516200008891906200112c565b620000f1620000eb36600462000e29565b620006f5565b604051620000889190620014c2565b620000796200077a565b6001546001600160a01b031681565b60006200012562000789565b6200012f620007b7565b6060830151516200015d5760405162461bcd60e51b8152600401620001549062001283565b60405180910390fd5b608083015151620001825760405162461bcd60e51b81526004016200015490620011e0565b60015460405160009184916001600160a01b0390911690620001a49062000c3a565b620001b19291906200134f565b604051809103906000f080158015620001ce573d6000803e3d6000fd5b5060405163f2fde38b60e01b81529091506001600160a01b0382169063f2fde38b9062000200903390600401620010b9565b600060405180830381600087803b1580156200021b57600080fd5b505af115801562000230573d6000803e3d6000fd5b50505050806001600160a01b0316638da5cb5b6040518163ffffffff1660e01b815260040160206040518083038186803b1580156200026e57600080fd5b505afa15801562000283573d6000803e3d6000fd5b505050506040513d601f19601f82011682018060405250810190620002a9919062000e4f565b6001600160a01b0316816001600160a01b03167f23d45bf4c833a71e3d850a2349ce5f05b911128e2c57e7b4f6204adabd6cf06860405160405180910390a360025484516001600160a01b03909116906000906200030790620006f5565b6060870151608088015160405163e8a0aed360e01b81529293506000926001600160a01b0386169263e8a0aed3926200034592879060040162001135565b602060405180830381600087803b1580156200036057600080fd5b505af115801562000375573d6000803e3d6000fd5b505050506040513d601f19601f820116820180604052508101906200039b919062000e4f565b9050600073__PerpetualLib__________________________634048d03b620003c68a8589620007c6565b6040518263ffffffff1660e01b8152600401620003e49190620013a0565b60206040518083038186803b158015620003fd57600080fd5b505af415801562000412573d6000803e3d6000fd5b505050506040513d601f19601f8201168201806040525081019062000438919062000e4f565b604051634c1d96ab60e11b81529091506001600160a01b0383169063983b2d569062000469908490600401620010b9565b600060405180830381600087803b1580156200048457600080fd5b505af115801562000499573d6000803e3d6000fd5b5050604051637a231bdd60e11b81526001600160a01b038516925063f44637ba9150620004cb908490600401620010b9565b600060405180830381600087803b158015620004e657600080fd5b505af1158015620004fb573d6000803e3d6000fd5b50506040516339e6401560e11b81526001600160a01b03851692506373cc802a91506200052d908490600401620010b9565b600060405180830381600087803b1580156200054857600080fd5b505af11580156200055d573d6000803e3d6000fd5b50506040805160008152602081019091526200057d9250905082620009cc565b60405133906001600160a01b038316907f0973ec8400460054364cff2a05dda9a23216bde72cfcad508b1d5251f780d6dd90600090a3945050505050620005c362000ace565b92915050565b6001546001600160a01b0316620005df57600080fd5b60015460405163117c72b360e11b81526001600160a01b03909116906322f8e56690620006119084906004016200112c565b600060405180830381600087803b1580156200062c57600080fd5b505af115801562000641573d6000803e3d6000fd5b5050505050565b6001546000906001600160a01b031615620006ef57600160009054906101000a90046001600160a01b03166001600160a01b03166329cb924d6040518163ffffffff1660e01b815260040160206040518083038186803b158015620006ac57600080fd5b505afa158015620006c1573d6000803e3d6000fd5b505050506040513d601f19601f82011682018060405250810190620006e791906200101d565b9050620006f2565b50425b90565b6000816001600160a01b031663313ce5676040518163ffffffff1660e01b815260040160206040518083038186803b1580156200073157600080fd5b505afa92505050801562000764575060408051601f3d908101601f19168201909252620007619181019062001036565b60015b620007725750601262000775565b90505b919050565b6002546001600160a01b031681565b600154600160a01b900460ff16620007b55760405162461bcd60e51b8152600401620001549062001318565b565b6001805460ff60a01b19169055565b620007d062000c48565b6000546001600160a01b0390811660808301526001541660a0820152610160840151620008115760405162461bcd60e51b815260040162000154906200124c565b610180840151620008365760405162461bcd60e51b8152600401620001549062001217565b8351620008439062000ae3565b63bb744800846101600151106200086e5760405162461bcd60e51b81526004016200015490620012e1565b63bb74480084610180015110620008995760405162461bcd60e51b81526004016200015490620011a9565b620008a362000cef565b5060408051602081019091526305f5e1008152620008c062000cef565b5060408051602081019091526b204fce5e3e250261100000008152610140860151620008ed908362000c2c565b801562000907575061014086015162000907908262000c33565b620009265760405162461bcd60e51b81526004016200015490620012b3565b50506001600160a01b03918216602080830191909152928216606082015283519091166040808301919091529183015160c0808301919091529183015160e08083019190915260a0840151610160808401919091529284015161018080840191909152908401516101a0830152610100808501516101c0840152610120808601519184019190915292840151825283015161014080830191909152909201519082015290565b600080546040516302abf57960e61b81526001600160a01b039091169190829063aafd5e409062000a0d9067526567697374727960c01b906004016200112c565b60206040518083038186803b15801562000a2657600080fd5b505afa15801562000a3b573d6000803e3d6000fd5b505050506040513d601f19601f8201168201806040525081019062000a61919062000e4f565b60405163066c8c2560e41b81529091506001600160a01b038216906366c8c2509062000a949087908790600401620010cd565b600060405180830381600087803b15801562000aaf57600080fd5b505af115801562000ac4573d6000803e3d6000fd5b5050505050505050565b6001805460ff60a01b1916600160a01b179055565b600080546040516302abf57960e61b81526001600160a01b039091169190829063aafd5e409062000b2f907210dbdb1b185d195c985b15da1a5d195b1a5cdd606a1b906004016200112c565b60206040518083038186803b15801562000b4857600080fd5b505afa15801562000b5d573d6000803e3d6000fd5b505050506040513d601f19601f8201168201806040525081019062000b83919062000e4f565b604051631d1d5b3960e11b81529091506001600160a01b03821690633a3ab6729062000bb4908690600401620010b9565b60206040518083038186803b15801562000bcd57600080fd5b505afa15801562000be2573d6000803e3d6000fd5b505050506040513d601f19601f8201168201806040525081019062000c08919062000e6e565b62000c275760405162461bcd60e51b8152600401620001549062001172565b505050565b5190511190565b5190511090565b611296806200151283390190565b604080516101e081018252600080825260208201819052918101829052606081018290526080810182905260a0810182905260c0810182905260e0810191909152610100810162000c9862000cef565b815260200162000ca762000cef565b81526020016000815260200162000cbd62000cef565b815260200162000ccc62000cef565b815260200162000cdb62000cef565b815260200162000cea62000cef565b905290565b6040518060200160405280600081525090565b8035620005c381620014f8565b600082601f83011262000d20578081fd5b813567ffffffffffffffff81111562000d37578182fd5b62000d4c601f8201601f1916602001620014d0565b915080825283602082850101111562000d6457600080fd5b8060208401602084013760009082016020015292915050565b600060c0828403121562000d8f578081fd5b62000d9b60c0620014d0565b90508135815262000db0836020840162000e01565b602082015262000dc4836040840162000e01565b604082015262000dd8836060840162000e01565b606082015262000dec836080840162000e01565b608082015260a082013560a082015292915050565b60006020828403121562000e13578081fd5b62000e1f6020620014d0565b9135825250919050565b60006020828403121562000e3b578081fd5b813562000e4881620014f8565b9392505050565b60006020828403121562000e61578081fd5b815162000e4881620014f8565b60006020828403121562000e80578081fd5b8151801515811462000e48578182fd5b60008060e0838503121562000ea3578081fd5b823567ffffffffffffffff8082111562000ebb578283fd5b81850191506101a080838803121562000ed2578384fd5b62000edd81620014d0565b905062000eeb878462000d02565b8152602083013560208201526040830135604082015260608301358281111562000f13578485fd5b62000f218882860162000d0f565b60608301525060808301358281111562000f39578485fd5b62000f478882860162000d0f565b60808301525062000f5c8760a0850162000e01565b60a082015262000f708760c0850162000e01565b60c082015262000f848760e0850162000e01565b60e0820152610100915062000f9c8783850162000e01565b82820152610120915062000fb38783850162000e01565b82820152610140915062000fca8783850162000e01565b9181019190915261016082810135908201526101809182013591810191909152915062000ffb846020850162000d7d565b90509250929050565b60006020828403121562001016578081fd5b5035919050565b6000602082840312156200102f578081fd5b5051919050565b60006020828403121562001048578081fd5b815160ff8116811462000e48578182fd5b6001600160a01b03169052565b60008151808452815b818110156200108d576020818501810151868301820152016200106f565b818111156200109f5782602083870101525b50601f01601f19169290920160200192915050565b519052565b6001600160a01b0391909116815260200190565b604080825283519082018190526000906020906060840190828701845b82811015620011115781516001600160a01b031684529284019290840190600101620010ea565b5050506001600160a01b039490941692019190915250919050565b90815260200190565b6000606082526200114a606083018662001066565b82810360208401526200115e818662001066565b91505060ff83166040830152949350505050565b6020808252601a908201527f436f6c6c61746572616c206e6f742077686974656c6973746564000000000000604082015260600190565b6020808252601e908201527f4c69717569646174696f6e206c6976656e65737320746f6f206c617267650000604082015260600190565b60208082526018908201527f4d697373696e672073796e7468657469632073796d626f6c0000000000000000604082015260600190565b6020808252818101527f4c69717569646174696f6e206c6976656e6573732063616e6e6f742062652030604082015260600190565b6020808252601f908201527f5769746864726177616c206c6976656e6573732063616e6e6f74206265203000604082015260600190565b6020808252601690820152754d697373696e672073796e746865746963206e616d6560501b604082015260600190565b602080825260149082015273496e76616c696420746f6b656e5363616c696e6760601b604082015260600190565b6020808252601d908201527f5769746864726177616c206c6976656e65737320746f6f206c61726765000000604082015260600190565b6020808252601f908201527f5265656e7472616e637947756172643a207265656e7472616e742063616c6c00604082015260600190565b82518152602080840151519082015260408084015151908201526060808401515190820152608080840151519082015260a092830151928101929092526001600160a01b031660c082015260e00190565b815181526020808301516101e0830191620013be9084018262001059565b506040830151620013d3604084018262001059565b506060830151620013e8606084018262001059565b506080830151620013fd608084018262001059565b5060a08301516200141260a084018262001059565b5060c083015160c083015260e083015160e0830152610100808401516200143c82850182620010b4565b5050610120808401516200145382850182620010b4565b50506101408381015190830152610160808401516200147582850182620010b4565b5050610180808401516200148c82850182620010b4565b50506101a080840151620014a382850182620010b4565b50506101c080840151620014ba82850182620010b4565b505092915050565b60ff91909116815260200190565b60405181810167ffffffffffffffff81118282101715620014f057600080fd5b604052919050565b6001600160a01b03811681146200150e57600080fd5b5056fe60806040523480156200001157600080fd5b506040516200129638038062001296833981016040819052620000349162000348565b60008054600160a01b6001600160a01b03199091166001600160a01b0384161760ff60a01b191617815562000068620000f8565b600180546001600160a01b0319166001600160a01b038316908117909155604051919250906000907f8be0079c531659141344cd1fd0a4f28419497f9722a3daafe3b4186f6b6457e0908290a350620000c182620000fc565b50805160025560208101515160035560408101515160045560608101515160055560808101515160065560a0015160075562000529565b3390565b805162093a801080159062000115575080516201518011155b6200013d5760405162461bcd60e51b8152600401620001349062000453565b60405180910390fd5b620001476200030d565b6200017a62989680620001666021620001bd60201b620005ed1760201c565b620001fc60201b6200061b1790919060201c565b90506200019a8183602001516200023a60201b620006471790919060201c565b620001b95760405162461bcd60e51b81526004016200013490620004cb565b5050565b620001c76200030d565b6040518060200160405280620001f4670de0b6b3a7640000856200024160201b6200064e1790919060201c565b905292915050565b620002066200030d565b60405180602001604052806200022f8486600001516200028860201b6200068f1790919060201c565b905290505b92915050565b5190511090565b600082620002525750600062000234565b828202828482816200026057fe5b0414620002815760405162461bcd60e51b815260040162000134906200048a565b9392505050565b60006200028183836040518060400160405280601a81526020017f536166654d6174683a206469766973696f6e206279207a65726f000000000000815250620002d260201b60201c565b60008183620002f65760405162461bcd60e51b8152600401620001349190620003fd565b5060008385816200030357fe5b0495945050505050565b6040518060200160405280600081525090565b60006020828403121562000332578081fd5b6200033e602062000502565b9151825250919050565b60008082840360e08112156200035c578283fd5b60c08112156200036a578283fd5b506200037760c062000502565b835181526200038a856020860162000320565b60208201526200039e856040860162000320565b6040820152620003b2856060860162000320565b6060820152620003c6856080860162000320565b608082015260a0848101519082015260c08401519092506001600160a01b0381168114620003f2578182fd5b809150509250929050565b6000602080835283518082850152825b818110156200042b578581018301518582016040015282016200040d565b818111156200043d5783604083870101525b50601f01601f1916929092016040019392505050565b60208082526018908201527f496e76616c69642074696d656c6f636b4c6976656e6573730000000000000000604082015260600190565b60208082526021908201527f536166654d6174683a206d756c7469706c69636174696f6e206f766572666c6f6040820152607760f81b606082015260800190565b6020808252601b908201527f496e76616c696420726577617264526174655065725365636f6e640000000000604082015260600190565b6040518181016001600160401b03811182821017156200052157600080fd5b604052919050565b610d5d80620005396000396000f3fe608060405234801561001057600080fd5b50600436106100a95760003560e01c8063633b291b11610071578063633b291b14610113578063715018a61461012657806373c6a2881461012e5780638da5cb5b14610148578063e6bde91314610150578063f2fde38b14610158576100a9565b8063145701f8146100ae5780631c39c38d146100cc57806322f8e566146100e157806329cb924d146100f65780633950917f1461010b575b600080fd5b6100b661016b565b6040516100c39190610c2f565b60405180910390f35b6100d46101f9565b6040516100c39190610a30565b6100f46100ef366004610a00565b610208565b005b6100fe610282565b6040516100c39190610c77565b6100fe610326565b6100f4610121366004610985565b61032c565b6100f4610441565b6101366104c0565b6040516100c396959493929190610c80565b6100d4610505565b6100f4610514565b6100f461016636600461095e565b610536565b6101736108d8565b61017b6106d1565b61018361075e565b61018b610787565b506040805160c081018252600254815281516020818101845260035482528083019190915282518082018452600454815282840152825180820184526005548152606083015282519081019092526006548252608081019190915260075460a08201526101f6610796565b90565b6000546001600160a01b031681565b6000546001600160a01b031661021d57600080fd5b60005460405163117c72b360e11b81526001600160a01b03909116906322f8e5669061024d908490600401610c77565b600060405180830381600087803b15801561026757600080fd5b505af115801561027b573d6000803e3d6000fd5b5050505050565b600080546001600160a01b03161561031f5760008054906101000a90046001600160a01b03166001600160a01b03166329cb924d6040518163ffffffff1660e01b815260040160206040518083038186803b1580156102e057600080fd5b505afa1580156102f4573d6000803e3d6000fd5b505050506040513d601f19601f820116820180604052508101906103189190610a18565b90506101f6565b50426101f6565b600e5481565b6103346107ab565b6001546001600160a01b0390811691161461036a5760405162461bcd60e51b815260040161036190610b8c565b60405180910390fd5b61037261075e565b61037a610787565b6103826106d1565b61038b816107af565b8051600855602081015151600955604081015151600a55606081015151600b55608081015151600c5560a0810151600d556002546103d1906103cb610282565b90610834565b600e81905560208201515160408084015151845160608601515160808701515160a0880151945133977fbd8bc3d3f0d8c0858d97147138d622cb8f4442c8219dc1b792f69ec651a337089761042e97909695949392909190610cd0565b60405180910390a261043e610796565b50565b6104496107ab565b6001546001600160a01b039081169116146104765760405162461bcd60e51b815260040161036190610b8c565b6001546040516000916001600160a01b0316907f8be0079c531659141344cd1fd0a4f28419497f9722a3daafe3b4186f6b6457e0908390a3600180546001600160a01b0319169055565b6008546040805160208082018352600954825282518082018452600a54815283518083018552600b5481528451928301909452600c548252600d549293909290919086565b6001546001600160a01b031690565b61051c61075e565b610524610787565b61052c6106d1565b610534610796565b565b61053e6107ab565b6001546001600160a01b0390811691161461056b5760405162461bcd60e51b815260040161036190610b8c565b6001600160a01b0381166105915760405162461bcd60e51b815260040161036190610a97565b6001546040516001600160a01b038084169216907f8be0079c531659141344cd1fd0a4f28419497f9722a3daafe3b4186f6b6457e090600090a3600180546001600160a01b0319166001600160a01b0392909216919091179055565b6105f5610926565b60408051602081019091528061061384670de0b6b3a764000061064e565b905292915050565b610623610926565b60408051602081019091528351819061063c908561068f565b905290505b92915050565b5190511090565b60008261065d57506000610641565b8282028284828161066a57fe5b04146106885760405162461bcd60e51b815260040161036190610b4b565b9392505050565b600061068883836040518060400160405280601a81526020017f536166654d6174683a206469766973696f6e206279207a65726f000000000000815250610859565b6106d9610890565b1561053457600854600255600954600355600a54600455600b54600555600c54600655600d5460075561070a6108b3565b6003546004546002546005546006546007546040517f8722f0f2d3017a4a2c429a68c4b2a28bcc86c7c79200913fc6db14237364eed7966107549690959094909390929091610ca8565b60405180910390a1565b600054600160a01b900460ff166105345760405162461bcd60e51b815260040161036190610bf8565b6000805460ff60a01b19169055565b6000805460ff60a01b1916600160a01b179055565b3390565b805162093a80108015906107c7575080516201518011155b6107e35760405162461bcd60e51b815260040161036190610b14565b6107eb610926565b610802629896806107fc60216105ed565b9061061b565b60208301519091506108149082610647565b6108305760405162461bcd60e51b815260040161036190610bc1565b5050565b6000828201838110156106885760405162461bcd60e51b815260040161036190610add565b6000818361087a5760405162461bcd60e51b81526004016103619190610a44565b50600083858161088657fe5b0495945050505050565b6000600e546000141580156108ae57506108a8610282565b600e5411155b905090565b600060088190556009819055600a819055600b819055600c819055600d819055600e55565b6040518060c00160405280600081526020016108f2610926565b81526020016108ff610926565b815260200161090c610926565b8152602001610919610926565b8152602001600081525090565b6040518060200160405280600081525090565b60006020828403121561094a578081fd5b6109546020610d00565b9135825250919050565b60006020828403121561096f578081fd5b81356001600160a01b0381168114610688578182fd5b600060c08284031215610996578081fd5b6109a060c0610d00565b823581526109b18460208501610939565b60208201526109c38460408501610939565b60408201526109d58460608501610939565b60608201526109e78460808501610939565b608082015260a083013560a08201528091505092915050565b600060208284031215610a11578081fd5b5035919050565b600060208284031215610a29578081fd5b5051919050565b6001600160a01b0391909116815260200190565b6000602080835283518082850152825b81811015610a7057858101830151858201604001528201610a54565b81811115610a815783604083870101525b50601f01601f1916929092016040019392505050565b60208082526026908201527f4f776e61626c653a206e6577206f776e657220697320746865207a65726f206160408201526564647265737360d01b606082015260800190565b6020808252601b908201527f536166654d6174683a206164646974696f6e206f766572666c6f770000000000604082015260600190565b60208082526018908201527f496e76616c69642074696d656c6f636b4c6976656e6573730000000000000000604082015260600190565b60208082526021908201527f536166654d6174683a206d756c7469706c69636174696f6e206f766572666c6f6040820152607760f81b606082015260800190565b6020808252818101527f4f776e61626c653a2063616c6c6572206973206e6f7420746865206f776e6572604082015260600190565b6020808252601b908201527f496e76616c696420726577617264526174655065725365636f6e640000000000604082015260600190565b6020808252601f908201527f5265656e7472616e637947756172643a207265656e7472616e742063616c6c00604082015260600190565b600060c08201905082518252602083015151602083015260408301515160408301526060830151516060830152608083015151608083015260a083015160a083015292915050565b90815260200190565b958652935160208601529151604085015251606084015251608083015260a082015260c00190565b958652602086019490945260408501929092526060840152608083015260a082015260c00190565b968752602087019590955260408601939093526060850191909152608084015260a083015260c082015260e00190565b60405181810167ffffffffffffffff81118282101715610d1f57600080fd5b60405291905056fea2646970667358221220acc871fbdc1efd6eca2795fe3f2e70c2c7460545cf2bb28e846be0910b1801b164736f6c634300060c0033a2646970667358221220affcd381040aa9f49aaf22d87c86297b80b628ff9004e21add7ecc6e5066306964736f6c634300060c0033",
  "immutableReferences": {},
  "source": "// SPDX-License-Identifier: AGPL-3.0-only\npragma solidity ^0.6.0;\npragma experimental ABIEncoderV2;\n\nimport \"../../common/interfaces/ExpandedIERC20.sol\";\nimport \"../../common/interfaces/IERC20Standard.sol\";\nimport \"../../oracle/implementation/ContractCreator.sol\";\nimport \"../../common/implementation/Testable.sol\";\nimport \"../../common/implementation/AddressWhitelist.sol\";\nimport \"../../common/implementation/Lockable.sol\";\nimport \"../common/TokenFactory.sol\";\nimport \"../common/SyntheticToken.sol\";\nimport \"./PerpetualLib.sol\";\nimport \"./ConfigStore.sol\";\n\n/**\n * @title Perpetual Contract creator.\n * @notice Factory contract to create and register new instances of perpetual contracts.\n * Responsible for constraining the parameters used to construct a new perpetual. This creator contains a number of constraints\n * that are applied to newly created contract. These constraints can evolve over time and are\n * initially constrained to conservative values in this first iteration. Technically there is nothing in the\n * Perpetual contract requiring these constraints. However, because `createPerpetual()` is intended\n * to be the only way to create valid financial contracts that are registered with the DVM (via _registerContract),\n  we can enforce deployment configurations here.\n */\ncontract PerpetualCreator is ContractCreator, Testable, Lockable {\n    using FixedPoint for FixedPoint.Unsigned;\n\n    /****************************************\n     *     PERP CREATOR DATA STRUCTURES      *\n     ****************************************/\n\n    // Immutable params for perpetual contract.\n    struct Params {\n        address collateralAddress;\n        bytes32 priceFeedIdentifier;\n        bytes32 fundingRateIdentifier;\n        string syntheticName;\n        string syntheticSymbol;\n        FixedPoint.Unsigned collateralRequirement;\n        FixedPoint.Unsigned disputeBondPercentage;\n        FixedPoint.Unsigned sponsorDisputeRewardPercentage;\n        FixedPoint.Unsigned disputerDisputeRewardPercentage;\n        FixedPoint.Unsigned minSponsorTokens;\n        FixedPoint.Unsigned tokenScaling;\n        uint256 withdrawalLiveness;\n        uint256 liquidationLiveness;\n    }\n    // Address of TokenFactory used to create a new synthetic token.\n    address public tokenFactoryAddress;\n\n    event CreatedPerpetual(address indexed perpetualAddress, address indexed deployerAddress);\n    event CreatedConfigStore(address indexed configStoreAddress, address indexed ownerAddress);\n\n    /**\n     * @notice Constructs the Perpetual contract.\n     * @param _finderAddress UMA protocol Finder used to discover other protocol contracts.\n     * @param _tokenFactoryAddress ERC20 token factory used to deploy synthetic token instances.\n     * @param _timerAddress Contract that stores the current time in a testing environment.\n     */\n    constructor(\n        address _finderAddress,\n        address _tokenFactoryAddress,\n        address _timerAddress\n    ) public ContractCreator(_finderAddress) Testable(_timerAddress) nonReentrant() {\n        tokenFactoryAddress = _tokenFactoryAddress;\n    }\n\n    /**\n     * @notice Creates an instance of perpetual and registers it within the registry.\n     * @param params is a `ConstructorParams` object from Perpetual.\n     * @return address of the deployed contract.\n     */\n    function createPerpetual(Params memory params, ConfigStore.ConfigSettings memory configSettings)\n        public\n        nonReentrant()\n        returns (address)\n    {\n        require(bytes(params.syntheticName).length != 0, \"Missing synthetic name\");\n        require(bytes(params.syntheticSymbol).length != 0, \"Missing synthetic symbol\");\n\n        // Create new config settings store for this contract and reset ownership to the deployer.\n        ConfigStore configStore = new ConfigStore(configSettings, timerAddress);\n        configStore.transferOwnership(msg.sender);\n        emit CreatedConfigStore(address(configStore), configStore.owner());\n\n        // Create a new synthetic token using the params.\n        TokenFactory tf = TokenFactory(tokenFactoryAddress);\n\n        // If the collateral token does not have a `decimals()` method,\n        // then a default precision of 18 will be applied to the newly created synthetic token.\n        uint8 syntheticDecimals = _getSyntheticDecimals(params.collateralAddress);\n        ExpandedIERC20 tokenCurrency = tf.createToken(params.syntheticName, params.syntheticSymbol, syntheticDecimals);\n        address derivative = PerpetualLib.deploy(_convertParams(params, tokenCurrency, address(configStore)));\n\n        // Give permissions to new derivative contract and then hand over ownership.\n        tokenCurrency.addMinter(derivative);\n        tokenCurrency.addBurner(derivative);\n        tokenCurrency.resetOwner(derivative);\n\n        _registerContract(new address[](0), derivative);\n\n        emit CreatedPerpetual(derivative, msg.sender);\n\n        return derivative;\n    }\n\n    /****************************************\n     *          PRIVATE FUNCTIONS           *\n     ****************************************/\n\n    // Converts createPerpetual params to Perpetual constructor params.\n    function _convertParams(\n        Params memory params,\n        ExpandedIERC20 newTokenCurrency,\n        address configStore\n    ) private view returns (Perpetual.ConstructorParams memory constructorParams) {\n        // Known from creator deployment.\n        constructorParams.finderAddress = finderAddress;\n        constructorParams.timerAddress = timerAddress;\n\n        // Enforce configuration constraints.\n        require(params.withdrawalLiveness != 0, \"Withdrawal liveness cannot be 0\");\n        require(params.liquidationLiveness != 0, \"Liquidation liveness cannot be 0\");\n        _requireWhitelistedCollateral(params.collateralAddress);\n\n        // We don't want perpetual deployers to be able to intentionally or unintentionally set\n        // liveness periods that could induce arithmetic overflow, but we also don't want\n        // to be opinionated about what livenesses are \"correct\", so we will somewhat\n        // arbitrarily set the liveness upper bound to 100 years (5200 weeks). In practice, liveness\n        // periods even greater than a few days would make the perpetual unusable for most users.\n        require(params.withdrawalLiveness < 5200 weeks, \"Withdrawal liveness too large\");\n        require(params.liquidationLiveness < 5200 weeks, \"Liquidation liveness too large\");\n\n        // To avoid precision loss or overflows, prevent the token scaling from being too large or too small.\n        FixedPoint.Unsigned memory minScaling = FixedPoint.Unsigned(1e8); // 1e-10\n        FixedPoint.Unsigned memory maxScaling = FixedPoint.Unsigned(1e28); // 1e10\n        require(\n            params.tokenScaling.isGreaterThan(minScaling) && params.tokenScaling.isLessThan(maxScaling),\n            \"Invalid tokenScaling\"\n        );\n\n        // Input from function call.\n        constructorParams.configStoreAddress = configStore;\n        constructorParams.tokenAddress = address(newTokenCurrency);\n        constructorParams.collateralAddress = params.collateralAddress;\n        constructorParams.priceFeedIdentifier = params.priceFeedIdentifier;\n        constructorParams.fundingRateIdentifier = params.fundingRateIdentifier;\n        constructorParams.collateralRequirement = params.collateralRequirement;\n        constructorParams.disputeBondPercentage = params.disputeBondPercentage;\n        constructorParams.sponsorDisputeRewardPercentage = params.sponsorDisputeRewardPercentage;\n        constructorParams.disputerDisputeRewardPercentage = params.disputerDisputeRewardPercentage;\n        constructorParams.minSponsorTokens = params.minSponsorTokens;\n        constructorParams.withdrawalLiveness = params.withdrawalLiveness;\n        constructorParams.liquidationLiveness = params.liquidationLiveness;\n        constructorParams.tokenScaling = params.tokenScaling;\n    }\n\n    // IERC20Standard.decimals() will revert if the collateral contract has not implemented the decimals() method,\n    // which is possible since the method is only an OPTIONAL method in the ERC20 standard:\n    // https://eips.ethereum.org/EIPS/eip-20#methods.\n    function _getSyntheticDecimals(address _collateralAddress) public view returns (uint8 decimals) {\n        try IERC20Standard(_collateralAddress).decimals() returns (uint8 _decimals) {\n            return _decimals;\n        } catch {\n            return 18;\n        }\n    }\n}\n",
  "sourcePath": "/Users/nicholaspai/UMA/protocol/packages/core/contracts/financial-templates/perpetual-multiparty/PerpetualCreator.sol",
  "compiler": {
    "name": "solc",
    "version": "0.6.12+commit.27d51765.Emscripten.clang"
  },
  "schemaVersion": "3.3.4",
  "updatedAt": "2021-03-17T14:55:59.012Z",
  "networkType": "ethereum",
  "devdoc": {
    "kind": "dev",
    "methods": {
      "constructor": {
        "params": {
          "_finderAddress": "UMA protocol Finder used to discover other protocol contracts.",
          "_timerAddress": "Contract that stores the current time in a testing environment.",
          "_tokenFactoryAddress": "ERC20 token factory used to deploy synthetic token instances."
        }
      },
      "createPerpetual((address,bytes32,bytes32,string,string,(uint256),(uint256),(uint256),(uint256),(uint256),(uint256),uint256,uint256),(uint256,(uint256),(uint256),(int256),(int256),uint256))": {
        "params": {
          "params": "is a `ConstructorParams` object from Perpetual."
        },
        "returns": {
          "_0": "address of the deployed contract."
        }
      },
      "getCurrentTime()": {
        "returns": {
          "_0": "uint for the current Testable timestamp."
        }
      },
      "setCurrentTime(uint256)": {
        "details": "Will revert if not running in test mode.",
        "params": {
          "time": "timestamp to set current Testable time to."
        }
      }
    },
    "title": "Perpetual Contract creator.",
    "version": 1
  },
  "userdoc": {
    "kind": "user",
    "methods": {
      "constructor": "Constructs the Perpetual contract.",
      "createPerpetual((address,bytes32,bytes32,string,string,(uint256),(uint256),(uint256),(uint256),(uint256),(uint256),uint256,uint256),(uint256,(uint256),(uint256),(int256),(int256),uint256))": {
        "notice": "Creates an instance of perpetual and registers it within the registry."
      },
      "getCurrentTime()": {
        "notice": "Gets the current time. Will return the last time set in `setCurrentTime` if running in test mode. Otherwise, it will return the block timestamp."
      },
      "setCurrentTime(uint256)": {
        "notice": "Sets the current time."
      }
    },
    "notice": "Factory contract to create and register new instances of perpetual contracts. Responsible for constraining the parameters used to construct a new perpetual. This creator contains a number of constraints that are applied to newly created contract. These constraints can evolve over time and are initially constrained to conservative values in this first iteration. Technically there is nothing in the Perpetual contract requiring these constraints. However, because `createPerpetual()` is intended to be the only way to create valid financial contracts that are registered with the DVM (via _registerContract), we can enforce deployment configurations here.",
    "version": 1
  }
}